:020000040800F2
:10000000902605247D0700085907000861070008AD
:10001000510E00086D070008750700080000000079
:1000200000000000000000000000000091560008E1
:100030005107000800000000E1560008A90600086A
:10004000910E0008510700085107000851070008E9
:100050005107000851070008510700085107000820
:100060005107000851070008510700085107000810
:100070005107000851070008510700085107000800
:100080005107000851070008510700080000000050
:100090000000000000000000000000005107000800
:1000A00051070008510700085107000851070008D0
:1000B00051070008510700085107000851070008C0
:1000C00051070008510700085107000851070008B0
:1000D00051070008990F0008510700085107000850
:1000E00051070008510700080000000051070008F0
:1000F0005107000851070008510700085107000880
:10010000510700085107000851070008510700086F
:10011000510700085107000851070008510700085F
:10012000510700085107000851070008510700084F
:10013000510700085107000851070008000000009F
:1001400000000000000000000000000000000000AF
:10015000510700085107000851070008510700081F
:10016000510700085107000851070008510700080F
:1001700051070008510700085107000851070008FF
:1001800051070008510700085107000851070008EF
:1001900051070008510700085107000851070008DF
:1001A00051070008510700085107000851070008CF
:1001B000510700080000000000000000510700087F
:1001C000510700085107000800000000000000006F
:1001D00000000000000000005107000800000000BF
:1001E000000000000000000000000000000000000F
:1001F000000000000000000051070008510700083F
:1002000051070008510700085107000800000000CE
:1002100051070008510700085107000800000000BE
:10022000510700080000000051070008000000000E
:10023000510700085107000800000000510700089E
:1002400000000000000000000000000000000000AE
:10025000000000000000000000000000000000009E
:10026000000000005107000800000000000000002E
:10027000000000000000000000000000000000007E
:1002800051070008510700080000000000000000AE
:10029000000000000000000051070008510700089E
:1002A000510700085107000851070008000000002E
:1002B000000000000000000000000000000000003E
:1002C000000000005107000851070008510700080E
:1002D000510700085107000851070008510700089E
:1002E00051070008510700084D1100085107000888
:1002F000510700085107000851070008510700087E
:1003000051070008510700080000000051070008CD
:10031000510700085107000851070008510700085D
:10032000510700085107000851070008510700084D
:10033000510700085107000851070008510700083D
:10034000510700085107000851070008510700082D
:10035000510700085107000851070008510700081D
:10036000510700085107000851070008510700080D
:1003700051070008510700085107000851070008FD
:1003800051070008510700085107000851070008ED
:1003900051070008510700085107000851070008DD
:0403A00051070008F9
:1003B000A3F5803A704700BF174B002B08BF134BC3
:1003C0009D46FFF7F5FF00218B460F461348144A60
:1003D000121A3CF02EFF0E4B002B00D098470D4B0D
:1003E000002B00D098470020002104000D000D488C
:1003F000002802D00C48AFF300803CF069FF2000D9
:10040000290000F077F93CF0ADFD00BF00000800C6
:10041000390700084507000890260524B802002483
:1004200090E60424000000000000000053B94AB91F
:10043000002908BF00281CBF4FF0FF314FF0FF30EC
:1004400000F00CB8ADF1080C6DE904CE3CF0F6FB01
:10045000DDF804E0DDE9022304B07047704700BF17
:1004600010F8012B11F8013B012A28BF9A42F7D05E
:10047000D01A7047034613F8012B002AFBD1181A33
:10048000013870470000000000000000000000007C
:1004900001F0FF01102A2BDB10F0070F08D010F835
:1004A000013B013A8B422DD010F0070F42B3F6D139
:1004B000F0B441EA012141EA014122F007047FF052
:1004C00000070023F0E80256083C85EA010586EAA9
:1004D000010685FA47F5A3FA87F586FA47F6A5FAE5
:1004E00087F68EB9EED1F0BC01F0FF0102F00702F1
:1004F00032B110F8013B013A83EA010313B1F8D19C
:100500000020704701387047002D06BF354603387C
:10051000073815F0010F07D1013015F4807F02BFB5
:10052000013015F4C03F0130F0BC0138704700BF06
:100530000348044B834202D0034B03B11847704772
:10054000B8020024B8020024000000000548064B51
:100550001B1AD90F01EBA301491002D0034B03B1C1
:1005600018477047B8020024B802002400000000B9
:1005700010B5064C237843B9FFF7DAFF044B13B1EB
:100580000448AFF300800123237010BDB80200249B
:100590000000000080E1030808B5054B1BB10549C8
:1005A0000548AFF30080BDE80840FFF7CFBF00BFAC
:1005B00000000000BC02002480E10308074B80B467
:1005C000186800AF20B101441960BD4680BC704777
:1005D000034801441960BD4680BC7047D402002422
:1005E0009026052480B582B002AF05F0F1F8DFF85F
:1005F00058E04FF0020C00234FF480620D490E4882
:10060000CDE900CE04F052F8DFF840E04FF0030CE3
:1006100082220A4900230A48CDE900CE04F046F8B8
:10062000084B186804F0DAF8BD46BDE8804005F0D4
:10063000F9B800BF38E203085106000840E2030899
:100640007D060008E0020024DC020024D802002419
:10065000094C80B500AF0FF083F805F02FFC05F0D2
:100660007DFC39F08FF86368002098472BF096FDE9
:10067000052004F043F9F6E71000002480B500AF30
:10068000082104483BF014FC4FF47A7004F036F96A
:10069000F6E700BF0000025880B500AF4FF47A7053
:1006A00004F02CF9FAE700BF80B500AF04F040FD7C
:1006B000012800D180BDBD46BDE8804005F0CCB822
:1006C00080B582B0DFF828E04FF0010C00238222D1
:1006D00002AF05490548CDE900CE03F0E7FFBD466E
:1006E000BDE8804004F044B948E20308E50500088D
:1006F000E002002480B500AF00F0CAF94FF4167094
:1007000000F01EFA4FF4E13000F086FC00F0D2FB5E
:1007100000F082FA47F22F520920002100F0E2FC9B
:10072000034B044819683CF0F3FCFFF7C9FFFEE7F0
:100730000000002454E2030880B400AFBD4680BC32
:10074000704700BF80B400AFBD4680BC704700BF9B
:1007500080B400AFFEE700BF80B400AFFEE700BF8B
:1007600080B400AF7B4600BFFDE700BF80B400AFA0
:10077000FEE700BF80B400AFFEE700BF80B500AF6A
:1007800000F046F81E4A1F498A4216D20C3252F82F
:10079000043C94466BB1002352F80C0C52F8084C00
:1007A00050F8230044F82300013352F8040C83422C
:1007B000F2D38C4502F10C02E9D31349134B994251
:1007C0001BD203F1FF3C01F1100301F108020020EC
:1007D000ACEB010C2CF0070C9C4452F8043C4BB1E0
:1007E000002352F8081C41F82300013352F8041C7E
:1007F0008B42F6D308329445EFD1FFF7DDFD00BF01
:10080000082C0708142C0708142C07081C2C0708B0
:10081000844AB0B5D2F8883000AF834C43F47003FB
:10082000C2F88830D4F8003443F08043C4F8003470
:10083000D4F80034002BFBDAD4F84C044FF0B04568
:100840007A4940F001007A4B7A4AC4F84C04D5F852
:100850006804DFF80CC220F00100DFF808E2C5F8F8
:100860006804D4F80854744825F00305C4F8085403
:10087000D4F800542940714DC4F80014D4F8C414BD
:100880000B406F49C4F8C434D4F8083413406D4A9F
:10089000C4F80834D4F88C3418406B4BC4F88C047A
:1008A000D4F8900428400025C4F89004D4F89404A7
:1008B00001400120C4F89414D4F8D0140A404FF435
:1008C000E001C4F8D024D4F8F02413405F4AC4F8FF
:1008D000F0345F4BC4F80CE4C4F8CC14C4F804241E
:1008E000C4F884C4C4F888C4C4F89854C4F88034E4
:1008F000C4F8D854C4F89C54C4F8A054C4F8A45400
:100900003BF0DCFAD4F800242B4647494FF6FF7041
:1009100042F48032C4F80024D1F800240133940357
:1009200001D48342F8D1404BD3F80024910378D509
:10093000D3F84C444FF0B045464944F001044648D2
:10094000464AC3F84C44D5F8684444F00104C5F85D
:100950006844D3F8084444F08004C3F80844D3F84A
:10096000084444F08064C3F80844D3F8084444F0D1
:100970000054C3F80844D3F80844C3F80844D3F833
:10098000084444F48054C3F80844D3F89844214000
:10099000C3F89814D3F8981441F00211C3F89814CE
:1009A000D3F804140140C3F80414D3F804140A4320
:1009B000C3F80424D3F8802422F07F02C3F88024F3
:1009C000D3F8802442F00102C3F88024D3F88024B5
:1009D00042F06072C3F88024D3F8002442F08072A1
:1009E000C3F80024D3F800249201FBD5D3F80814EF
:1009F0000D4A21F00301C3F80814D3F8081441F09C
:100A00000301C3F80814D2F8083403F00C030C2BCC
:100A1000F9D100214FF00060BD46BDE8B0403BF089
:100A20000BB8FEE700ED00E000400258FFFFF2EADD
:100A3000FEFFFFAF0C03C000CC3F007E80808888A3
:100A4000C0EFFFC3FEFCFFFF888888FF2020000165
:100A500001010100F8FFFCFF00808000C51D0001BE
:100A6000202001010000FF1480B400AFBFF34F8FBE
:100A70000549064BCA6802F4E0621343CB60BFF33A
:100A80004F8F00BFFDE700BF00ED00E00400FA0556
:100A90002A4A536913F4003311D1BFF34F8FBFF3C8
:100AA0006F8FC2F85032BFF34F8FBFF36F8F536910
:100AB00043F400335361BFF34F8FBFF36F8F1F4871
:100AC000436913F4803330D190B5C0F8843000AF5F
:100AD000BFF34F8FD0F8803043F6E074C3F34E3C41
:100AE000C3F3C90E4FEA4C1C0CEA0401734641EAF9
:100AF0008372013BC0F860225A1CF8D1ACF1200C83
:100B00001CF1200FF0D1BFF34F8F436943F48033C2
:100B10004361BFF34F8FBFF36F8F084AD2F89C3207
:100B200043F00403C2F89C3290BD044AD2F89C32D0
:100B300043F00403C2F89C32704700BF00ED00E0B0
:100B40004FF0E023DFF830C04FF47A7280B41969B7
:100B500000FB02F200AF41F004011961CCF8000083
:100B6000196941F0020119615A611A6942F00102E2
:100B70001A61BD4680BC7047E40200240F4B4FF061
:100B8000E0214FF0000CB0B51C6800AF4D6900FBD0
:100B900004F48A698B699342FCD0A5EB03000CEB4B
:100BA000020E05D2AEEB030C644505D91A46F1E7F7
:100BB000844494446445F9D8B0BD00BFE4020024E5
:100BC00038B3144A4FF47A734FF0E0212DE9F04125
:100BD000156800AF8046002603FB05F54C694FF011
:100BE000000C8A698B699342FCD0A4EB030E02EBE4
:100BF0000C0005D2A0EB030C654505D91A46F1E7B8
:100C00009644F4446545F9D801364645E6D1BDE839
:100C1000F0817047E40200242DE9F04184B000AF78
:100C200038463AF019FFBFF35F8F864C636A23F4AE
:100C300080336362D4F8943023F00103C4F8943015
:100C4000BFF34F8FBFF36F8F4FF470630025DFF852
:100C5000FC8138463D603D73C7E901383AF00CFF2E
:100C60003AF034FFBFF35F8F0526C4F89460636ADF
:100C700043F480336362BFF34F8FBFF36F8F384607
:100C80003AF0EAFEBFF35F8F636A23F48033636256
:100C9000D4F8943023F00103C4F89430BFF34F8F9D
:100CA000BFF36F8F4FF0005338463D733B6041F206
:100CB0000103C7F808807B603AF0DEFE3AF006FFD9
:100CC000BFF35F8FC4F89460636A43F48033636258
:100CD000BFF34F8FBFF36F8F38463AF0BDFEBFF3BF
:100CE0005F8F636A23F480336362D4F8943023F017
:100CF0000103C4F89430BFF34F8FBFF36F8F4FF0F1
:100D0000105341F2023238463D733B604E4BC7E907
:100D100001233AF0B1FE3AF0D9FEBFF35F8FC4F879
:100D20009460636A43F480336362BFF34F8FBFF311
:100D30006F8F38463AF090FEBFF35F8F636A23F4FB
:100D400080336362D4F8943023F00103C4F8943004
:100D5000BFF34F8FBFF36F8F4FF0405338463D7353
:100D60003B6040F60363C7F808807B603AF084FE7E
:100D70003AF0ACFEBFF35F8FC4F89460636A43F44B
:100D800080336362BFF34F8FBFF36F8F38463AF003
:100D900063FEBFF35F8F636A23F480336362D4F82A
:100DA000943023F00103C4F89430BFF34F8FBFF3A6
:100DB0006F8F4FF0C04341F6041138463D733B60DE
:100DC0000323C7E901133AF057FE3AF07FFEBFF361
:100DD0005F8FC4F89460636A43F480336362BFF347
:100DE0004F8FBFF36F8F38463AF036FEBFF35F8FF9
:100DF000636A23F480336362D4F8943023F00103F0
:100E0000C4F89430BFF34F8FBFF36F8F4FF0404261
:100E100041F6050338463D7387E80C013AF02CFE95
:100E20003AF054FEBFF35F8FC4F89460636A43F4F2
:100E300080336362BFF34F8FBFF36F8F1037BD46B0
:100E4000BDE8F08100ED00E00301010003000101B5
:100E500080B5002200AF08210A483AF087FF0A480F
:100E60003CF056F94FF47A70FFF7AAFE07483CF0C1
:100E70004FF94FF47A70FFF7A3FEBD46BDE88040FE
:100E8000FFF7F2BD0000025870E2030888E2030891
:100E9000064B7F2280B51A6000AF3BF031F8082185
:100EA0000348BD46BDE880403BF002B8003000502A
:100EB0000000025880B54FF4706000AF3AF028F996
:100EC0004FF470603AF024F90122042311481146CE
:100ED0003AF00AFE0423012200210E483AF0B8FE3F
:100EE000012208230B4811463AF0FEFD0823012297
:100EF000002108483AF0ACFE0122042105483AF0EE
:100F000035FF012208210348BD46BDE880403AF084
:100F10002DBF00BF0000025880B400AFFEE700BF45
:100F200080B44FF0FF3000AFBD4680BC704700BFBB
:100F300080B44FF4005300AF00204B60BD4680BC2E
:100F4000704700BF80B4012000AFBD4680BC704731
:100F500080B4002000AFBD4680BC704780B4002044
:100F600000AFBD4680BC7047F8B5161E00AF0FDD60
:100F70004C1E351940F2067106483BF021F9002855
:100F8000F8D014F8011F03483BF00AF9AC42F1D144
:100F90003046F8BD0010014080B51A4900AF1A482C
:100FA0003BF05CF938B940F203711748BD46BDE823
:100FB00080403BF011B914483BF0FAF8134BB3F9F9
:100FC00000101A880029EEDB5104C0B204D50A28AB
:100FD00010D000221A80E6E70D280FD0511CDFF850
:100FE00034C0C2F30D0289B20CF80200C72919807F
:100FF000EFD8D8E7064911431980D4E742F480427C
:101000001A80D0E70500050700100140E80200241F
:101010000080FFFFEC02002498B5044600AF4FF4B7
:1010200070603AF075F84FF470603AF071F841F280
:1010300004103AF06DF84FF40072072127483AF097
:10104000ABFE4FF48062072124483AF0A5FE4FF42E
:1010500000730122022121483AF046FD4FF400734B
:10106000032200211D483AF0F3FD4FF48063012272
:1010700002211A483AF038FD4FF480630322002120
:1010800016483AF0E5FD16483AF044FF2146144868
:101090003AF0C0FF002112483BF050F80021104800
:1010A0003BF03CF800210E483BF028F808210C48A2
:1010B0003BF05EF804210A483BF066F80521084839
:1010C0003BF0BCF80322252011463AF06BFC0448A3
:1010D000BD46BDE898403BF041B800BF0000025853
:1010E00000100140B0B588B0044641F20A000D4638
:1010F00000AF7A603AF00CF813483BF0CDF807F1F6
:1011000008003BF0DDF900237A6807F108010E487A
:101110007B81BB813B83FB613A81C7E904453BF09E
:10112000E3F9012108483BF099FA012106483BF018
:1011300075FA03220121AA203AF034FC02483BF060
:1011400063FA2037BD46B0BD00F0004080B50121F4
:1011500000AF08483BF06AFA012800D080BD064A7B
:1011600001460448136801331360BD46BDE8804062
:101170003BF074BA00F00040B40300242DE9F04FB6
:1011800087B09946A2F12003044600AFA9F10C02F2
:10119000DBB27961B7F84010B960142A12D8DFE8E1
:1011A00002F0831111117F11111111111111791117
:1011B0001111111111111500D7E9035001307B688D
:1011C000984219D11C37BD46BDE8F08F3F4A02EB6B
:1011D000831319F007024FEA5901DFF808C11846D6
:1011E00018BF012202EBD90212FB01F2384953FA6F
:1011F00082F57A697D60254602F1080E03784FEA90
:10120000152B1FFA8EFE5FFA85FAC7E9035024E01A
:10121000BCF80C802F480068A1F8FE60A1F800B16E
:10122000A1F800A1A1F8FE80BCF80860A1F8005167
:10123000A1F80041A1F8FE60A1F800010132BCF85C
:1012400002005B007C6992B2DBB29042A2EB040424
:10125000B8D94C452ED07245AED018064FEA1225AB
:10126000D4B2BCF80A60D3D5BCF80C00A1F8FE607B
:10127000A1F800B1A1F800A1A1F8FE00A1F8005169
:10128000A1F80041BCF80800A1F8FE00B868A1F878
:101290000001D3E703EBC3030F4A02EB830398E794
:1012A0000E4A02EB031394E703EB43030C4A02EBF1
:1012B00083038EE7D7E903506B1C9DB2BCF8003066
:1012C000AB427FF67FAF7A6978E700BFE8EC0308AE
:1012D00000FF0F6004000024A8040408041204089E
:1012E000F4170408B803002480B483B0054A00AFA3
:1012F000F880FB88FB880C37A2F80031BD4680BC23
:10130000704700BF00FF0F6080B483B0054A00AF94
:10131000F880FB88FB880C37A2F8FE30BD4680BC05
:10132000704700BF00FF0F60414A90B5937900AF4E
:10133000012B08D00138062871D8DFE800F03C48BE
:10134000505860680C00072869D8DFE800F0600496
:10135000505834684840374B3620E821A3F8FE0047
:10136000A3F80011138851888B4201D21180538059
:1013700054894FF0000C2F4B5088B2F80CE0A3F8C2
:10138000FE400138A3F800C1A3F800C1C1B2128821
:101390000012013A1412D2B2A3F80041A3F80021BE
:1013A000A3F8FEE0A3F800C1A3F800C1A3F8000170
:1013B000A3F8001190BD1F4B36208821A3F8FE0032
:1013C000A3F80011138851888B42D1D9CEE7194B6D
:1013D00036204821A3F8FE00A3F80011F2E7154BD0
:1013E0003620C821A3F8FE00A3F80011EAE7114B4C
:1013F00036202821A3F8FE00A3F80011B2E70D4B18
:1014000036206821A3F8FE00A3F80011AAE7094BD3
:101410003620A821A3F8FE00A3F80011A2E7054B8F
:1014200036200821A3F8FE00A3F80011CAE700BF88
:10143000B803002400FF0F60DFF844C00F4B80B5F5
:10144000BCF80AE000AFA3F8FEE04FEA102EC0B2ED
:10145000A3F800E1BCF80CE0BCF808C0A3F8000158
:10146000080AC9B2A3F8FEE0A3F80001A3F800112E
:10147000A3F8FEC0A3F8002180BD00BF00FF0F60ED
:10148000B80300240000000090B5A1B04FF46060E4
:10149000002400AF39F03CFE0F2307F14000BB6190
:1014A000BB639FED197BC7E90044C7E9024487EDA0
:1014B000047B9FED177BC7E90844C7E90A4487ED21
:1014C0000C7B3BF029FB012307F120024FF0100CAD
:1014D00007F140003C643C67FC66C7E91934C7E982
:1014E0001734C7E913C4C7E91D72C7E91544C7E932
:1014F00011443BF027FB20463BF092FB8437BD466E
:1015000090BD00BFAFF300806E000000000000003F
:101510007800000000000000B0B540F6037000AF96
:1015200039F0F6FD40F6047039F0F2FD40F6037034
:1015300039F0EEFD40F6037039F0EAFD40F6017037
:1015400039F0E6FD4FF4706039F0E2FD40F60370CB
:1015500039F0DEFD40F6047039F0DAFD0122022395
:101560007B4811463AF0C0FA0223002178481A4617
:101570003AF06EFB01224FF48073764811463AF040
:10158000B3FA4FF480730222002172483AF060FBF4
:1015900080220C2170483AF0FFFB802301220221B7
:1015A0006D483AF0A1FA8023022200216A483AF0FD
:1015B0004FFB08220C2169483AF0EEFB0823012278
:1015C000022166483AF090FA08230222002163487B
:1015D0003AF03EFB20220C215F483AF0DDFB20234D
:1015E000012202215C483AF07FFA202302220021E6
:1015F00059483AF02DFB10220C2157483AF0CCFB09
:1016000010230122022154483AF06EFA10230222DC
:10161000002151483AF01CFB4CF203720C214E4859
:101620003AF0BAFB4CF20373012202214A483AF025
:101630005BFA4CF203730222002147483AF008FBA0
:101640004FF680720C2145483AF0A6FB4FF68073A6
:101650000122022141483AF047FA4FF680730222F4
:1016600000213E483AF0F4FAFFF70EFF3C4B013BF5
:10167000FDD101224FF48071364800243AF076FB08
:101680000A20FFF79DFA00224FF4807131483AF0AA
:101690006DFB3220FFF794FA01224FF480712D4840
:1016A0003AF064FBC8202F4DFFF78AFA47F2967193
:1016B0002D48A9803BF02CFD00F0FCFA2B4B2C4868
:1016C0002B21D3F80421A860204622F00F02A98123
:1016D000AC71C3F80421D3F80421264922F47F42D7
:1016E000C3F80421D3F8042142F00302C3F8042113
:1016F000D3F8042142F44072C3F804212960FFF7B3
:1017000013FE0122022112483AF030FB29886A8830
:10171000194BB5F80AC001FB02F2A8892989A3F880
:10172000FEC0A3F80041A3F80041A3F8FE00A3F80F
:101730000041A3F80041A3F8FE103AB120464FF053
:10174000FF310130A3F800118242FAD1B0BD00BFD1
:101750000004025800000258000C02580010025801
:10176000FFFF0100B80300249CE203080040005280
:101770002C002A004001E00100FF0F60DFF850C09C
:101780000023124A80B5BCF800E000AFBCF802109C
:101790000EFB01F1BCF80AE0A2F8FEE0BCF80CE098
:1017A000BCF808C0A2F80031A2F80031A2F8FEE0AF
:1017B000A2F80031A2F80031A2F8FEC021B1013335
:1017C000A2F800019942FAD180BD00BF00FF0F606E
:1017D000B8030024994237D8121A2DE9F04F94B279
:1017E00000AF1E468E464FEA1029184BC5B24FF681
:1017F000FF78174804F1010C796AB3F80AA04FEAA0
:101800001E2B9A894445A0F8FEA0A0F80091A0F8EC
:101810000051A0F8FE205FFA8EF2B3F808A0A0F8FD
:1018200000B1A0F80021A0F8FEA005D000220132EE
:10183000A0F800119445FAD10EF1010E1FFA8EFEA8
:101840007645DAD2BDE8F08F704700BFB8030024B8
:1018500000FF0F602DE9F04F5D1A00AF0135ADB20A
:10186000002D3BD0121A7B6A88464FEA102A1FFAD5
:1018700082F94FF0000EC6B2194909F10104194866
:10188000A3F1020BA4B24A8908EB0E03A0F8FE20D4
:101890008A89A0F800A1A0F80061A0F8FE20C3F397
:1018A0000722DBB2A0F800210A89A0F80031A0F8D5
:1018B000FE206CB104FB0EFC7A6A0BEB4C03CC44AB
:1018C00002EB4C0C33F8022F9C45A0F80021F9D113
:1018D0000EF1010E1FFA8EFE7545D4D8BDE8F08FCB
:1018E000B803002400FF0F602DE9F04F85B0A2EB94
:1018F000000A0C46054600AFBAF1000FA3EB040B3B
:10190000398FF96053DDBBF1000F45DD01237B60AA
:10191000D3455E464FF00103B8BF56463B60F3180F
:10192000BB604FF0000CDFF82081464BE646624674
:10193000B8F80A00C5F30721D6440132A3F8FE0027
:10194000C4F30720A3F80011E9B2764592B2A3F8D8
:101950000011E1B2B8F80C90DC44A3F8FE90A3F8B3
:101960000001A3F80011B8F80810A3F8FE10F968F8
:10197000A3F8001103DA7968AEEB060E0D44664554
:1019800003DA3968ACEB060C0C44B9689142CFDA43
:101990001437BD46BDE8F08F19D10AF10103564650
:1019A000BB6001237B6000239B463B60B9E705D108
:1019B000BBF1000F19DDC7F804A0A9E7BBF1000FC8
:1019C000A0EB020A18DD4FF0FF337B60A0E7A4EB29
:1019D000030B564601234FF0FF32DA45B8BF5E468F
:1019E000C7E90023F318BB609BE71FD101235646CC
:1019F000C7F804A0BB60D6E709D14FF0FF332AEA4D
:101A0000EA76C7F800B07B60731CBB6089E7A4EB83
:101A1000030B5646DA45B8BF5E46731CB8DB4FF081
:101A2000FF33721C3B60C7E901327AE7A4EB030B7A
:101A30004FF0FF33C7F804A02BEAEB763B60731C32
:101A4000BB606EE700FF0F60B80300242DE9F04F84
:101A50008BB09B460A234FF0000900AFDFF8E0810E
:101A600092467B6053003A60C3F10303C7E9081054
:101A7000BB603A6A7B6A7149A2EB0A0E03EB090468
:101A800002EB09050E464989A2EB0900C4F3072CB5
:101A9000A8F8FE10E4B23A62FD6003EB0A05B289D1
:101AA0007B623389CEF30726A8F800C1A8F800416D
:101AB000A8F8FE20FE615FFA8EF6C5F3072EEDB2A0
:101AC000BE61FE69A8F80061BE69A8F80061C0F3B4
:101AD0000726C0B2A8F8FE30A8F800B1A8F8FE109A
:101AE000A8F800E1A8F80051A8F8FE207E61A8F847
:101AF00000613861A8F80001A8F8FE30A8F800B12C
:101B0000A8F8FE10A8F800E1A8F80051A8F8FE20F7
:101B1000FE68C6F30725F6B2FD60A8F80051A8F8E4
:101B20000061A8F8FE30A8F800B1A8F8FE10A8F8E7
:101B300000C1A8F80041A8F8FE203C6A5444C4F350
:101B4000072CE4B2A8F800C1A8F80041A8F8FE30BC
:101B5000A8F800B1A8F8FE10786AA0EB090509F111
:101B60000109C5F3072EEDB2A8F800E1A8F800516D
:101B7000A8F8FE20A8F800C1A8F80041A0EB0A04CC
:101B8000A8F8FE30C4F3072CE4B2A8F800B1A8F816
:101B9000FE10A8F800C1A8F80041A8F8FE20F868D7
:101BA000A8F80001A8F80061A8F8FE30A8F800B174
:101BB000A8F8FE10A8F800E1A8F80051A8F8FE2047
:101BC000FE69A8F80061BE69A8F80061A8F8FE30B7
:101BD000A8F800B1A8F8FE10A8F800C1A8F80041C4
:101BE000A8F8FE207E69A8F800613869A8F800010D
:101BF000A8F8FE30A8F800B1BB68002B10DB3B68EA
:101C00005A1E914515DC7968A9EB030392463A60A8
:101C100004317960B96801EB83030A33BB6028E7BC
:101C20003A684A4505DB7A681344BB60131D7B6044
:101C30001FE72C37BD46BDE8F08F00BFB803002476
:101C400000FF0F602DE9F04F85B092460D4602AFC0
:101C5000D7F8348097F8306098F80020B7F838B09B
:101C6000A2F120015E2921D82B44824404461FFAA8
:101C700083F9C3B21FFA8AFA7B600CE0CDF800B09A
:101C800004EB5604FFF77AFA18F8012FA4B2A2F178
:101C900020035E2B0AD8A245334606EB050101D886
:101CA0008DB27C684D4529462046E7D30C37BD46AA
:101CB000BDE8F08F80B5112000AFFFF725FB78203D
:101CC000FEF77EFF3620FFF71FFB4820FFF70CFBD7
:101CD0003A20FFF719FB5520FFF706FBF020FFF72E
:101CE00013FBC320FFF700FBF020FFF70DFB96204E
:101CF000FFF7FAFAB420FFF707FB0120FFF7F4FA29
:101D0000B620FFF701FB0A20FFF7EEFAA220FFF74B
:101D1000EBFAB720FFF7F8FAC620FFF7E5FAB9208B
:101D2000FFF7F2FA0220FFF7DFFAE020FFF7DCFA14
:101D3000C020FFF7E9FA8020FFF7D6FA1620FFF758
:101D4000D3FAC120FFF7E0FA1920FFF7CDFAC2203D
:101D5000FFF7DAFAA720FFF7C7FAC520FFF7D4FA92
:101D60001620FFF7C1FAE820FFF7CEFA4020FFF770
:101D7000BBFA8A20FFF7B8FA0020FFF7B5FA002077
:101D8000FFF7B2FA2920FFF7AFFA1920FFF7ACFAF4
:101D9000A520FFF7A9FA3320FFF7A6FAE020FFF706
:101DA000B3FAF020FFF7A0FA0720FFF79DFA0D2005
:101DB000FFF79AFA0420FFF797FA0520FFF794FA45
:101DC0001420FFF791FA3620FFF78EFA5420FFF720
:101DD0008BFA4C20FFF788FA3820FFF785FA13209A
:101DE000FFF782FA1420FFF77FFA2E20FFF77CFA24
:101DF0003420FFF779FAE120FFF786FAF020FFF7A9
:101E000073FA1020FFF770FA1420FFF76DFA0E2016
:101E1000FFF76AFA0C20FFF767FA0820FFF764FA69
:101E20003520FFF761FA4420FFF75EFA4C20FFF7F8
:101E30005BFA2620FFF758FA1020FFF755FA122018
:101E4000FFF752FA2C20FFF74FFA3220FFF74CFA37
:101E5000F020FFF759FA3C20FFF746FAF020FFF791
:101E600053FA6920FFF740FA7820FEF7A9FE2120F7
:101E7000FFF74AFA2920BD46BDE88040FFF744BA83
:101E8000B0B500AF0C4605463AF0F0FB3AF0CAFD9B
:101E900040F6046039F03CF940F6017039F038F949
:101EA00040F6017039F034F940F6037039F030F93A
:101EB00040F6037039F02CF940F6047039F028F937
:101EC00040F6037039F024F904220921624839F000
:101ED00063FF4FF4806209215F4839F05DFF4FF4E2
:101EE000006209215D4839F057FF4FF48052092103
:101EF0005A4839F051FF04220921594839F04CFF62
:101F00004FF400520921554839F046FF04230022BE
:101F10000221514839F0E8FD0423032200214E48F4
:101F200039F096FE4FF48063002202214A4839F0CE
:101F3000DBFD4FF4806303220021474839F088FE1F
:101F40004FF4006300220221444839F0CDFD4FF4E4
:101F5000006303220021414839F07AFE4FF4805398
:101F6000002202213D4839F0BFFD4FF48053032287
:101F700000213A4839F06CFE04230022022138483F
:101F800039F0B2FD042303220021354839F060FE08
:101F90004FF4005300220221304839F0A5FD4FF4E0
:101FA0000053032200212D4839F052FE0121002068
:101FB0003AF046FD4FF4807100203AF065FD4FF491
:101FC000803100203AF084FD264B9D4233D003F54A
:101FD000A0439D421CD020463AF06AFB4FF4407269
:101FE000032000234FF080416361A1602146C4E9D2
:101FF00000024FF4B810C4E90633C4E903022846CE
:102000003AF06AFB2846BD46BDE8B0403AF09ABBBC
:1020100040F6066039F07CF8022100203AF022FDFB
:102020004FF4007100203AF041FD4FF48021002070
:102030003AF060FDCFE740F6056039F069F800211D
:1020400008463AF00FFD002108463AF02FFD002126
:1020500008463AF04FFDBEE700040258000C025853
:1020600000100258005000522DE9F04192B0804615
:102070000E46154600AF3C22002107F1080097F8F4
:1020800060407B603BF0D5F87B68C7F80C8003F0BC
:102090000702BE617C64013AFD63032A05D8DFE8CC
:1020A00002F04643024003223A61C3F3C202013AFE
:1020B000032A06D8DFE802F0312D02294FF44072DE
:1020C000FA6113F0C00FC3F3811208D0012A3DD08A
:1020D000022A0CBF4FF400524FF440523A62C3F34D
:1020E0000223013B032B06D8DFE803F02C2802244F
:1020F0004FF04073BB6307F10802164916483AF0E7
:102100002BFB4837BD46BDE8F0814FF48062FA6191
:10211000D7E74FF40072FA61D3E74FF48072FA61A7
:10212000CFE704223A61C0E702223A61BDE701220B
:102130003A61BAE74FF08063BB63DCE74FF00073AE
:10214000BB63D8E74FF08073BB63D4E74FF4805292
:102150003A62C4E7C803002400500052B0B586B00C
:1021600000244A494A4802AFFFF78AFE2246214628
:102170000323FF200094FFF777FF2146009440F2ED
:102180000113012235203C73FFF76EFF07F10C01AC
:102190003F483AF019FC3C7B14F0020138D000248F
:1021A00040F289130222902021460094FFF75CFF41
:1021B00007F10C0136483AF007FC41F6EF02BB8903
:1021C00093420AD05BBA334A99B21380324810372F
:1021D000BD46BDE8B0403AF09BBF304A03214EF601
:1021E00018732C4D009415201170214601222B806C
:1021F0003C7340F20113FFF737FF07F10C0124484D
:102200003AF0E2FB3C7B14F0010319D02988DDE7AA
:1022100000910A4679600123062044F00204FFF78A
:1022200023FF796840F201130122009131203C73B1
:10223000FFF71AFF07F10C0115483AF0A7FBAEE7CC
:102240001D4644F00204012306202A462946009533
:10225000FFF70AFF40F201130122294611200095E1
:102260003C73FFF701FF07F10C0109483AF08EFBC0
:102270001420FEF7A5FC012329462A46B720009525
:10228000FFF7F2FE034B1988A0E700BFC803002444
:10229000005000520A000024A0E2030808000024B5
:1022A00090B5DFF838E083B04FF0060C04469EF896
:1022B000000040F2193302AF00FA0CF0CDF800C074
:1022C0000343EB20FFF7D0FE214603480437BD4609
:1022D000BDE890403AF078BB00500052080000245E
:1022E0002DE9F047CDB284B0DFF88CA08846C5F563
:1022F0008075164602AF954281464FF0000428BF14
:10230000154600220123062000941146FFF7ACFE7B
:102310009AF800C040F2093341464FEA8C1C322043
:102320002A4600944CEA0303FFF79EFE49461148F3
:102330003AF02CFB40F20113012200210520009409
:10234000FC71FFF791FEF91D0A483AF03DFBFB795D
:10235000DB07EFD4AE4209D0761BA944A844B6F5FA
:10236000807F354628BF4FF48075CAE70837BD46E1
:10237000BDE8F0870050005208000024F0B50025A9
:1023800085B006030123062002AF2A4629460095A0
:10239000FFF76AFE40F2011301220021052000959B
:1023A000FD71FFF761FEF91D12483AF00DFBFC7953
:1023B00014F00104EED1104B2246314620201B7848
:1023C00000949B0143F00903FFF74EFE40F2011316
:1023D0000122002105200094FC71FFF745FEF91D44
:1023E00004483AF0F1FAFB79DB07EFD40C37BD462D
:1023F000F0BD00BF00500052080000242DE9F04F4E
:10240000C1F30B0489B00B0BDFF8B4B1C4F5805AEB
:1024100002AF9245B86028BF9246FB60C7E9002131
:102420001A469BF8003040F219311503062241EAA2
:102430008313EB20294600929BB24FF48052FFF7A2
:1024400013FE5C495C483AF0BFFABAF1000F61D064
:10245000584B00221E19334602E00132924559D0F2
:1024600019780133FF29F8D0924553D9F868FFF75E
:1024700085FF0AF1FF31052940F291804F4AB86883
:1024800022440346121A022A40F289802AF00306E7
:10249000484A4FEA9A0C2244304453F8041B8342C2
:1024A00042F8041BF9D1B24517D0721CB868A319C1
:1024B00010F82C101FFA82FC3E4AE245D1540CD988
:1024C000B31C10F80C100CEB04023A4E9BB2B15442
:1024D0009A4502D91C44C35C33554FF480522946B7
:1024E0003448FFF7FDFE3B68534554D0BA68A3EB70
:1024F0000A0300245244B3F5805F3B60BA6028BFF2
:102500004FF480537A6852449A467A60FA680132EE
:10251000FA6086E7D7F804905646D7F8088000247A
:102520005FFA89F5C5F58075554528BF55460022E7
:102530000123062000941146FFF796FD009440F217
:1025400009339BF800204946322043EA82132A4689
:10255000FFF78AFD414618483AF018FA40F2011395
:102560000122002105200094FC75FFF77DFD07F195
:10257000170111483AF028FAFB7DDB07EED4B5428B
:10258000B1D0761BA844A944B6F5807F354628BF54
:102590004FF48075CBE71C37BD46BDE8F08FBB68B4
:1025A0001944013B13F8012F8B4206F8012BF9D196
:1025B00093E700BFE803002400500052E703002423
:1025C0000800002480B540F6017000AF38F0A0FD8F
:1025D00040F6017038F09CFD01224FF400631B4867
:1025E000114639F081FA4FF40063012200211748A7
:1025F00039F02EFB01224FF480431448114639F084
:1026000073FA01224FF480431048114639F020FB41
:1026100000224FF480410D4839F0A8FB0220FEF75C
:10262000ADFA01224FF40061084839F09FFB022007
:10263000FEF7A4FA01224FF48041044839F096FBDA
:102640000220BD46BDE88040FEF798BA000402585B
:1026500080B5012200AF4FF48041104839F086FB6D
:1026600001224FF400610D4839F080FB0220FEF793
:1026700085FA00224FF48041084839F077FB0220A8
:10268000FEF77CFA00224FF40061044839F06EFB3B
:102690000220BD46BDE88040FEF770BA0004025833
:1026A00080B5002200AF4FF480410D4839F05EFB49
:1026B0000220FEF763FA01224FF40061084839F066
:1026C00055FB0220FEF75AFA01224FF480410448DC
:1026D00039F04CFB0220BD46BDE88040FEF74EBA03
:1026E0000004025890B583B001224FF4804126487F
:1026F00000AF39F03BFB0220FEF740FA01224FF415
:102700000061214839F032FB0220FB24FEF736FA43
:1027100004E012F0FF0419D0FEF730FA4FF48041C4
:10272000194839F02FFB0346621E0220002BF0D11E
:1027300000224FF4006114487B6039F017FB02203F
:10274000FEF71CFA78680C37BD4690BD22464FF460
:1027500080410D4839F00AFB0220FEF70FFA0122F2
:102760004FF40061084839F001FB0220FEF706FA39
:1027700001224FF48041044839F0F8FA0220FEF7B4
:10278000FDF90123D4E700BF00040258B0B50824C6
:1027900000AF05462B064FF000024FF4804113486E
:1027A00048BF0122013C39F0E1FA0220FEF7E6F9C8
:1027B00001224FF400610D4839F0D8FA0220FEF7EB
:1027C000DDF900224FF40061084839F0CFFA14F027
:1027D000FF044FEA4505DDD101224FF48041034853
:1027E000BD46BDE8B04039F0C1BA00BF0004025890
:1027F000F8B5064600AF08250024640001224FF416
:102800000061314839F0B2FA0220E4B2FEF7B6F9BD
:102810004FF480412C4839F0B5FA631C84460022FD
:10282000DBB24FF400612848944518BF1C4639F0CC
:102830009DFA0220FEF7A2F96A1E12F0FF05DCD114
:10284000E6B901224FF480411F4839F08FFA022087
:10285000FEF794F901224FF400611B4839F086FA23
:102860000220FEF78BF932464FF40061164839F02A
:102870007DFA0220FEF782F92046F8BD2A464FF481
:102880008041114839F072FA0220FEF777F90122EF
:102890004FF400610C4839F069FA0220FEF76EF936
:1028A0002A464FF40061084839F060FA0220FEF72A
:1028B00065F901224FF48041034839F057FA0220AC
:1028C000FEF75CF92046F8BD00040258B0B582B0AE
:1028D00040F60170002400AF38F01AFC40F6017099
:1028E00038F016FC01224FF480535F4811463D46F4
:1028F00039F0FAF84FF48053012200215A4839F098
:10290000A7F94FF4005301220021574839F0ECF8A1
:10291000FFF758FE00224FF48051534839F026FA51
:102920001E20FEF74DF901224FF480514E4839F038
:102930001DFA1E20FEF744F900224FF400534A48C6
:10294000114639F0D1F86420FEF73AF9FFF780FE1E
:102950002820FFF71BFFFFF7C5FE8120FFF716FFBA
:10296000FFF7C0FE4020FFF711FFFFF7BBFEFFF7A8
:102970006FFE2920FFF70AFFFFF7B4FEE01E04F107
:10298000010418BF0120FFF733FF042C05F8010BE9
:10299000F4D1FFF785FE0023394634483B713AF005
:1029A000B7FB33493846FDF75BFD28B1314938465E
:1029B000FDF756FD002843D12F493846FDF750FD5D
:1029C000D0B3022300243B70FFF742FE2820FFF71C
:1029D000DDFEFFF787FE8020FFF7D8FEFFF782FEBF
:1029E0004020FFF7D3FEFFF77DFE3878FFF7CEFEDD
:1029F000FFF778FEFFF754FE0A20FEF7E1F83C707F
:102A0000FFF726FE2820FFF7C1FEFFF76BFE8020B0
:102A1000FFF7BCFEFFF766FE4020FFF7B7FEFFF7AB
:102A200061FE3878FFF7B2FEFFF75CFEFFF738FE75
:102A300020460837BD46B0BD104B0A221A70C0E7C9
:102A40000F493846FDF70CFD0028B5D00A49384635
:102A5000FDF706FD0028AFD00A493846FDF700FD16
:102A60000028A9D00120E4E700040258A8E20308E6
:102A7000B4E20308C0E20308B8E203080C00002433
:102A8000C8E20308D0E203082DE9F04FA64E85B056
:102A90008246327800AF0132D2B202EB820132704C
:102AA00002EBC10101EB8101C1F3460000EBC11152
:102AB000C9B2192911D9092A0FD90AF08F03802B1D
:102AC00000F0FC8000243378F02B01D90A23337006
:102AD00020461437BD46BDE8F08FFFF7B9FD28202A
:102AE000FFF754FEFFF7FEFD8120FFF74FFEFFF7D3
:102AF000F9FD4E20FFF74AFEFFF7F4FDFFF7A8FDB2
:102B00002920FFF743FEFFF7EDFD0020FFF770FEE1
:102B10008246FFF7C5FD1AF0800F0AF00F0440F05F
:102B2000AA80002CCED0814B18787B60A042C9D3FC
:102B30004FF6FF717E4D7F4A4FF0000BA140AC89EC
:102B4000B5F8349062EA010205EB4001C7F800A035
:102B5000CA464C8192B22C8C00F10F0105F10C0990
:102B6000AA8625F8114008E00BF1010B5FFA8BF201
:102B7000824265D209F10209AA8E42FA0BF2D3070A
:102B8000F2D56D4B07F10C0833F81B40FFF760FDE1
:102B90002820FFF7FBFDFFF7A5FD200AFFF7F6FD54
:102BA000FFF7A0FDE0B20024FFF7F0FDFFF79AFD6C
:102BB000FFF74EFD2920FFF7E9FDFFF793FDE01E2B
:102BC00004F1010418BF0120FFF712FE042C08F8DD
:102BD000010BF4D1FFF764FD584B45F2105245F25A
:102BE0001031988897F80EC0884218BF904247F27B
:102BF0009671B7F80CE00CBF01220022FC7B8842E2
:102C000008BF42F0010295F8441001F001011AB921
:102C100047F28972904260D1002960D0474B0BF196
:102C2000010BA9F814E01A88A2EB0C02A2EB042213
:102C3000A9F800205FFA8BF27B681878824299D35A
:102C40003E4BD146AC891A88D7F800A0944203D8ED
:102C50005A882C8C944206D91AF00E0F55D0E98967
:102C60006A8CA9812A840AF08F030022802B32709B
:102C700056D001242CE72D4B1A787B60A242FFF43A
:102C80001CAFFFF7E5FC2820FFF780FDFFF72AFDCA
:102C90008120FFF77BFDFFF725FD4E20FFF776FD36
:102CA000FFF720FD0020FFF771FDFFF71BFDFFF789
:102CB000F7FCE4B91E4DB5F8349003E01C4D002438
:102CC000B5F8349019F4004F1CD14FF6FF7309F496
:102CD0006041AB812B84A986F5E600299ED0A9F836
:102CE00000E0FA89A9F814207B6818783CE77B6833
:102CF0001878A042BFF41CAF0AF08F03802B7FF43A
:102D0000E1AEDBE7C9F30E01E5E705EB400200F1B8
:102D10000F030124528935F81330AA812B84D1E79F
:102D2000B5F834900124CDE7E81300240C0000240A
:102D30001000002400C0FFFF681C0408B803002432
:102D40002DE9F04385B0814600AF3E1D07F10E0826
:102D500000224FF400616248082439F007F84D461C
:102D600000224FF480415E4839F000F800224FF411
:102D700080515B4838F0FAFF2B064FF000024FF409
:102D80008041574848BF0122013C38F0EFFF002244
:102D90004FF40061524838F0E9FF0120FDF7EEFEE4
:102DA00001224FF400614E4838F0E0FF0120FDF7AA
:102DB000E5FE14F0FF044FEA4505DDD1062010259D
:102DC000FDF7DCFE00224FF40061454838F0CEFFED
:102DD0000120FDF7D3FE01224FF40061404838F096
:102DE000C5FF00240120FDF7C9FE00224FF4006159
:102DF0003B4838F0BBFF00224FF4006138486400C4
:102E000038F0B4FF0120FDF7B9FE0122A4B24FF45F
:102E10000061334838F0AAFF4FF40041304838F0E1
:102E2000B1FF621C6B1E92B2002818BF144613F04B
:102E3000FF05E0D1240901224FF48051284838F0E1
:102E400095FF26F8024B464582D1B888F98888421A
:102E500003D90346F880084699B23B89984203D9C2
:102E600002463881184693B27A89824203D20446D8
:102E700078811046A2B2BC89844238BF0446994288
:102E800027D8914204D90846FA807981114682B246
:102E9000A1421BD8934204D919463A817B8113463B
:102EA0008AB2A34201D93C811C46A24200D97C814E
:102EB000F88839897A89143708440A4B104480B25B
:102EC000A3FB00304008BD46BDE8F083FC800C4603
:102ED000E0E70846FB803981194683B2D1E700BF9D
:102EE00000040258ABAAAAAA2DE9F047044682B012
:102EF00016461FFA82F900F10D020C380D460B46FA
:102F000002AF92B2CDF8009080B204F1010AFEF750
:102F1000EBFC05F10D03A5F10C0105F101089BB2D5
:102F20002246204689B2CDF80090FEF7DDFC3246FD
:102F30001FFA8AF01FFA88F1FEF77EFA32461FFA6E
:102F400088F104F1FF381FFA88F0FEF775FA691E60
:102F50001FFA8AF032461FFA81FA5146FEF76CFAE0
:102F6000324651461FFA88F0FEF766FA4B460622B3
:102F700029462046BD46BDE8F047FEF767BD00BFC5
:102F8000F0B5044685B08EB20D46234602AF214609
:102F9000212208200096FEF7A7FC142204F10D035D
:102FA000A4F10C01104600969BB289B2FEF79CFC7E
:102FB000611C2A46152089B27960FEF73DFA2A463F
:102FC00079681320FEF738FA611E2A46152089B267
:102FD0007960FEF731FA2A4679681320FEF72CFA59
:102FE00033460622214614200C37BD46BDE8F0408A
:102FF000FEF72CBD2DE9F041DFF8A48000AF98F872
:103000004430DA073DD59020FFF79AFE0446D020E1
:10301000FFF796FE064698F84430DB0728D5902047
:10302000FFF78EFE0546D020FFF78AFE0346A54235
:1030300007D904F1310292B2954207D90020BDE8C8
:10304000F08105F1310292B2A242F7D3B34221D905
:1030500006F1310292B29342F0D801202C441E4472
:1030600004410641A8F80C40A8F82060BDE8F081B2
:10307000D020FFF765FE05469020FFF761FE03466E
:10308000D5E7D020FFF75CFE04469020FFF758FEFE
:103090000646C0E703F1310292B2B242CED3DCE77A
:1030A0001000002498B54FF4005100AF0446344896
:1030B00038F068FE80B9FCB1FFF79CFF314BB3F9E3
:1030C0003420002A16DB4FF4404099891A8C9886E8
:1030D0000020D9835A8698BD2A4BB3F934109A8EB2
:1030E000002948DB00204FF6FF71274A5886998156
:1030F000C3F81E20002098BDFFF77CFF214B00285D
:10310000DDD09989B3F840C01A8CA1EB0C01B3F85B
:1031100042E01E48A2EB0E0209B2B0F800C012B2A3
:1031200007EE901A4FEA5C0C93ED0E5AB8EEE77A70
:1031300007EE902A06EE90CAD3ED0F5AF8EEE77A22
:103140004088B8EEE66AC7EE056A400887EEA57AC1
:1031500007EE900AF8EEE77A76EE866AFCEEE66A0B
:1031600077EE277A16EE902AFCEEE77A9A8117EE30
:10317000902A1A84A3E7C2F30E0200209A8698BD13
:1031800000040258100000240000FFFFB8030024D0
:1031900080B582B00A230C22064900AF0648FB71B5
:1031A000FFF72CF9F81D01220449FFF727F908372A
:1031B000BD4680BD18FCFF004800002424FCFF0031
:1031C0002DE9F04F2DED088B91B04FF6FF704FF4C5
:1031D0007844B94D04AFFEF7D1FA282110206423BA
:1031E000A02200900846CDE90154FEF72BFD1423E0
:1031F0002122082019460094FEF776FB1422212391
:10320000082110460094FEF76FFB15212246084660
:10321000FEF712F9224615211320FEF70DF922467A
:1032200013211520FEF708F9132122460846FEF760
:1032300003F91421234606220846A04CFEF706FC9B
:1032400000239FED99AB9FED9ABB1E461D46A386BA
:10325000636801209847A38E994A1A40B2F5804FBF
:1032600040F02082691C07EB850223F48043A0898B
:10327000CDB2218CA3866B1E10815181042B00F2EC
:10328000BE82DFE813F08A01DD0157012901050044
:103290008C4E3A89BD893B8AAD1AB7F81490B7F8BD
:1032A00016A0A9EB03092DB2FA8907EE905A0FFA7E
:1032B00089F9B7F81280AAEB020AB8EEE76B07EEBD
:1032C000909A7B890FFA8AFAB8EEE77BA8EB03089D
:1032D00086EE078B0FFA88F807EE90AAB8EEE76B38
:1032E00007EE908AB8EEE77B86EE079BB5EEC08BC3
:1032F000F1EE10FA01D5B1EE488BB5EEC09BF1EEC0
:1033000010FA01D5B1EE499BB4EECA8BF1EE10FA7A
:103310000FD4B4EECB8BF1EE10FA0ADCB4EECA9BFC
:10332000F1EE10FA05D4B4EECB9BF1EE10FA40F3B7
:10333000EB8171884FF6FF7230884FF4784B490863
:103340004FF0A00840080125FFF7CEFD14232122ED
:1033500008201946CDF800B0FEF7C6FA1422212342
:1033600008211046CDF800B0FEF7BEFA15215A46E6
:1033700007F11C090846FEF75FF85A46152113208D
:10338000FEF75AF85A4613211520FEF755F8132177
:103390005A460846FEF750F814215B4606220846B6
:1033A000FEF754FB07F108034FF0100A2A4646497E
:1033B00003EB850348467B6033F8043C39F0BAFEE2
:1033C000738841462820CDF800A0CDE9019B3288C2
:1033D000FEF738FC7B682A463C4933F8023C4846F5
:1033E000013539F0A7FE7388414632887820CDF840
:1033F00000A008F11408CDE9019BFEF723FC062D7F
:103400001FFA88F8CED132884FF6FF715346282034
:10341000013A002500914FF4827192B2FEF7DAF979
:103420002B49484653EC182B39F084FE73883288B8
:103430004FF482712820CDF800A0CDE9019B87F8D8
:103440002350FEF7FFFB2349484653EC192B39F074
:1034500071FE73884FF48271CDF808B078203288FD
:10346000CDE900A987F82350FEF7ECFB6368012043
:103470009847A38E124A1A40B2F5804F0CD00A200A
:10348000FDF79EFB636801209847A38E0C4A1A4003
:10349000B2F5804F40F02C8123F48043A189228C27
:1034A000A38639817A8179E0666666666666EE3F54
:1034B000CDCCCCCCCCCCF03FD4E20308100000241F
:1034C00000C0FFFFB803002450E3030858E30308DB
:1034D00060E303086CE30308864E4FF6FF70FEF7C7
:1034E0004DF9718830884FF4784249084008FFF759
:1034F000FBFC0A20FDF764FB636801209847A38E5C
:103500007D4A1A40B2F5804F0CD00A20FDF758FBD7
:10351000636801209847A38E774A1A40B2F5804F1E
:1035200040F0E38023F48043A189228CA386398371
:103530007A83AEE66F4E70884FF6FF71143880B212
:10354000FFF71EFD718830884FF478421439143823
:1035500089B280B2FFF7C8FC0A20FDF731FB63682F
:1035600001209847A38E644A1A40B2F5804F0CD0D0
:103570000A20FDF725FB636801209847A38E5E4A69
:103580001A40B2F5804F40F0AD8023F48043A1890A
:10359000228CA386B982FA829FE7564E4FF6FF75BA
:1035A00014232122082019460095FEF79DF91422C4
:1035B0002123082110460095FEF796F915212A4689
:1035C0000846FDF739FF2A4615211320FDF734FF81
:1035D0002A4613211520FDF72FFF13212A460846FE
:1035E000FDF72AFF14212B4606220846FEF72EFA85
:1035F00030884FF478421421143880B2FFF774FCFD
:103600000A20FDF7DDFA636801209847A38E3A4A45
:103610001A40B2F5804F0BD00A20FDF7D1FA63684B
:1036200001209847A38E344A1A40B2F5804F56D1F4
:1036300023F48043A189228CA386B981FA8100E01A
:103640002C4E30884FF6FF721421143880B2FFF7E9
:103650004BFC70884FF47841143880B2FFF790FC2F
:103660000A20FDF7ADFA636801209847A38E224A2D
:103670001A40B2F5804F0BD00A20FDF7A1FA63681B
:1036800001209847A38E1C4A1A40B2F5804F07D1FB
:1036900023F48043A189228CA38639827A824AE767
:1036A0000226354601360A20FDF78AFA40F2E93350
:1036B000B6B29E427FF4CCAD00230C220F491048D5
:1036C0003B77FEF7EDFD07F11C0001220D49FEF7E7
:1036D000E7FD3437BD46BDEC088BBDE8F08F022610
:1036E0000125DFE702260325DCE702260425D9E7CA
:1036F0000126D7E7B803002400C0FFFF18FCFF0035
:103700004800002424FCFF00284639F027FCB0F5CF
:10371000805FBFF60EAE504639F020FCB0F5805FFA
:10372000BFF607AE484639F019FCB0F5805FBFF62A
:1037300000AE404639F012FCB0F5805FBFF6F9AD3F
:10374000284639F00BFC00283FF4F3AD504639F021
:1037500005FC00283FF4EDAD484639F0FFFB00289A
:103760003FF4E7AD404639F0F9FB00283FF4E1AD06
:10377000B34632884D440AEB0806BBF80230283ABB
:1037800007EE905A07EE106A5200283BB8EEC77A4F
:10379000B96906EE902A5B00F8EEE77A4FF6FF7003
:1037A000B8EEE66A06EE903A2164F8EEE66AC7EEF5
:1037B000865AC7EE267AC4ED0E5AC4ED0F7AFDF78D
:1037C000DDFF10241F201049BBF80230BBF8002099
:1037D0000094CDE901106E212320FEF733FA4FF457
:1037E0007A70FDF7EDF9FFF7D3FC4FF6FF70343731
:1037F000BD46BDEC088BBDE8F04FFDF7BFBF0A200A
:103800000126FDF7DDF923E578E3030890B5644967
:1038100085B047F2967345F2103C8A8845F2105005
:103820008979624518BF9A425E4C01F0010100AFF0
:103830000CBF0123002384F84410824208BF43F0E8
:1038400001031BB947F289739A4204D1FFF73EF88E
:10385000002800F0988040F6017037F059FC40F6DF
:10386000017037F055FC40F6017037F051FC40F61E
:10387000017037F04DFC40F6017037F049FC4FF411
:10388000005301220021484838F02EF94FF400433C
:1038900001220021444838F027F901224FF4006347
:1038A0004148114638F020F94FF40063012200210D
:1038B0003D4838F0CDF901224FF480533A48114683
:1038C00038F012F94FF4805301220021364838F0C5
:1038D000BFF901224FF480433348114638F004F910
:1038E0004FF48043012200212F4838F0B1F994F8B9
:1038F0004430DB073ED4D020FFF722FA78609020D6
:10390000FFF71EFA7B68A38120840024FEF726FCC3
:103910000C2226492648FC73FEF7C2FC01222549E9
:1039200007F10F00FEF7BCFCFB7B0A2B33D04FF6F0
:10393000FF70FDF723FFFFF743FC0A230C221B490E
:103940001B48FB73FEF75AFD07F10F0001221949CE
:10395000FEF754FD0C2215491548FC73FEF7A0FC38
:1039600007F10F0001221349FEF79AFC01201437DA
:10397000BD4690BD9020FFF7E3F97860D020FFF7B7
:10398000DFF97B68BFE794F844300B4A63F07F03AC
:10399000626084F8443000201437BD4690BD00BFFB
:1039A000B8030024100000240004025818FCFF0093
:1039B0004800002424FCFF00892A000880B400F19C
:1039C000080300AF4FF0FF3100228160C0E90023FF
:1039D000C0E90333BD4680BC704700BF80B40023FC
:1039E00000AF0361BD4680BC704700BF80B4436830
:1039F00000AF4B609A688A60516099600861036803
:103A000001330360BD4680BC704700BF90B5D1F85C
:103A100000E000AFBEF1FF3F0FD000F108031A46EF
:103A20005B681C687445FAD94B6099608A60516084
:103A3000086103680133036090BD02695368F3E7CE
:103A400080B4D0E90112036900AF8A604168516017
:103A50005A68824207D00022026118680138186053
:103A6000BD4680BC704782685A60F4E72DE9F04794
:103A700084B0054600AF01F0ABFE95F8454064B256
:103A8000002C1DDDAB6C7BB1996BDA6BFD60914254
:103A900031D34FF0500372B683F31188BFF36F8FA9
:103AA000BFF34F8F62B6FEE76B6A4BB105F124009E
:103AB00001F006FA002839D1013CE4B2002CE1D132
:103AC000FF2385F8453001F0ADFE01F081FE95F849
:103AD000444064B2002C03DC2BE0013CE4B244B36C
:103AE0002B6905F1100023B301F0EAF90028F4D0A6
:103AF00001F0E8FAF1E7996B8A42DDD993F84510B5
:103B00009A6B49B2501C1A6C88468146D2B91A6821
:103B1000002A45D0013198633BD15A6A002ACBD0A4
:103B200003F1240001F0CCF90028C5D001F0CAFA55
:103B3000C2E7FF23103785F84430BD46BDE8F047A3
:103B400001F070BE07F10C0158687B6039F0EFFBA3
:103B50007B685A68196CC3F838900A4499688A429D
:103B60005A6010D2B8F1FF3FD7D07B6000F0B6FFAB
:103B700040457B68A0D9B8F17F0F25D008F101023C
:103B800083F8452098E71A68B8F1FF3F5A60C4D01F
:103B9000EBE77B6000F0A2FF80457B688CD2EAE710
:103BA00098683A607B6001F0D9FAB8F1FF3F82462D
:103BB000D7E900239A60C3F8389010D15A6AFAB94D
:103BC000BAF1000FB2D177E74FF0500372B683F32A
:103BD0001188BFF36F8FBFF34F8F62B6FEE77B6034
:103BE00000F07CFF40457B68EAD9B8F17F0FEBD04D
:103BF00008F1010283F84520BAF1000F96D15BE786
:103C000003F1240001F05CF900288FD1D8E700BF50
:103C100038B1A1FB00C323B901FB00FC1CF1550F17
:103C20000AD94FF0500372B683F31188BFF36F8F38
:103C3000BFF34F8F62B6FEE790B583B0144600AF76
:103C4000C7E900100CF1540001F090FF024660B388
:103C5000D7E9001369BB10607A60C2E90F3101F047
:103C6000B7FD7A684FF0FF0C1168D2E90F30516050
:103C700000FB03F3181A0B4401449360002302F184
:103C80001000D160936382F844C082F845C0FFF70A
:103C900095FE7A6802F12400FFF790FE01F0C2FD64
:103CA0007A68002382F85040936410460C37BD4672
:103CB00090BD5430CFE700BFF0B585B000AF7A605B
:103CC000002800F08E800446002948D00E4601F0FE
:103CD0002FFA002851D001F07BFDA36B002B40F0A0
:103CE0008B807A68002A34D007F108003B6001F02D
:103CF00087F93D6801F096FD00F0C0FE01F068FD17
:103D000094F84430FF2B01D184F8445094F84530A6
:103D1000FF2B01D184F8455001F084FD391D07F1D6
:103D2000080001F07DF9002835D101F051FDA36BA9
:103D3000002B3DD001F076FD2046FFF797FE00F006
:103D4000A9FE01F045FDA36B002B55D17B68002B2C
:103D5000D0D101F067FD00201437BD46F0BD036CE3
:103D6000002BB3D04FF0500372B683F31188BFF32A
:103D70006F8FBFF34F8F62B6FEE77B68002BAAD030
:103D80004FF0500372B683F31188BFF36F8FBFF308
:103D90004F8F62B6FEE72046FFF768FE00F07AFE1E
:103DA00001F016FDA36B002BD3D001F03BFDC8E75B
:103DB00001F038FD796804F1240000F079FF204615
:103DC000FFF754FE00F066FE0028BAD14FF0E02362
:103DD0004FF08052C3F8042DBFF34F8FBFF36F8FA6
:103DE000AFE74FF0500372B683F31188BFF36F8FC4
:103DF000BFF34F8F62B6FEE7226C62B1D4E90201D5
:103E000011448142E16001D32168E16030463B60AA
:103E100039F08DFA3B68013B2269A3631AB901F0BE
:103E200001FD012098E704F1100001F049F8002895
:103E3000F5D04FF0E0234FF08052C3F8042DBFF3CC
:103E40004F8FBFF36F8FEAE7002839D0002942D0A7
:103E50004B4B5A6890427CD090B41A6800AF002A4D
:103E60003AD0DA68904200F086809A68002A4ED0F4
:103E70005A69904200F081801A69002A4DD0DA69AF
:103E800090426CD09A69002A4DD05A6A90426CD008
:103E90001A6A002A4CD0DA6A904264D09A6A002AE0
:103EA00050D05A6B904264D01A6B002A45D0DA6B1E
:103EB00090425CD09B6B002B49D0BD4690BC7047B4
:103EC0004FF0500372B683F31188BFF36F8FBFF3C7
:103ED0004F8F62B6FEE77047DA6890424BD05A695E
:103EE00090424AD01A46DC69A04238D05C6AA042AF
:103EF0003BD0DC6AA04236D05C6BA04239D0DC6B90
:103F0000A04234D0C2E90010BD4690BC70475A6947
:103F1000904232D003F10802E5E7DA6990421ED000
:103F200003F11002E2E75A6A90421ED0154AE0E718
:103F3000DA6A904217D0144ADEE7DA6B904216D064
:103F4000124ADFE75A6B904213D0114AD7E7114A61
:103F5000D8E7002203EBC202C2E900107047032237
:103F600003EBC202CEE70522FAE70422F8E70722B4
:103F7000F6E70622F4E70122F2E70222F0E700BFAB
:103F8000F01300240814002410140024201400242A
:103F90001814002428140024F8B5044600AF0D4678
:103FA000164601F015FC94F84430FF2B02D1002393
:103FB00084F8443094F84530FF2B02D1002384F874
:103FC000453001F02FFCA36B2BB12046BD46BDE868
:103FD000F840FFF74BBD04F124003246294600F0BB
:103FE000D9FE2046BD46BDE8F840FFF73FBD00BF03
:103FF0002DE9F84300AF044601F0EAFB3D4A3E4E8E
:104000001368013313603368002B44D03B4DE16AE1
:104010002B68002B37D0DFF80881394801EB81028B
:10402000036808EB82020133636452680360231D56
:10403000A2609068E060436093600122E36A3148C7
:104040008A4003EB830308EB8301616101680A4343
:10405000026058F82320013248F8232001F0E2FBE7
:104060002B6873B13268E36AD26A9A4209D24FF080
:10407000E0234FF08052C3F8042DBFF34F8FBFF3FE
:104080006F8FBDE8F8833368DFF89480DB6A8B427A
:10409000C3D83460C1E734601368012B04D0E16AEF
:1040A000DFF87C80154DB8E7DFF87480454608F5E9
:1040B000207928461435FFF781FCA945F9D1DFF8AE
:1040C0006490114D4846FFF779FC2846FFF776FCCF
:1040D0000E48FFF773FC0E48FFF770FC0D48FFF722
:1040E0006DFC0D4BE16AC3F800900C4B1D60034D55
:1040F00093E700BF601400245417002454140024D4
:104100004414002458140024AC14002490140024F7
:104110007C14002464140024A8140024A414002493
:10412000D4140024C01400242DE9F047244D00AF1E
:10413000244A0E462D68244B244CA8461268054696
:104140001B68206891469A460430FFF779FC40B915
:10415000236801221E49DB6A9A400B6823EA0203A6
:104160000B606B1C14D19EB11A4B206859682568EE
:104170002268816004328868E860426020681A68BA
:1041800024680430013288601A606361BDE8F087FA
:10419000226818EB05052168556006D350460431A6
:1041A000BD46BDE8F047FFF731BC04314846FFF794
:1041B0002DFC094A1168A942E8D91560BDE8F087CD
:1041C0005C140024A8140024A41400245417002410
:1041D0005814002464140024401400242DE9F04FE6
:1041E000694B83B0186800AF0130186000287AD09E
:1041F000664B1A689042C0F08580DFF89CE1DEF8DB
:1042000000201268002A00F0BA804FF0000C604ACB
:10421000DFF894914FF0010B5E4CE246C7E90030A5
:1042200047E0C3F814A0D8F800000138C8F800002F
:10423000D3F82880B8F1000F10D0D3E90760B06040
:10424000DE694660D8F80400A84200F08680C3F812
:1042500028A0D8F800000138C8F80000D86AD4F8BF
:10426000008000EB80050BFA00F002EB850540EAC8
:10427000080020606868D9F8008098608568DD6073
:1042800069608160D86ADEF8005000EB800002EBC4
:104290008001596152F82010013142F82010D96A8A
:1042A000D8F82C30994288BF4CF0010C2B68002BB9
:1042B00060D0DEF800307E68DB68DB685868191D66
:1042C00003F11805864252D3D3F81480D3E9026073
:1042D000B0609E684660D8F804008842A1D1D868D2
:1042E000C8F804009DE72C4B1A68126822B34FF0FF
:1042F000500372B683F31188BFF36F8FBFF34F8FF4
:1043000062B6FEE74FF0000C214ADFF89C90D9F826
:1043100000300C372149DB6A096803EB830352F84C
:104320002300012898BF002914BF0120002040EA83
:104330000C00BD46BDE8F08F194A1C681949156884
:104340001D6014600A6801320A601A68126842B976
:104350000E4B4FF0FF321A604BE7186AC8F80400A2
:1043600075E71A68094BD26812681A6041E73B6822
:104370001860CCE73B684FF0FF311960C7E79446FF
:10438000DFF82490024AF6E75C140024401400246D
:10439000D414002458140024A81400244C1400241D
:1043A000A414002448140024541700242DE9F04FCD
:1043B000684C83B0236800AF013B2360206800286D
:1043C00040F0AA80644B1B68002B00F0A580DFF84A
:1043D000A0C1DCF80030002B00F0B9805F4B012554
:1043E000DFF890E15E4ADFF884B17B60DCF80C30E6
:1043F000DB68196A03F11809DE69D3F82880B16017
:10440000DE694E60D8F80410494500F09780986244
:10441000D8F800100139C8F80010D96803F1040970
:104420009E68D3F81480B1609E68DEF800A04E60EC
:10443000D8F8041049457DD05861D8F800100139EA
:10444000C8F80010D96A01EB810805FA01F102EB06
:10445000880841EA0A01CEF80010D8F804109960E3
:10446000D1F80880C3F80C80C8F80490C1F808900F
:10447000D96A01EB810802EB8801596152F82810D2
:10448000013142F82810DBF80080D96AD8F82C30C6
:10449000994249D97B681D60DCF80030002BA5D11A
:1044A000304B1A681268002A4CD01A682E4BD2681A
:1044B00012681A60DFF8C080D8F80050ADB101264C
:1044C00006E0FFF78BFE08B17B681E60013D0AD055
:1044D0002368002BF5D0D8F80030013D03F101032B
:1044E000C8F80030F4D1C8F800507B681B689BB155
:1044F0004FF0E0234FF080521C490968C3F8042DA7
:10450000BFF34F8FBFF36F8F012401F08BF90C378E
:104510002046BD46BDE8F08F002401F083F90C373A
:104520002046BD46BDE8F08FDCF80030002B7FF45C
:104530005DAFB5E7D968C8F804107DE7196AC8F817
:10454000041064E7084B4FF0FF321A60B2E7034BE8
:104550007B60AFE738140024601400244C1400245E
:10456000D4140024A8140024401400245417002458
:104570009014002458140024501400242DE9F84FFE
:10458000414D00AFDFF81481404EDFF81491DFF8A1
:1045900014A1DFF814B115E001F01AF9D8F80C30C5
:1045A000DC68201DFFF74CFA3368013B33602B6851
:1045B000013B2B6001F036F9206B01F0C5FB204672
:1045C00001F0C2FB2B68002BE6D1D9F80030012B9B
:1045D00009D94FF0E0224FF08053C2F8043DBFF3F9
:1045E0004F8FBFF36F8FDAF80030012BDBF800300C
:1045F000E8D8DB6A002BE5D1D9F80030012BE1D8EF
:10460000234924480B6802689B1A012BDAD9224AF5
:104610001368013313600A6803689A4229D3DAF8F1
:104620000030012BDBF8003012D901F0D1F81A4B21
:104630001B6853B94FF0500372B683F31188BFF370
:104640006F8FBFF34F8F62B6FEE7FFF7AFFEB9E79C
:10465000DB6A002BE9D1D9F80030012BE5D80C4BEF
:1046600018680C4B1B68C01A0128DED901F00EF93E
:10467000DBE74FF0500372B683F31188BFF36F8FFF
:10468000BFF34F8F62B6FEE7781400246014002455
:10469000401400245C140024381400247C140024EA
:1046A000D414002458140024541700242DE9F04792
:1046B000960000AF81460D4630469A4601F056FA04
:1046C000002800F087808046602001F04FFA044601
:1046D00000287CD06022002138F0ABFD40463246F5
:1046E000A521C4F8308038F0A4FD236B002D3ED006
:1046F0002A7884F83420002A36D06A7884F8352065
:1047000092B3AA7884F8362072B3EA7884F8372016
:1047100052B32A7984F8382032B36A7984F8392080
:1047200012B3AA7984F83A20F2B1EA7984F83B20EE
:10473000D2B12A7A84F83C20B2B16A7A84F83D205A
:1047400092B1AA7A84F83E2072B1EA7A84F83F20C6
:1047500052B12A7B84F8402032B16A7B84F8412030
:1047600012B1AA7B84F84220002284F843203A6ADE
:104770001F2A0AD94FF0500372B683F31188BFF392
:104780006F8FBFF34F8F62B6FEE7043EE262E264D2
:10479000201D334423F00705FFF720F904F118002A
:1047A000FFF71CF93B6A52464946C3F120032846ED
:1047B0002461A361646200F0F7FF7B6A206003B1AB
:1047C0001C602046FFF714FC0120BDE8F08740463E
:1047D00001F0BAFA4FF0FF30BDE8F0872DE9F04163
:1047E000044600AF3A4D00F0F3FF002C54D004F122
:1047F00004084046FFF724F938B9E36A354A03EB69
:10480000830152F82120002A30D0A36A1BB104F1A1
:104810001800FFF715F9304A296813682F4EA14296
:1048200003F101031360336829D02D4A2D49136821
:10483000013B13600B681B689BB10A682A4BD26866
:1048400012681A6000F0EEFF206B01F07DFA20463E
:1048500001F07AFA336813B12B68A3421ED0BDE889
:10486000F081214B4FF0FF321A60EBE71F48012126
:10487000026801FA03F322EA03030360C5E7002B91
:10488000D3D041461A48FFF7B1F81A4A13680133EA
:10489000136000F0C7FFDDE72C68A8E7164B1B6824
:1048A00053B14FF0500372B683F31188BFF36F8F8B
:1048B000BFF34F8F62B6FEE74FF0E0234FF0805218
:1048C000C3F8042DBFF34F8FBFF36F8FC7E700BF4F
:1048D00054170024D4140024441400245414002435
:1048E00060140024A8140024401400245814002448
:1048F0007C140024781400243814002480B500AF00
:1049000050B94FF0E0234FF08052C3F8042DBFF3AD
:104910004F8FBFF36F8F80BD144B1A6801321A603E
:104920001A68012A0AD04FF0500372B683F3118837
:10493000BFF36F8FBFF34F8F62B6FEE70021FFF723
:10494000F3FB00F045FF094B1B6853B94FF05003D0
:1049500072B683F31188BFF36F8FBFF34F8F62B6C8
:10496000FEE7FFF723FD0028CBD080BD38140024DC
:104970002DE9F8434FF4027000AF01F0F7F800287A
:1049800048D00646602001F0F1F8044600283ED0E9
:1049900000256022DFF8DC902946DFF8DC8038F063
:1049A00048FC4FF40272A5213046266338F041FCE2
:1049B000236B201D84F8385003F5017384F84350AD
:1049C000E562E56423F00706C4F83490FFF706F8C3
:1049D00004F11800FFF702F820232A461F49A361BB
:1049E000304624610125646200F0DEFE0346204665
:1049F0002360C8F80040FFF7FBFA00F0F3FDA8427F
:104A000013D0013006D0164B1B68BDE8F883304642
:104A100001F09AF94FF0500372B683F31188BFF397
:104A20006F8FBFF34F8F62B6FEE74FF0500372B641
:104A300083F31188BFF36F8FBFF34F8F62B64FF0D0
:104A4000FF34084A08480023084904601560084AF2
:104A50000B60136000F0CEFFD5E700BF7D45000876
:104A60007C1C040854140024401400245C1400240A
:104A7000B403002449444C453C140024044A80B447
:104A8000136800AF01331360BD4680BC704700BFA0
:104A90003814002480B500AF00F09AFE094B1B6863
:104AA00053B94FF0500372B683F31188BFF36F8F81
:104AB000BFF34F8F62B6FEE7BD46BDE88040FFF70B
:104AC00075BC00BF38140024034B80B400AF1868D5
:104AD000BD4680BC704700BF5C140024034B80B40B
:104AE00000AF1868BD4680BC704700BF601400244A
:104AF00090B5214C83B0214A2368116800AF03446C
:104B000099420AD24FF0500372B683F31188BFF373
:104B10006F8FBFF34F8F62B6FEE712689A4205D0DF
:104B200023680C3703442360BD4690BD144B1B68BB
:104B300053B94FF0500372B683F31188BFF36F8FF0
:104B4000BFF34F8F62B6FEE750B94FF0500372B615
:104B500083F31188BFF36F8FBFF34F8F62B6FEE709
:104B6000786000F035FE074A13680133136000F0E7
:104B700059FE78680138D3E75C14002440140024FF
:104B80003814002450140024084B80B41B6800AF74
:104B90001BB9BD4680BCFFF721BB054A0020136846
:104BA00001331360BD4680BC704700BF3814002439
:104BB00050140024364B1B681BB1364B01221A607F
:104BC000704790B5DFF8CCC083B0334A3349CCF896
:104BD000003000AF136832480B60D0F800C00B689B
:104BE000304A634509D90C68D2F800E0DEF8543049
:104BF000A3EB0C032344CEF854300968136801601A
:104C00001B6B1968B1F1A53F03D15968B1F1A53FFC
:104C100030D01168106834317A60FBF73DFD7A6856
:104C2000214B1B68B3FA83F3DBB22048C3F11F03A7
:104C300003EB8303990000EB8303445854B94FF00E
:104C4000500372B683F31188BFF36F8FBFF34F8F9A
:104C500062B6FEE75C680831D4F804C001448C45B4
:104C6000C3F804C00FD0DCF80C300C3713601368A5
:104C7000BD4690BD9968B1F1A53FCAD1DB68B3F1DB
:104C8000A53FC6D1CCE7D3F80CC0C3F804C0EAE70F
:104C9000381400244C140024B403002430140024DD
:104CA000341400245417002458140024D41400246D
:104CB00000284CD02DE9F04182B02F4C00AF796034
:104CC00021681831FEF7A2FE2C482D4903682D4AB1
:104CD0001D460B681E461368206898460430FEF790
:104CE000AFFE7B6840B9226801212748D26A914013
:104CF000026822EA010202605A1C17D1234B206885
:104D00005968D4F800C02268816004328868CCF801
:104D10000C00426020681A68246804300132886000
:104D20001A6063610837BD46BDE8F0815B192268EF
:104D3000536017D2216830467B600431FEF766FE6F
:104D4000134A7B6811688B42ECD21360EAE74FF09C
:104D5000500372B683F31188BFF36F8FBFF34F8F89
:104D600062B6FEE72168404608370431BD46BDE81B
:104D7000F041FEF74BBE00BF541700245C14002422
:104D8000A8140024A414002458140024641400243B
:104D900040140024002869D0424B2DE9F04115460B
:104DA0001C6842680E46196800AFE2611C6804F195
:104DB000180E1C6804F1180C94680C62C4F804E026
:104DC000C2F808C01A68906202680132026025B316
:104DD00035483649364A0068096812681868043050
:104DE000FEF72EFE2F4B002852D0324A1C68506826
:104DF000D3F800C01968A06004318468CCF80C4076
:104E000061601C681168D3F800C00434013184600B
:104E10001160CCF81420BDE8F0812448224C244ACB
:104E200024680168126818680D4690460430FEF741
:104E300007FE1C4B58B91A680120DFF880C0D26AFF
:104E40009040DCF8002022EA0002CCF800201A682A
:104E500034191968546014D228460431FEF7D6FD7F
:104E6000154B1A689442D6D21C60D4E74FF0500319
:104E700072B683F31188BFF36F8FBFF34F8F62B6A3
:104E8000FEE740460431BD46BDE8F041FEF7BEBD39
:104E90001A6801210948D46A0268A14022EA010285
:104EA0000260A2E7541700245C140024A814002414
:104EB000A414002464140024401400245814002472
:104EC000C368DB68002B76D003F1180090B5196A2F
:104ED00000AFDC699A6AA160DC694C60516881426C
:104EE00064D00021DFF80CC199621168DCF800C0C1
:104EF00001391160BCF1000F1AD0394A51681468A9
:104F0000D96104F1010CD1F808E0C2F800C0C3F87F
:104F100020E0CEF8040088609A623249DA6A0B68B1
:104F2000DB6A9A4245D901232F4A1846136090BD87
:104F3000D3E902015A6903F1040C81609868486062
:104F40005168614549D000212848DFF8ACE059613B
:104F50001168DEF80040013911600121DA6A9140E0
:104F600002EB820200EB820221435268CEF800106D
:104F70009A609168D960C1F804C0C2F808C0DA6AC2
:104F8000DFF878C002EB8202DCF800E000EB82017F
:104F9000596150F82210013140F82210DEF800204B
:104FA000A2B9134A4FF0FF311160B6E7196A516098
:104FB00097E7002090BD4FF0500372B683F311883D
:104FC000BFF36F8FBFF34F8F62B6FEE7DCF80010C0
:104FD000074AC968096811609FE7D9685160B2E75C
:104FE00090140024541700244C140024D4140024DA
:104FF000401400243814002458140024A814002459
:10500000054A064B80B400AF12681B68C0E9002354
:10501000BD4680BC704700BF481400245C140024C7
:1050200060B301B3F0B583B00C460E4600AF7860B4
:1050300000F0CEFB2368214A591CD2F800C035D0BD
:1050400078681F4905680C68D0F804E0A54220D0B4
:10505000E6451ED800230124336000F0E3FB204620
:105060000C37BD46F0BD4FF0500372B683F3118884
:10507000BFF36F8FBFF34F8F62B6FEE74FF0500361
:1050800072B683F31188BFF36F8FBFF34F8F62B691
:10509000FEE7ACEB0E04A342DCD9A3EB0C03D1F882
:1050A00000C0126873443360C0E900C2002400F0FD
:1050B000B9FB0C372046BD46F0BD00BF5C14002490
:1050C0004814002480B4034B00AF01221A60BD468F
:1050D00080BC70474C140024104B80B4186800AF9B
:1050E00028B90F4B1B6833B1BD4680BC7047002008
:1050F000BD4680BC70470B4A12681AB11846BD46BF
:1051000080BC7047084B094A1B681068013B9842F5
:105110000CBF02200120BD4680BC704790140024C3
:105120004C1400245014002460140024641400243F
:10513000084B80B41B6800AF43B1074B1868B0FA46
:1051400080F040094000BD4680BC70470120BD464C
:1051500080BC70475414002438140024B8B12E4B7E
:105160001B6883420AD04FF0500372B683F3118854
:10517000BFF36F8FBFF34F8F62B6FEE71B6D43B176
:10518000C16A013BC26C0365914200D063B100204B
:1051900070474FF0500372B683F31188BFF36F8FDF
:1051A000BFF34F8F62B6FEE7B0B582B0051D00AF0A
:1051B00078600430FEF744FC7B68184930B9012060
:1051C000DC6A0A68A04022EA00020A60DA6C012068
:1051D0000C680837DA62C2F1200C02EB820E00FA8A
:1051E00002F2C3F818C0DFF838C022430A600CEBA3
:1051F0008E0252689A609168D9604D609560DA6A53
:1052000002EB82020CEB820159615CF8223003440C
:105210004CF82230BD46B0BD541700245814002469
:10522000D41400242DE9F04F87B0B24DDFF8CCA2A2
:10523000DFF8CC9200AFB04C2B681E68002E00F057
:10524000A380DB681E68FFF719FCFFF73DFCDAF866
:10525000003083469842C0F0A0808642CAF8000021
:1052600040F224810022A6EB0B012068FEF794FE99
:10527000FFF710FC48B94FF0E0224FF08053C2F81E
:10528000043DBFF34F8FBFF36F8F0023C7E9033394
:105290007B61002207F10C012068FEF70DFD00285C
:1052A000CAD0FB68002BF4DBD7F814B0DBF814305D
:1052B0001BB10BF10400FEF7C3FBFFF705FCDAF8A6
:1052C000003006469842C0F0A380FB68CAF8006030
:1052D000013B082BDDD8DFE803F00505462B4D0523
:1052E00005462B009BF828103A6941F00100DBF8D5
:1052F0001830CBF810B08BF82800D0182CBF4FF026
:10530000010C4FF0000CB042CBF8040000F2E68034
:10531000B21A934200F22781480700F12B8121F055
:1053200001018BF82810DBF8203058469847B0E789
:105330009BF828203B6942F00102CBF818308BF82B
:105340002820002B00F0438133440BF10401CBF8FB
:1053500010B0B342CBF8043094BFD9F800002868ED
:10536000FEF754FB95E79BF8283023F001038BF8F8
:1053700028308EE79BF828309A0740F1F08023F020
:1053800001038BF8283084E7FFF778FBFFF79CFBDD
:10539000DAF80030834683427FD92B681A686AB3F3
:1053A000C7F804B009E023F0010386F82830336A17
:1053B000304698472B681A68F2B1DB68DE68D3F88C
:1053C000008006F1040B5846FEF73AFB96F82830A9
:1053D0005807E8D502E0336A30469847B36936612A
:1053E00008EB030218EB03087260F4D35946D9F8AE
:1053F0000000FEF70BFBDAE7D7F804B0D9F800207D
:10540000CAF800B0C9F800302A60FFF743FB3CE758
:105410002B681A68002A3AD0C7E9000B0AE022F08C
:10542000010288F82820D8F82020404690472B68B1
:105430001A6852B3DA68D2F80C80166808F1040BC7
:105440005846FEF7FDFA98F828205307E7D5D8F814
:105450001820C8F810809019B618C8F804000ED2A9
:10546000334646469846336A30469847B3693661B4
:1054700008EB030218EB03087260F4D3B0465946F8
:10548000D9F80000FEF7C2FACDE7D7E9006BD9F8EA
:105490000020C9F800302A6017E7D9F80030CAF8B0
:1054A00000B01A68B2FA82F25209DCE6FFF7F2FAAB
:1054B0002B68DB68DB6803F104087B604046FEF77D
:1054C000BFFA7B6893F8282051071BD422F0010211
:1054D00083F828201A6A18469047D6E6B24203D9C4
:1054E000BCF1000F3FF418AF0BF104012868FEF780
:1054F0008DFACEE6681700246017002458170024A0
:10550000641700241A46C7F804803346D846164666
:1055100004E061451BD8336A98475B46B169A8EB44
:10552000030C3046366113EB010B2CBF0122002225
:10553000D845C6F804B0ECD2984501D2002AEAD08A
:10554000796828683E60FEF761FA3B68C2E77968CF
:10555000D9F800003E60FEF759FA3B68BAE75846B2
:1055600000F0F2FB95E60BF10401D9F80000FEF71C
:105570004DFA8EE631463A695E461A448B4605E09E
:105580008B421DD8336A9847B369424613EB020831
:10559000ABEB0201304636612CBF4FF0010C4FF0EF
:1055A000000CC345C6F80480EAD2934502D2BCF190
:1055B000000FE7D0311D2868B346FEF727FAB2E6A0
:1055C000311DD9F80000B346FEF720FAABE64FF0E4
:1055D000500372B683F31188BFF36F8FBFF34F8F01
:1055E00062B6FEE7B0B584B01E4C02AF00F0F0F832
:1055F0002268F2B100F016F9236863B1DFF884C0C5
:105600001F2400234FF4827217491848CDE9004C3B
:10561000FFF74CF850B94FF0500372B683F311887E
:10562000BFF36F8FBFF34F8F62B6FEE70837BD46FB
:10563000B0BD0F487A60FEF7C1F90E48FEF7BEF91B
:105640000D480B490D4B0B4D01600C217A6805206C
:105650001D60FEF7DDFA20600028CBD00849FEF778
:10566000F3FBC7E76017002498E3030825520008FE
:10567000801700246C170024681700246417002486
:1056800090E303085C170024000000000000000005
:10569000074B19680868B0E8F04F80F30988BFF33A
:1056A0006F8F4FF0000080F311887047AFF30080D8
:1056B0005417002408480068006880F308884FF0F9
:1056C000000080F3148862B661B6BFF34F8FBFF35A
:1056D0006F8F00DF00BF000008ED00E00000000059
:1056E000EFF30980BFF36F8F154B1A681EF0100F90
:1056F00008BF20ED108A20E9F04F106009B44FF088
:10570000500072B680F31188BFF34F8FBFF36F8FD5
:1057100062B6FFF74FFA4FF0000080F3118809BC22
:1057200019680868B0E8F04F1EF0100F08BFB0EC21
:10573000108A80F30988BFF36F8F7047AFF3008042
:1057400054170024DFF80C00016841F47001016077
:105750007047000088ED00E080B4124B83B0002257
:105760001B6800AF01337A600AD04FF0500372B665
:1057700083F31188BFF36F8FBFF34F8F62B6FEE7DD
:105780004FF0500372B683F31188BFF36F8FBFF3EE
:105790004F8F62B67B68002BFCD00C37BD4680BCB7
:1057A000704700BF5800002480B521F001014FF080
:1057B000807EDFF818C06FF0020300AF40F80CCC19
:1057C00040E9021E40E90932443880BD59570008BB
:1057D00080B400AF4FF0500372B683F31188BFF36B
:1057E0006F8FBFF34F8F62B60D4A13680133012BE1
:1057F000136002D0BD4680BC70474FF0E023D3F861
:10580000043DDBB2002BF5D04FF0500372B683F3AA
:105810001188BFF36F8FBFF34F8F62B6FEE700BFF3
:10582000580000240B4A80B4136800AF53B94FF0FE
:10583000500372B683F31188BFF36F8FBFF34F8F9E
:1058400062B6FEE7013B13600BB983F31188BD46D6
:1058500080BC70475800002480B500AF4FF0500363
:1058600072B683F31188BFF36F8FBFF34F8F62B6A9
:10587000FFF78AF928B14FF0E0234FF08052C3F8C8
:10588000042D002383F3118880BD00BF434BB0B5C6
:10589000054600AF1C6872B6BFF34F8FBFF36F8F22
:1058A000FFF71AFC002866D04FF0E021AC424FF021
:1058B0000603DFF8F0C0224628BF2A460B61DCF859
:1058C00000E0501E8B69002B08BF73460EFB0033AF
:1058D000D1F804ED1EF0806F06D04FF0007EC1F8C5
:1058E00004EDDCF800105B1A2D494FF0000E09683A
:1058F000994238BF5B1A4FF0E0214B61C1F818E0C4
:10590000D1F810E04EF0010EC1F810E022B1BFF363
:105910004F8F30BFBFF36F8F62B6BFF34F8FBFF3B0
:105920006F8F72B6BFF34F8FBFF36F8F4FF0E02EC4
:105930000621CEF81010DEF8101011F4803FDCF8CC
:1059400000101AD1DEF8183001FB02F2D01A9B1AAF
:10595000B0FBF1F000FB01111944CEF814104FF028
:10596000E0230722002199611A61DCF80020013A46
:105970005A61FFF7BDF862B6B0BDDEF81820084CDA
:105980000A44D4F800E0013AD31A9E4501D28B4272
:1059900000D94B1E4FF0E0225361E0E7A01700242E
:1059A0009C170024A417002490B4DFF844C01B20E7
:1059B0000B4C4FF0E0230B4900AFC4F800C00022AD
:1059C00008604FF05E0C084C07210848C4F800C07E
:1059D0001A619A6158611961BD4690BC704700BF59
:1059E000A4170024A01700249C170024BF27090037
:1059F000C02709004FF0E023564AD3F8083DD96A82
:105A000091420AD04FF0500372B683F31188BFF36E
:105A10006F8FBFF34F8F62B6FEE74F4A9B6B934287
:105A20000AD04FF0500372B683F31188BFF36F8F23
:105A3000BFF34F8F62B6FEE790B585B0474B0022AB
:105A4000FF2000AF4649BA601A78BA7118701B7807
:105A5000FB71FB7903F050030B70002B5BD0FB79DB
:105A6000DB4313F0500F10D04FF0500372B683F3A6
:105A70001188BFF36F8FBFF34F8F62B6FEE7BB682D
:105A80000133BB60FB795B00FB71FB791B06F6D42D
:105A9000BB68082B5BD0BB68C3F107031B0203F490
:105AA000E063B8794FF0E022DFF8BCE000242B4936
:105AB000CEF800300870D2F8203D43F47F03C2F8DE
:105AC000203DD2F8203D43F07F43C2F8203DC2F88C
:105AD0001C4DFFF769FF23480460FFF733FE4FF0CA
