:020000040800F2
:1000000000000220454D0008E54D0008ED4D0008B8
:10001000F54D0008FD4D0008054E000800000000E9
:10002000000000000000000000000000A1420008E5
:10003000DD4D000800000000F14400084D050008F7
:10004000DD4D0008DD4D0008DD4D0008DD4D0008E8
:10005000DD4D0008DD4D0008DD4D0008DD4D0008D8
:10006000DD4D0008DD4D0008DD4D0008DD4D0008C8
:10007000DD4D0008DD4D0008DD4D0008DD4D0008B8
:10008000DD4D0008DD4D0008DD4D0008DD4D0008A8
:10009000DD4D0008DD4D0008DD4D0008DD4D000898
:1000A000DD4D0008DD4D0008DD4D0008DD4D000888
:1000B000750C0008DD4D0008DD4D0008DD4D000821
:1000C000DD4D0008DD4D0008DD4D0008DD4D000868
:1000D000DD4D0008310F0008DD4D0008DD4D000842
:1000E000DD4D0008DD4D0008DD4D0008DD4D000848
:1000F000DD4D0008DD4D0008DD4D0008DD4D000838
:10010000DD4D0008DD4D0008DD4D0008DD4D000827
:10011000DD4D0008DD4D0008DD4D0008890C0008AC
:10012000DD4D0008DD4D0008450F0008DD4D0008DD
:10013000DD4D0008DD4D0008DD4D0008DD4D0008F7
:10014000DD4D0008DD4D0008DD4D0008DD4D0008E7
:10015000DD4D0008DD4D0008590F0008DD4D000899
:10016000DD4D0008DD4D0008DD4D0008DD4D0008C7
:10017000DD4D0008DD4D0008DD4D000800000000E9
:10018000DD4D0008DD4D00080348044B834202D0DA
:10019000034B03B118477047A0020020A0020020C3
:1001A000000000000548064B1B1AD90F01EBA30104
:1001B000491002D0034B03B118477047A00200203A
:1001C000A00200200000000010B5064C237843B9BF
:1001D000FFF7DAFF044B13B10448AFF300800123AB
:1001E000237010BDA0020020000000008C950008C4
:1001F00008B5054B1BB105490548AFF30080BDE8C4
:100200000840FFF7CFBF00BF00000000A40200209D
:100210008C950008A3F5803A704700BF174B002B60
:1002200008BF134B9D46FFF7F5FF00218B460F4695
:100230001348144A121A08F0F1FA0E4B002B00D0A2
:1002400098470D4B002B00D0984700200021040058
:100250000D000D48002802D00C48AFF3008008F0D4
:1002600031FB2000290000F0F5F808F0BBF800BFD2
:10027000000008002D4D0008394D00080000022044
:10028000A0020020B03501200000000000000000A6
:1002900080B582B000AF78607B68022B0DD07B68A0
:1002A000022B0CDC7B68002B03D07B68012B02D077
:1002B00005E000230AE0002308E0002306E008F040
:1002C000FBFA034658221A604FF0FF3318460837EE
:1002D000BD4680BD80B584B000AFF860B9607A607B
:1002E000FB68022B0ED0FB68022B0EDCFB68002B98
:1002F00003D0FB68012B02D007E000230CE04FF095
:10030000FF3309E04FF0FF3306E008F0D5FA03466B
:1003100058221A604FF0FF3318461037BD4680BD93
:1003200080B483B000AF78607B68022B0DD07B680F
:10033000022B0CDC7B68002B03D07B68012B02D0E6
:1003400005E0012304E0012302E0012300E0002393
:1003500018460C37BD4680BC704780B584B000AFEE
:10036000F860B9607A60FB68022B0FD0FB68022B43
:100370000FDCFB68002B03D0FB68012B03D008E0E7
:100380004FF0FF330CE04FF0FF3309E04FF0FF3345
:1003900006E008F091FA034658221A604FF0FF3346
:1003A00018461037BD4680BD80B582B000AF78607A
:1003B00039607B68022B15D07B68022B18DC7B68C8
:1003C000002B03D07B68012B06D011E03B684FF473
:1003D00000525A60002312E03B684FF400525A600A
:1003E00000230CE03B684FF400525A60002306E003
:1003F00008F062FA034658221A604FF0FF3318469D
:100400000837BD4680BD80B483B000AF786000BFC0
:10041000FDE7000080B485B000AF786039600B4B19
:100420001B68002B02D1094B094A1A60074B1B6855
:10043000FB60064B1A683B681344044A1360FB6870
:1004400018461437BD4680BC704700BFBC02002070
:10045000B035012080B500AF07F0A6FD00F00CF824
:1004600000F0C2F900F0F4FB00F05AFC00F080FC50
:1004700000F08AF8FCE7000080B594B000AF07F107
:10048000200330220021184608F0C8F907F10C03B8
:1004900000221A605A609A60DA601A610023BB6019
:1004A000284B1B6C274A43F080531364254B1B6C6D
:1004B00003F08053BB60BB6800237B60224B1B684A
:1004C000214A43F4804313601F4B1B6803F48043AD
:1004D0007B607B6801233B624FF480337B620223A5
:1004E000BB634FF48003FB6304233B64A8237B645A
:1004F0000223BB640723FB6407F12003184605F0C1
:1005000065FB0346002B01D000F02DF80F23FB60A4
:1005100002233B6100237B614FF4A053BB614FF486
:100520008053FB6107F10C030521184605F0C6FD59
:100530000346002B01D000F016F800BF5037BD462F
:1005400080BD00BF003802400070004080B500AFA1
:1005500007F082FD03F092F80346012B01D003F06F
:10056000FBFF00BF80BD80B400AF72B600BF00BF0C
:10057000FDE780B582B000AF786039604FF47A70E3
:1005800002F052F9FAE7000080B582B002AF1A4BD0
:100590000093012300224FF4FA71184803F05CFB2A
:1005A0000346174A1360164B1B68002B02D01548F0
:1005B00008F056F8144B0093022301224FF47A718D
:1005C000124803F049FB0346114A1360104B1B68A5
:1005D000002B02D00F4808F043F80F4B0193012382
:1005E0000093002382220D490D4801F02EFF02F0F6
:1005F0009BF900BFBD4680BD89070008F89300083D
:10060000D002002000940008B90700081C940008DC
:10061000D402002024940008C00200204094000866
:100620002506000880B584B002AF786003F004FFAF
:10063000154B01930423009300234FF48062134968
:10064000134801F002FF134B01930323009300238F
:100650004FF400721049114801F0F7FE104B01935E
:100660000223009300234FF400720E490E4801F05C
:10067000ECFE0E4B1B68184602F032F803F00CFF3C
:1006800000BF0837BD4680BDC40200204C9400085E
:10069000B1060008C80200205494000809070008A9
:1006A000CC0200205C9400081D070008C002002056
:1006B00090B59FB002AF7860124800F0CBFDF866AD
:1006C000FB6E5C68012300934E2308224FF4E13156
:1006D000F86EA04700BFFB6EDB6807F108016422DB
:1006E000F86E98470346002BF5D1FB6E9C6807F126
:1006F000080101230122F86EA0470A2002F094F8B5
:10070000E8E700BF6494000880B582B000AF78606D
:100710004FF4FA7002F088F8FAE7000080B584B070
:1007200000AF78600023FB7322E0FB7B08211846B2
:1007300000F09CF80346002B07D0FB7B002B04D174
:10074000FB7B19460E4807F023FFFB7B1021184660
:1007500000F08CF80346002B07D0FB7B002B04D164
:10076000FB7B1946074807F013FFFB7B0133FB7344
:10077000FB7B002BD9D04FF4FA7002F055F8D1E78B
:10078000709400088494000880B582B000AF78604F
:10079000074B1B8801339AB2054B1A80044B1B8808
:1007A0001946044807F0F4FE00BF0837BD4680BD77
:1007B000D80200209894000880B582B000AF78601D
:1007C000074B1B8801339AB2054B1A80044B1B88D8
:1007D0001946044807F0DCFE00BF0837BD4680BD5F
:1007E000DA020020C094000880B586B000AF002374
:1007F0003B600F4B1B6B0E4A43F0010313630C4B22
:100800001B6B03F001033B603B680023BB600123CB
:10081000FB604FF400437B6002233B613B1D1946A4
:10082000044805F021F800BF1837BD4680BD00BF61
:10083000003802400000024080B582B000AF03469D
:10084000FB71FB79002B09D14FF40041064805F0FC
:10085000A5F90346002B01D1012300E0002318462F
:100860000837BD4680BD00BF0000024080B483B0A1
:1008700000AF03460A46FB711346BB71FB79104A71
:10088000D25CBB791340DBB2002B12D0BB79012BB9
:100890000DD0FB790A4AD35C5AB297F90630DB4394
:1008A0005BB213405AB2FB79D1B2054AD15401234D
:1008B00000E0002318460C37BD4680BC704700BFDF
:1008C000DC02002090B583B000AF0023FB7111E083
:1008D000FB79974A32F81330002B08D0FB79944A01
:1008E00032F81320013A91B2914A22F81310FB79A1
:1008F0000133FB71FB79002BEAD08E4B1B7801335F
:10090000DAB28C4B1A708B4B1B78132B40F20C8194
:10091000884B00221A700023BB7101E1BA79BB79C0
:100920008549895C854AD154BC79BB791846FFF763
:1009300083FF03461A46804B1A55BB797E4AD35C27
:10094000012B09D1BB797E4AD25CBB7942F001020E
:10095000D1B27B4AD15408E0BB79794AD25CBB79E9
:1009600022F00102D1B2764AD154BB79724AD35CEB
:10097000012B0DD1BB79714AD35C002B08D1BB7917
:100980006F4AD25CBB7942F00202D1B26C4AD154B8
:10099000BB79694AD35C002B0DD1BB79674AD35C24
:1009A000012B08D1BB79664AD25CBB7942F00402C4
:1009B000D1B2634AD154BB79624AD35C042B7BD059
:1009C000042B00F39C80032B6CD0032B00F3978047
:1009D000022B40D0022B00F39280002B02D0012B7F
:1009E00011D08CE0BB79544AD35C012B40F08C8051
:1009F000BB794F4A4FF47A7122F81310BB79514AF0
:100A00000121D15480E0BB794B4AD35C002B09D142
:100A1000BB79474AC82122F81310BB79494A022101
:100A2000D15473E0BB79424A32F81330002B6DD1B8
:100A3000BB793F4A642122F81310BB79404AD25C4B
:100A4000BB7942F02002D1B23D4AD154BB793D4A34
:100A50000421D1545AE0BB79374AD35C012B0DD124
:100A6000BB79374AD25CBB7942F01002D1B2344A2A
:100A7000D154BB79334A0321D15449E0BB792C4A84
:100A800032F81330002B43D1BB792D4AD25CBB79AD
:100A900042F00802D1B22A4AD154BB79294A002136
:100AA000D15435E0BB79244AD35C002B32D1BB79D9
:100AB000244A0021D1542DE0BB791F4AD35C002B7E
:100AC00004D1BB791F4A0021D15425E0BB79184AD3
:100AD00032F81330002B1FD1BB79154A642122F85C
:100AE0001310BB79164AD25CBB7942F04002D1B2F6
:100AF000134AD154BB79134A0421D1540CE0BB7979
:100B0000104A0021D15408E000BF06E000BF04E015
:100B100000BF02E000BF00E000BFBB790133BB7142
:100B2000BB79002B3FF4FAAE00BF0C37BD4690BD39
:100B3000E0020020E2020020E4020020E80200209F
:100B4000DC020020EC02002080B582B000AF002360
:100B50007B60194B1B6C184A43F001031364164B5E
:100B60001B6C03F001037B607B68144B4FF08042E9
:100B70001A60124BA7225A60104B00229A600F4B4A
:100B80000922DA600D4B00221A610C4B00229A6197
:100B90000A4805F0C3FC0346002B01D0FFF7E3FC35
:100BA000002205211C2004F01EFA1C2004F037FA54
:100BB00000BF0837BD4680BD00380240F00200206B
:100BC00080B582B000AF00237B60194B1B6C184AC4
:100BD00043F020031364164B1B6C03F020037B606F
:100BE0007B68144B144A1A60124B40F28F625A60B1
:100BF000104B00229A600F4B6322DA600D4B0022EB
:100C00001A610C4B00229A610A4805F087FC0346E2
:100C1000002B01D0FFF7A7FC00220521372004F0AC
:100C2000E2F9372004F0FBF900BF0837BD4680BD6C
:100C300000380240380300200014004080B483B024
:100C400000AF786000BF0C37BD4680BC7047000025
:100C500080B500AFFFF778FFFFF7B2FF034805F05C
:100C6000ADFC034805F0AAFC00BF80BD380300209E
:100C7000F002002080B500AF024805F00DFD00BF76
:100C800080BD00BFF002002080B500AF024805F033
:100C900003FD00BF80BD00BF3803002080B582B0D7
:100CA00000AF78607B681B68094A934201D1FFF767
:100CB00009FE7B681B68B3F1804F04D1054B1B68AC
:100CC0000133044A136000BF0837BD4680BD00BF32
:100CD000001400408003002080B584B000AFF860AD
:100CE000B9607A60FB68012B02D0FB68022B09D146
:100CF0007B689AB24FF0FF33B968084805F0DAFE16
:100D00007B6806E007F0D8FD034609221A604FF021
:100D1000FF3318461037BD4680BD00BF8403002056
:100D200080B582B000AF00237B60104B1B6B0F4A75
:100D300043F4800313630D4B1B6B03F480037B6050
:100D40007B68002206213A2004F04DF93A2004F095
:100D500066F900220621462004F045F9462004F0F9
:100D60005EF900BF0837BD4680BD00BF00380240B5
:100D700080B500AF114B124A1A60104B4FF4E132AC
:100D80005A600E4B00229A600C4B0022DA600B4B2B
:100D900000221A61094B0C225A61084B00229A6109
:100DA000064B0022DA61054805F034FE0346002BAD
:100DB00001D0FFF7D8FB00BF80BD00BF8403002037
:100DC0000010014080B58AB000AF786007F11403CD
:100DD00000221A605A609A60DA601A617B681B68A8
:100DE0004C4A934240F0918000233B614A4B5B6C3C
:100DF000494A43F010035364474B5B6C03F0100304
:100E00003B613B690023FB60434B1B6B424A43F051
:100E100001031363404B1B6B03F00103FB60FB6892
:100E20004FF4C0637B610223BB610023FB6103239A
:100E30003B6207237B6207F114031946374804F02D
:100E400013FD374B374A1A60354B4FF000625A603A
:100E5000334B00229A60324B0022DA60304B4FF461
:100E600080621A612E4B00225A612D4B00229A613A
:100E70002B4B0022DA612A4B00221A62284B0022F7
:100E80005A62274804F0E6F80346002B01D0FFF72A
:100E90006AFB7B68224ADA63214A7B689363224BB0
:100EA000224A1A60204B4FF000625A601E4B4022CB
:100EB0009A601D4B0022DA601B4B4FF480621A616E
:100EC000194B00225A61184B00229A61164B0022DE
:100ED000DA61154B00221A62134B00225A62124843
:100EE00004F0B8F80346002B01D0FFF73CFB7B6809
:100EF0000D4A9A630C4A7B689363002206212520E1
:100F000004F071F8252004F08AF800BF2837BD46A8
:100F100080BD00BF001001400038024000000240C8
:100F2000CC030020406402402C040020B86402403E
:100F300080B500AF024805F017FF00BF80BD00BFBD
:100F40008403002080B500AF024804F01BFA00BF04
:100F500080BD00BFCC03002080B500AF024804F084
:100F600011FA00BF80BD00BF2C04002080B584B002
:100F700000AF7860094B1B69FB607B68084A9342AD
:100F800008D1FB681868FB6810334FF400721946EB
:100F900005F08CFE00BF1037BD4680BD000000206C
:100FA0008403002080B584B000AF78600023BB606C
:100FB0007B680E4A934215D10D4B1B69FB60FB68A1
:100FC0005B6807F108021146184600F03EFDBB6859
:100FD000002B07D0074B4FF080521A60BFF34F8FA2
:100FE000BFF36F8F00BF1037BD4680BD8403002064
:100FF0000000002004ED00E080B586B000AF78600E
:101000007B689B8D1A467B68DB8D9BB2D31A3B6154
:101010000023BB607B681A4A93422CD1194B1B6991
:10102000FB6000237B610DE0FB68D8687B691033AF
:10103000FA68D11807F10802002300F039FC7B6937
:1010400001337B617A693B699A42EDDBFB68186882
:10105000FB6803F110017B689B8D1A4605F026FEA4
:10106000BB68002B07D0084B4FF080521A60BFF3CB
:101070004F8FBFF36F8F00BF1837BD4680BD00BFD5
:10108000840300200000002004ED00E080B586B05D
:1010900000AF78600B467B800023BB607B883B61A0
:1010A0007B68234A93423ED1224B1B69FB60FB685D
:1010B000D3F810327B610DE0FB68D8687B69103390
:1010C000FA68D11807F10802002300F0F1FB7B69F0
:1010D00001337B617A693B699A42EDDBFB687A698F
:1010E000C3F810227B685B6B022B03D07B685B6BC1
:1010F000002B0DD1FB681868FB6803F110017B68B9
:101100009B8D1A4605F0D2FDFB680022C3F8102221
:10111000BB68002B07D0084B4FF080521A60BFF31A
:101120004F8FBFF36F8F00BF1837BD4680BD00BF24
:10113000840300200000002004ED00E080B586B0AC
:1011400000AFF860B9607A60FB70FFF711FEFB68D2
:101150001B697B61012000F074FA02467B699A608A
:1011600003220021012000F0DDF902467B695A606C
:10117000002201214FF4007000F0D4F902467B698F
:10118000DA607B6918687B6910334FF40072194686
:1011900005F08CFD002318461837BD4680BD80B58C
:1011A00086B000AFF860B9607A603B60FB681B698D
:1011B0007B617B699B683A681146184600F0E0FD48
:1011C0000346012B02D04FF0FF3323E07B691B68FD
:1011D0007A6892B2B968184605F0F8FC7B695B68DA
:1011E0003A681146184600F0CBFD0346012B08D1A2
:1011F0007B69986800230022002100F03BFA00235D
:1012000008E07B69986800230022002100F032FA90
:101210004FF0FF3318461837BD4680BD80B586B005
:1012200000AFF860B9607A60FB681B697B617B691D
:10123000DB687A68B968184600F0C0FC0346012BE9
:1012400001D1002301E04FF0FF3318461837BD46A7
:1012500080BD000080B584B000AF78600023FB73D0
:1012600013E0FB7B0D4A52F823301B68194678685F
:1012700007F04FFB0346002B04D1FB7B074A52F8D3
:10128000233006E0FB7B0133FB73FB7B002BE8D0B4
:10129000002318461037BD4680BD00BF280200203D
:1012A00080B483B000AF78607B6803F108027B688C
:1012B0005A607B684FF0FF329A607B6803F1080246
:1012C0007B68DA607B6803F108027B681A617B68DF
:1012D00000221A6000BF0C37BD4680BC704780B446
:1012E00083B000AF78607B6800221A6100BF0C37C2
:1012F000BD4680BC704780B485B000AF786039606F
:101300007B685B68FB603B68FA685A60FB689A68B8
:101310003B689A60FB689B683A685A60FB683A6869
:101320009A603B687A681A617B681B685A1C7B6804
:101330001A6000BF1437BD4680BC704780B485B0CA
:1013400000AF786039603B681B68BB60BB68B3F175
:10135000FF3F03D17B681B69FB600CE07B680833AF
:10136000FB6002E0FB685B68FB60FB685B681B6816
:10137000BA689A42F6D2FB685A683B685A603B6882
:101380005B683A689A603B68FA689A60FB683A68FA
:101390005A603B687A681A617B681B685A1C7B68D4
:1013A0001A6000BF1437BD4680BC704780B485B05A
:1013B00000AF78607B681B69FB607B685B687A685C
:1013C00092689A607B689B687A6852685A60FB688A
:1013D0005B687A689A4203D17B689A68FB685A60B6
:1013E0007B6800221A61FB681B685A1EFB681A6042
:1013F000FB681B6818461437BD4680BC7047000068
:1014000080B586B000AF7860396001237B617B686E
:101410003B613B69002B0BD14FF0500383F31188E4
:10142000BFF36F8FBFF34F8FFB6000BF00BFFDE7BF
:101430003B69002B5DD03B69DB6B002B59D03B69CE
:101440001A6C3B69DB6B0021A3FB0223002B00D04D
:1014500001210B46002B4CD102F0EEFF3B691A68CC
:101460003B69DB6B3969096C01FB03F31A443B6987
:101470009A603B6900229A633B691A683B695A602B
:101480003B691A683B69DB6B013B3969096C01FBFD
:1014900003F31A443B69DA603B69FF2283F8442076
:1014A0003B69FF2283F845203B68002B14D13B6940
:1014B0001B69002B1AD03B691033184601F06CFEF3
:1014C0000346002B12D0164B4FF080521A60BFF328
:1014D0004F8FBFF36F8F09E03B6910331846FFF75A
:1014E000DFFE3B6924331846FFF7DAFE02F0D4FF33
:1014F00001E000237B617B69002B0BD14FF050038F
:1015000083F31188BFF36F8FBFF34F8FBB6000BFB2
:1015100000BFFDE77B6918461837BD4680BD00BF98
:1015200004ED00E080B58AB002AFF860B960134600
:10153000FB710023FB61FB68002B2ED00021BA68F1
:10154000FB68A3FB0223002B00D001210B46002BDC
:1015500023D1FB68BA6802FB03F313F1550F1CD8C3
:10156000FB68BA6802FB03F3BB61BB6954331846DE
:1015700003F05AF9F861FB69002B1DD0FB697B6110
:101580007B6954337B61FA79FB69009313467A696E
:10159000B968F86800F015F80EE0FB69002B0BD174
:1015A0004FF0500383F31188BFF36F8FBFF34F8F5A
:1015B0003B6100BF00BFFDE7FB6918462037BD4611
:1015C00080BD80B584B000AFF860B9607A60FB7010
:1015D000BB68002B03D1BB69BA691A6002E0BB6922
:1015E0007A681A60BB69FA68DA63BB69BA681A6418
:1015F0000121B869FFF704FFBB69FA7883F850202E
:10160000BB6900229A6400BF1037BD4680BD80B51B
:1016100082B000AF78607B68002B0ED07B68002220
:101620009A607B6800221A607B680022DA600023DF
:1016300000220021786800F01DF800BF0837BD4681
:1016400080BD80B586B000AF0346FB7101237B618E
:1016500000233B61FB791A4639697869FFF762FF1D
:10166000F860F868FFF7D3FFFB6818461837BD46E7
:1016700080BD000080B58EB000AFF860B9607A60C0
:101680003B6000237B63FB683B633B6B002B0BD110
:101690004FF0500383F31188BFF36F8FBFF34F8F69
:1016A0007B6200BF00BFFDE7BB68002B03D13B6B33
:1016B0001B6C002B01D1012300E00023002B0BD178
:1016C0004FF0500383F31188BFF36F8FBFF34F8F39
:1016D0003B6200BF00BFFDE73B68022B03D13B6BC1
:1016E000DB6B012B01D1012300E00023002B0BD188
:1016F0004FF0500383F31188BFF36F8FBFF34F8F09
:10170000FB6100BF00BFFDE701F0B8FF0346002BFF
:1017100002D17B68002B01D1012300E00023002BC4
:101720000BD14FF0500383F31188BFF36F8FBFF3DA
:101730004F8FBB6100BF00BFFDE702F07DFE3B6B3A
:101740009A6B3B6BDB6B9A4202D33B68022B45D111
:101750003B6B9B6BFB623A68B968386B00F027FC07
:10176000B8623B6B9B6C002B14D03B68022B02D100
:10177000FB6A002B2ED1386B00F0B8FD0346002B1E
:1017800028D04A4B4FF080521A60BFF34F8FBFF3FF
:101790006F8F1FE03B6B5B6A002B10D03B6B2433D9
:1017A000184601F0F9FC0346002B13D03F4B4FF0D5
:1017B00080521A60BFF34F8FBFF36F8F0AE0BB6A8E
:1017C000002B07D0394B4FF080521A60BFF34F8F78
:1017D000BFF36F8F02F060FE012363E07B68002B94
:1017E00003D102F059FE00235CE07B6B002B06D195
:1017F00007F11003184601F0A9FD01237B6302F0F5
:101800004BFE01F0DBF802F017FE3B6B93F844301F
:101810005BB2B3F1FF3F03D13B6B002283F844205E
:101820003B6B93F845305BB2B3F1FF3F03D13B6BA9
:10183000002283F8452002F02FFE3A1D07F1100325
:101840001146184601F098FD0346002B24D1386B51
:1018500000F0B2FC0346002B18D03B6B10337A68C3
:101860001146184601F02CFC386B00F030FC01F0FA
:10187000EFF80346002B7FF460AF0C4B4FF0805223
:101880001A60BFF34F8FBFF36F8F56E7386B00F0CE
:101890001EFC01F0DDF850E7386B00F018FC01F099
:1018A000D7F8002318463837BD4680BD04ED00E068
:1018B00080B592B000AFF860B9607A603B60FB68B9
:1018C0003B643B6C002B0BD14FF0500383F311882A
:1018D000BFF36F8FBFF34F8FFB6200BF00BFFDE709
:1018E000BB68002B03D13B6C1B6C002B01D1012387
:1018F00000E00023002B0BD14FF0500383F311883D
:10190000BFF36F8FBFF34F8FBB6200BF00BFFDE718
:101910003B68022B03D13B6CDB6B012B01D1012314
:1019200000E00023002B0BD14FF0500383F311880C
:10193000BFF36F8FBFF34F8F7B6200BF00BFFDE728
:1019400002F032FFEFF311824FF0500383F311885E
:10195000BFF36F8FBFF34F8F3A62FB613B6AFB634C
:101960003B6C9A6B3B6CDB6B9A4202D33B68022B5D
:101970005ED13B6C93F8453087F83B303B6C9B6BFA
:101980007B633A68B968386C00F011FB97F93B301B
:10199000B3F1FF3F29D13B6C9B6C002B12D03B680D
:1019A000022B02D17B6B002B3FD1386C00F09EFCE8
:1019B0000346002B39D07B68002B36D07B68012290
:1019C0001A6032E03B6C5B6A002B2ED03B6C2433F8
:1019D000184601F0E1FB0346002B26D07B68002B64
:1019E00023D07B6801221A601FE001F047F93863B9
:1019F00097F93B303A6B9A4217D997F93B307F2BD6
:101A00000BD14FF0500383F31188BFF36F8FBFF3F7
:101A10004F8FBB6100BF00BFFDE797F83B3001333C
:101A2000DBB25AB23B6C83F8452001237B6401E0B2
:101A300000237B64FB6B7B617B6983F3118800BFB0
:101A40007B6C18464837BD4680BD80B590B000AF6E
:101A5000786039607B68BB63BB6B002B0BD14FF0A8
:101A6000500383F31188BFF36F8FBFF34F8F7B62F7
:101A700000BF00BFFDE7BB6B1B6C002B0BD04FF012
:101A8000500383F31188BFF36F8FBFF34F8F3B6217
:101A900000BF00BFFDE7BB6B1B68002B03D1BB6B16
:101AA0009B68002B01D1012300E00023002B0BD108
:101AB0004FF0500383F31188BFF36F8FBFF34F8F45
:101AC000FB6100BF00BFFDE702F06EFEEFF3118285
:101AD0004FF0500383F31188BFF36F8FBFF34F8F25
:101AE000BA617B61BB697B63BB6B9B6B3B63BB6B0D
:101AF000DB6B3A6B9A4254D2BB6B93F8453087F854
:101B00002F303B6B5A1CBB6B9A6397F92F30B3F1A4
:101B1000FF3F23D1BB6B9B6C002B0CD0B86B00F04C
:101B2000E5FB0346002B39D03B68002B36D03B68E1
:101B300001221A6032E0BB6B5B6A002B2ED0BB6BBC
:101B40002433184601F028FB0346002B26D03B68BF
:101B5000002B23D03B6801221A601FE001F08EF8B1
:101B6000B86297F92F30BA6A9A4217D997F92F308D
:101B70007F2B0BD14FF0500383F31188BFF36F8F8E
:101B8000BFF34F8F3B6100BF00BFFDE797F82F30D9
:101B90000133DBB25AB2BB6B83F845200123FB63F0
:101BA00001E00023FB637B6BFB60FB6883F3118820
:101BB00000BFFB6B18464037BD4680BD80B58CB07A
:101BC00000AFF860B9607A600023FB62FB68BB621B
:101BD000BB6A002B0BD14FF0500383F31188BFF386
:101BE0006F8FBFF34F8F3B6200BF00BFFDE7BB6845
:101BF000002B03D1BB6A1B6C002B01D1012300E039
:101C00000023002B0BD14FF0500383F31188BFF357
:101C10006F8FBFF34F8FFB6100BF00BFFDE701F087
:101C20002DFD0346002B02D17B68002B01D101233F
:101C300000E00023002B0BD14FF0500383F31188F9
:101C4000BFF36F8FBFF34F8FBB6100BF00BFFDE7D6
:101C500002F0F2FBBB6A9B6B7B627B6A002B1FD09E
:101C6000B968B86A00F00DFA7B6A5A1EBB6A9A63BB
:101C7000BB6A1B69002B0FD0BB6A1033184601F0FA
:101C80008BFA0346002B07D03C4B4FF080521A6072
:101C9000BFF34F8FBFF36F8F02F0FEFB012369E0AC
:101CA0007B68002B03D102F0F7FB002362E0FB6AA4
:101CB000002B06D107F11003184601F047FB012362
:101CC000FB6202F0E9FB00F079FE02F0B5FBBB6AB3
:101CD00093F844305BB2B3F1FF3F03D1BB6A0022FB
:101CE00083F84420BB6A93F845305BB2B3F1FF3F01
:101CF00003D1BB6A002283F8452002F0CDFB3A1DD8
:101D000007F110031146184601F036FB0346002B7D
:101D100023D1B86A00F03AFA0346002B17D0BB6A09
:101D200024337A681146184601F0CAF9B86A00F0FF
:101D3000CEF900F08DFE0346002B89D10F4B4FF0FA
:101D400080521A60BFF34F8FBFF36F8F80E7B86A7E
:101D500000F0BDF900F07CFE7AE7B86A00F0B7F950
:101D600000F076FEB86A00F011FA0346002B3FF44B
:101D70006FAF002318463037BD4680BD04ED00E04C
:101D800080B58CB000AF786039600023FB627B685F
:101D90007B620023BB627B6A002B0BD14FF05003A8
:101DA00083F31188BFF36F8FBFF34F8FBB6100BF09
:101DB00000BFFDE77B6A1B6C002B0BD04FF050037C
:101DC00083F31188BFF36F8FBFF34F8F7B6100BF29
:101DD00000BFFDE701F052FC0346002B02D13B6837
:101DE000002B01D1012300E00023002B0BD14FF089
:101DF000500383F31188BFF36F8FBFF34F8F3B61A5
:101E000000BF00BFFDE702F017FB7B6A9B6B3B62E4
:101E10003B6A002B24D03B6A5A1E7B6A9A637B6A1A
:101E20001B68002B04D101F04BFE02467B6A9A60CE
:101E30007B6A1B69002B0FD07B6A1033184601F0B8
:101E4000ABF90346002B07D04C4B4FF080521A6081
:101E5000BFF34F8FBFF36F8F02F01EFB012389E0AA
:101E60003B68002B03D102F017FB002382E0FB6AE2
:101E7000002B06D107F10803184601F067FA012389
:101E8000FB6202F009FB00F099FD02F0D5FA7B6AD3
:101E900093F844305BB2B3F1FF3F03D17B6A002279
:101EA00083F844207B6A93F845305BB2B3F1FF3F7F
:101EB00003D17B6A002283F8452002F0EDFA3A460E
:101EC00007F108031146184601F056FA0346002BA5
:101ED00032D1786A00F05AF90346002B26D07B6A8B
:101EE0001B68002B09D102F0A7FA7B6A9B68184691
:101EF00001F0E2FBB86202F0CFFA7B6A24333A6861
:101F00001146184601F0DCF8786A00F0E0F800F0BD
:101F10009FFD0346002B7FF476AF184B4FF08052A5
:101F20001A60BFF34F8FBFF36F8F6CE7786A00F0D2
:101F3000CEF800F08DFD66E7786A00F0C8F800F092
:101F400087FD786A00F022F90346002B3FF45BAF6F
:101F5000BB6A002B0DD002F06FFA786A00F010F81F
:101F6000F8617B6A9B68F969184601F0EDFC02F0A4
:101F700093FA002318463037BD4680BD04ED00E0DB
:101F800080B485B000AF78607B685B6A002B06D0B8
:101F90007B681B6B1B68C3F12003FB6001E000231F
:101FA000FB60FB6818461437BD4680BC704780B59F
:101FB00086B000AFF860B9607A6000237B61FB688F
:101FC0009B6B3B61FB681B6C002B0DD1FB681B6896
:101FD000002B4DD1FB689B68184601F00DFC786121
:101FE000FB6800229A6043E07B68002B19D1FB68F4
:101FF0005868FB681B6C1A46B96806F0E9FCFB6878
:102000005A68FB681B6C1A44FB685A60FB685A6884
:10201000FB689B689A422BD3FB681A68FB685A607E
:1020200026E0FB68D868FB681B6C1A46B96806F0A6
:10203000CFFCFB68DA68FB681B6C5B421A44FB68E8
:10204000DA60FB68DA68FB681B689A4207D2FB68B3
:102050009A68FB681B6C5B421A44FB68DA607B6819
:10206000022B05D13B69002B02D03B69013B3B6150
:102070003B695A1CFB689A637B6918461837BD4652
:1020800080BD80B582B000AF786039607B681B6C22
:10209000002B18D07B68DA687B681B6C1A447B685D
:1020A000DA607B68DA687B689B689A4203D37B6856
:1020B0001A687B68DA607B68D9687B681B6C1A4693
:1020C000386806F085FC00BF0837BD4680BD80B586
:1020D00084B000AF786002F0AFF97B6893F84530C8
:1020E000FB731EE07B689B6C002B08D0786800F0C7
:1020F000FDF80346002B10D001F0A6F90DE07B6837
:102100005B6A002B12D07B682433184601F044F838
:102110000346002B01D001F097F9FB7B013BDBB2BA
:10212000FB7397F90F30002BDCDC00E000BF7B680D
:10213000FF2283F8452002F0AFF902F07DF97B68B9
:1021400093F84430BB7311E07B681B69002B12D0FD
:102150007B681033184601F01FF80346002B01D0AE
:1021600001F072F9BB7B013BDBB2BB7397F90E3018
:10217000002BE9DC00E000BF7B68FF2283F84420ED
:1021800002F08AF900BF1037BD4680BD80B584B02B
:1021900000AF786002F050F97B689B6B002B02D196
:1021A0000123FB6001E00023FB6002F075F9FB688E
:1021B00018461037BD4680BD80B584B000AF78604A
:1021C00002F03AF97B689A6B7B68DB6B9A4202D12A
:1021D0000123FB6001E00023FB6002F05DF9FB6876
:1021E00018461037BD4680BD80B487B000AF786018
:1021F000396000233B617B68002B0BD14FF050030B
:1022000083F31188BFF36F8FBFF34F8FFB6000BF65
:1022100000BFFDE73B68002B24D000237B611EE05C
:10222000174A7B69DB0013445B687A689A4205D1E0
:102230007B69DB00124A13443B6113E03B69002BCE
:102240000AD10F4A7B6952F83330002B04D17B69E5
:10225000DB000B4A13443B617B6901337B617B6983
:10226000072BDDD93B69002B05D03B693A681A6022
:102270003B697A685A6000BF1C37BD4680BC704716
:102280008C04002080B586B000AFF860B9607A6039
:10229000FB687B6102F0D0F87B6993F844305BB255
:1022A000B3F1FF3F03D17B69002283F844207B69AF
:1022B00093F845305BB2B3F1FF3F03D17B69002255
:1022C00083F8452002F0E8F87B699B6B002B06D170
:1022D0007B6924337A68B968184600F017FF78697B
:1022E000FFF7F5FE00BF1837BD4680BD80B58AB048
:1022F00000AF78607B689B6C3B6200237B623B6A2B
:10230000002B0BD14FF0500383F31188BFF36F8F75
:10231000BFF34F8F7B6100BF00BFFDE73B6A9A6B45
:102320003B6ADB6B9A420BD34FF0500383F3118867
:10233000BFF36F8FBFF34F8F3B6100BF00BFFDE75F
:102340003B6A9A6B3B6ADB6B9A423DD23B6A93F8DD
:102350004530FB773B1D00221946386AFFF727FE00
:10236000786297F91F30B3F1FF3F0ED13B6A5B6A89
:10237000002B29D03B6A2433184600F00DFF03469A
:10238000002B21D001237B621EE000F077FCB861B6
:1023900097F91F30BA699A4216D997F91F307F2BE7
:1023A0000BD14FF0500383F31188BFF36F8FBFF34E
:1023B0004F8FFB6000BF00BFFDE7FB7F0133DBB247
:1023C0005AB23B6A83F845207B6A18462837BD46D7
:1023D00080BD80B58AB004AFF860B9607A603B60B8
:1023E0007B689B00184602F01FFA38613B69002B9E
:1023F00013D0602002F018FA78617B69002B08D0B6
:1024000060220021786906F009FA7B693A691A634B
:1024100005E0386902F03AFB01E000237B617B694B
:10242000002B0DD0002303937B6902937B6A0193F9
:102430003B6A00933B687A68B968F86800F028F84E
:102440007B6918461837BD4680BD80B588B002AF9D
:10245000F860B9607A603B607B6A01933B6A0093E5
:102460003B687A68B968F868FFF7B3FF38613B6981
:10247000002B05D0386900F09BF801237B6102E056
:102480004FF0FF337B617B6918461837BD4680BD2E
:1024900080B588B000AFF860B9607A603B603B6B94
:1024A000186B7B689B001A46A52106F0B7F93B6BB9
:1024B0001A6B7B6803F18043013B9B001344BB61B3
:1024C000BB6923F00703BB61BB6903F00703002B63
:1024D0000BD04FF0500383F31188BFF36F8FBFF31E
:1024E0004F8F7B6100BF00BFFDE7BB68002B1ED094
:1024F0000023FB6112E0BA68FB69134419783A6B58
:10250000FB69134434330A461A70BA68FB691344F2
:102510001B78002B06D0FB690133FB61FB690F2B95
:10252000E9D900E000BF3B6B002283F84320BB6A7F
:102530001F2B0BD94FF0500383F31188BFF36F8F1C
:10254000BFF34F8F3B6100BF00BFFDE7BB6A1F2B8E
:1025500001D91F23BB623B6BBA6ADA623B6BBA6A72
:10256000DA643B6B04331846FEF7B9FE3B6B183355
:102570001846FEF7B4FE3B6B3A6B1A61BB6AC3F1B7
:1025800020023B6B9A613B6B3A6B5A623A68F9687E
:10259000B86901F01FFE02463B6B1A60FB6A002B14
:1025A00002D0FB6A3A6B1A6000BF2037BD4680BD7F
:1025B00080B584B000AF786001F03EFF414B1B68EE
:1025C0000133404A1360404B1B68002B09D13E4A3F
:1025D0007B6813603B4B1B68012B10D100F0B6FFEA
:1025E0000DE03A4B1B68002B09D1374B1B68DA6AA8
:1025F0007B68DB6A9A4202D8334A7B681360344BAB
:102600001B680133324A1360314B1A687B685A6485
:102610007B68DB6A01229A402E4B1B6813432D4ACC
:1026200013607B68DA6A2C4913469B0013449B00B5
:102630000B4404331B68FB607B68FA689A60FB6894
:102640009A687B68DA60FB689B687A6804325A6033
:102650007B681A1DFB689A607B68DA6A13469B00E8
:1026600013449B001C4A1A447B685A617B68DA6AEF
:10267000194913469B0013449B000B441B687A685E
:10268000D26A591C144813469B0013449B00034410
:10269000196001F001FF0D4B1B68002B0ED00A4B97
:1026A0001B68DA6A7B68DB6A9A4207D20B4B4FF0F1
:1026B00080521A60BFF34F8FBFF36F8F00BF103788
:1026C000BD4680BDC0070020CC040020CC07002000
:1026D000DC070020C8070020D004002004ED00E043
:1026E00080B586B000AF786000233B6101F0A4FEA6
:1026F0007B68002B03D1424B1B687B6101E07B6848
:102700007B617B6904331846FEF750FE0346002BBD
:1027100015D17B69DA6A3B4913469B0013449B0041
:102720000B441B68002B0AD17B69DB6A012202FA89
:1027300003F3DA43344B1B681340334A13607B695D
:102740009B6A002B04D07B6918331846FEF72EFED7
:102750002E4B1B6801332D4A1360294B1B687A6985
:102760009A4202D10123FB6001E00023FB60284B69
:102770001B68002B10D0FB68002B0DD07B69043345
:1027800019462448FEF7B7FD234B1B680133224A44
:10279000136001233B6106E0204B1B68013B1F4A8D
:1027A000136000F051FF01F077FE3B69012B02D06E
:1027B000786900F039FF164B1B68002B1CD0104BBA
:1027C0001B687A699A4217D1154B1B68002B0BD0F6
:1027D0004FF0500383F31188BFF36F8FBFF34F8F18
:1027E000BB6000BF00BFFDE70E4B4FF080521A6088
:1027F000BFF34F8FBFF36F8F00BF1837BD4680BD4B
:10280000CC040020D0040020C8070020DC070020F2
:10281000CC07002094070020A8070020C007002054
:10282000E807002004ED00E080B584B000AF7860D8
:102830000023FB607B68002B18D000F0BFF8134B1F
:102840001B68012B0BD04FF0500383F31188BFF3AB
:102850006F8FBFF34F8FBB6000BF00BFFDE700214C
:10286000786801F043F900F0F3F8F860FB68002B9A
:1028700007D1074B4FF080521A60BFF34F8FBFF361
:102880006F8F00BF1037BD4680BD00BFE807002036
:1028900004ED00E080B58AB002AF0123FB610023A4
:1028A0003B6100237B6111E01C4A7B69134419786A
:1028B0003A467B6913440A461A703A467B691344C8
:1028C0001B78002B06D07B6901337B617B690F2B62
:1028D000EADD00E000BF0023BB6115E0104B3B6167
:1028E000BB699B000F4A13443946019300230093B0
:1028F000002382223869FFF7A8FDF861FB69002BED
:1029000006D0BB690133BB61BB69002BE6DD00E08B
:1029100000BFFB6918462037BD4680BDF89400080B
:1029200061340008E407002080B584B000AFFFF7F1
:10293000B1FFF860FB68012B02D101F059F9F86092
:10294000FB68012B19D14FF0500383F31188BFF3BB
:102950006F8FBFF34F8FBB6000BF134B4FF0FF3241
:102960001A60124B01221A60114B00221A60114B9F
:1029700000221A6001F0BEFC0FE0FB68B3F1FF3FDC
:102980000BD14FF0500383F31188BFF36F8FBFF368
:102990004F8F7B6000BF00BFFDE7074B1B6800BF88
:1029A0001037BD4680BD00BFE0070020CC070020E7
:1029B000C407002080030020F494000880B400AF16
:1029C000044B1B680133034A136000BFBD4680BC43
:1029D000704700BFE807002080B485B000AF002337
:1029E000BB6001237B60154B1B687A689A4201D259
:1029F0000123BB60124B1B68DB6A002B02D0002353
:102A0000FB6014E00F4B1B68012B02D90023FB6015
:102A10000DE0BB68002B02D00023FB6007E00A4BEF
:102A20001B68FB60094B1B68FA68D31AFB60FB68E4
:102A300018461437BD4680BC704700BFC807002049
:102A4000CC040020D0040020E0070020C4070020B0
:102A500080B588B000AF0023FB610023BB6101F0AB
:102A6000EBFC00233B61754B1B68002B0BD14FF037
:102A7000500383F31188BFF36F8FBFF34F8F3B6019
:102A800000BF00BFFDE76D4B1B68013B6B4A136045
:102A90006A4B1B68002B40F0CA80694B1B68002BF7
:102AA00000F0C5808EE0674BDB68DB68FB61FB698B
:102AB0009B6AFB60FB69DB69FA69126A9A60FB69D1
:102AC0001B6AFA69D2695A60FB685A68FB69183355
:102AD0009A4203D1FB691A6AFB685A60FB690022BB
:102AE0009A62FB681B685A1EFB681A60FB695B6987
:102AF000BB60FB699B68FA69D2689A60FB69DB6816
:102B0000FA6992685A60BB685A68FB6904339A4252
:102B100003D1FB69DA68BB685A60FB6900225A611D
:102B2000BB681B685A1EBB681A60FB69DB6A01221E
:102B30009A40454B1B681343434A1360FB69DA6AAA
:102B4000424913469B0013449B000B4404331B680B
:102B50007B60FB697A689A607B689A68FB69DA60D7
:102B60007B689B68FA6904325A60FB691A1D7B68AE
:102B70009A60FB69DA6A13469B0013449B00334A50
:102B80001A44FB695A61FB69DA6A304913469B00B3
:102B900013449B000B441B68FA69D26A591C2B48EA
:102BA00013469B0013449B0003441960FB69DA6AD7
:102BB000274B1B68DB6A9A4204D9264A3B690121EC
:102BC00042F823101F4B1B68002B7FF46CAFFB698E
:102BD000002B01D000F038FD1F4B1B687B617B6927
:102BE000002B12D000F0B0F80346002B04D0194A95
:102BF0003B69012142F823107B69013B7B617B69C2
:102C0000002BEFD1144B00221A60124A3B6952F894
:102C10002330002B0BD00123BB610D4B1B680F4BE6
:102C20004FF080521A60BFF34F8FBFF36F8F01F0E8
:102C300033FCBB6918462037BD4680BDE80700203D
:102C4000C007002080070020C8070020D004002013
:102C5000CC040020D4070020D007002004ED00E0C1
:102C600080B483B000AF044B1B687B607B68184660
:102C70000C37BD4680BC7047C407002080B400AF4D
:102C8000024B1B681846BD4680BC7047C007002039
:102C900080B586B000AF7860274B1B687A68134414
:102CA0007B61264B1B687A699A420BD94FF050031F
:102CB00083F31188BFF36F8FBFF34F8F3B6100BF6A
:102CC00000BFFDE71D4B1B687A699A422AD11C4B55
:102CD0001B68002B0BD14FF0500383F31188BFF317
:102CE0006F8FBFF34F8FFB6000BF00BFFDE77B68B6
:102CF000002B0BD14FF0500383F31188BFF36F8F7C
:102D0000BFF34F8FBB6000BF00BFFDE701F094FB36
:102D10000C4B1B6801330B4A136001F0BDFB7B6851
:102D2000013B7B60044B1A687B681344024A1360C2
:102D300000BF1837BD4680BDC4070020E007002053
:102D4000E8070020D007002080B58AB000AF00233C
:102D50007B627F4B1B68002B40F0EF807D4B1B6834
:102D600001333B627B4A3B6A13603B6A002B21D1F3
:102D7000794B1B681B68002B0BD04FF0500383F37B
:102D80001188BFF36F8FBFF34F8F7B6000BF00BF11
:102D9000FDE7714B1B68FB61704B1B686E4A13604B
:102DA0006E4AFB6913606E4B1B6801336C4A1360FB
:102DB00000F04AFC6B4B1B683A6A9A42C0F0A8804C
:102DC000654B1B681B68002B04D1664B4FF0FF322C
:102DD0001A609DE0604B1B68DB68DB68BB61BB6908
:102DE0005B687B613A6A7B699A4203D25D4A7B6980
:102DF00013608DE0BB695B693B61BB699B68BA6925
:102E0000D2689A60BB69DB68BA6992685A603B69AC
:102E10005A68BB6904339A4203D1BB69DA683B69DB
:102E20005A60BB6900225A613B691B685A1E3B69A4
:102E30001A60BB699B6A002B1ED0BB699B6AFB6052
:102E4000BB69DB69BA69126A9A60BB691B6ABA69B5
:102E5000D2695A60FB685A68BB6918339A4203D139
:102E6000BB691A6AFB685A60BB6900229A62FB68F8
:102E70001B685A1EFB681A60BB69DB6A01229A4014
:102E8000394B1B681343384A1360BB69DA6A374908
:102E900013469B0013449B000B4404331B68BB6028
:102EA000BB69BA689A60BB689A68BB69DA60BB683C
:102EB0009B68BA6904325A60BB691A1DBB689A6084
:102EC000BB69DA6A13469B0013449B00274A1A44E5
:102ED000BB695A61BB69DA6A244913469B001344F3
:102EE0009B000B441B68BA69D26A591C1F481346E1
:102EF0009B0013449B0003441960BB69DA6A1C4BB6
:102F00001B68DB6A9A427FF65BAF01237B6257E75F
:102F1000174B1B68DA6A154913469B0013449B0044
:102F20000B441B68012B01D901237B62114B1B68E9
:102F3000002B07D001237B6204E00F4B1B68013399
:102F40000D4A13607B6A18462837BD4680BD00BF16
:102F5000E8070020C4070020780700207C07002035
:102F6000D8070020E0070020C8070020D004002078
:102F7000CC040020D4070020D007002080B588B002
:102F800000AF474B1B68002B03D0464B01221A6051
:102F900081E0444B00221A60434B1B68434A136094
:102FA000424B1A68424B1B689A4209D93F4B1A6838
:102FB0003F4B1B68D11A3F4B1B685A6D0A445A6538
:102FC0003A4B1B683A4A13603A4B1B681B6BFB6118
:102FD0004FF0A533BB61FB691B68BA699A4211D1F6
:102FE000FB6904331B68BA699A420BD1FB69083349
:102FF0001B68BA699A4205D1FB690C331B68BA6930
:103000009A4209D02B4B1B6834337B61294B1B68D8
:1030100079691846FDF7ADFA274B1B68BB60BB68A2
:10302000B3FA83F3FB71FB79C3F11F033B612349BF
:103030003A6913469B0013449B000B441B68002B0A
:103040000BD14FF0500383F31188BFF36F8FBFF3A1
:103050004F8F3B6000BF00BFFDE73A6913469B00FE
:1030600013449B00154A1344FB60FB685B685A6875
:10307000FB685A60FB685A68FB6808339A4203D1C0
:10308000FB68DA68FB685A60FB685B68DB68094AC2
:103090001360084B1B6800BF2037BD4680BD00BFD2
:1030A000E8070020D407002080030020F00700205C
:1030B000EC070020CC040020C8070020D00400202A
:1030C00080B584B000AF786039607B68002B0BD18D
:1030D0004FF0500383F31188BFF36F8FBFF34F8F0F
:1030E000FB6000BF00BFFDE7074B1B6818331946A4
:1030F0007868FEF723F90121386800F0F7FC00BF7B
:103100001037BD4680BD00BFCC04002080B586B01E
:1031100000AFF860B9607A60FB68002B0BD14FF00C
:10312000500383F31188BFF36F8FBFF34F8F3B6161
:1031300000BF00BFFDE7FB685B687B61154B1B6848
:103140007A69DA61134B1B687A6992681A62114BCB
:103150001A687B699B6818325A600E4B1B6803F132
:1031600018027B699A600B4B1B68FA689A62FB68CD
:103170001B685A1CFB681A607B68002B02D04FF05A
:10318000FF33BB607968B86800F0B0FC00BF183747
:10319000BD4680BDCC04002080B58AB000AF786009
:1031A0007B68DB68DB683B623B6A002B0BD14FF02E
:1031B000500383F31188BFF36F8FBFF34F8FFB6012
:1031C00000BF00BFFDE73B6A9B6AFB613B6ADB69AE
:1031D0003A6A126A9A603B6A1B6A3A6AD2695A6012
:1031E000FB695A683B6A18339A4203D13B6A1A6AF0
:1031F000FB695A603B6A00229A62FB691B685A1E8F
:10320000FB691A604B4B1B68002B62D13B6A5B6900
:103210007B613B6A9B683A6AD2689A603B6ADB686A
:103220003A6A92685A607B695A683B6A04339A42E8
:1032300003D13B6ADA687B695A603B6A00225A61B3
:103240007B691B685A1E7B691A603B6ADB6A012234
:103250009A40394B1B681343374A13603B6ADA6A5A
:10326000364913469B0013449B000B4404331B68F0
:103270003B613B6A3A699A603B699A683B6ADA60EB
:103280003B699B683A6A04325A603B6A1A1D3B6983
:103290009A603B6ADA6A13469B0013449B00274AF4
:1032A0001A443B6A5A613B6ADA6A244913469B0016
:1032B00013449B000B441B683A6AD26A591C1F488E
:1032C00013469B0013449B000344196000F0BCF9B3
:1032D0001BE01B4B5B68BB613B6ABA69DA61BB6987
:1032E0009A683B6A1A62BB699B683A6A18325A60EC
:1032F0003B6A03F11802BB699A603B6A104A9A6202
:103300000F4B1B6801330E4A13603B6ADA6A0D4BA0
:103310001B68DB6A9A4205D901237B620A4B0122B2
:103320001A6001E000237B627B6A18462837BD469D
:1033300080BD00BFE8070020C8070020D00400209F
:1033400080070020CC040020D407002080B483B084
:1033500000AF7860064B1A687B681A60054B1A68E4
:103360007B685A6000BF0C37BD4680BC704700BF09
:10337000D8070020C407002080B588B000AF78606F
:1033800039607B68002B0BD14FF0500383F3118819
:10339000BFF36F8FBFF34F8F3B6100BF00BFFDE7EF
:1033A0003B68002B0BD14FF0500383F31188BFF320
:1033B0006F8FBFF34F8FFB6000BF00BFFDE701F0D1
:1033C0003BF81F4B1B68BB617B685B68BA69D31A0B
:1033D0007B613B681B68B3F1FF3F02D10023FB61B7
:1033E00026E07B681A68174B1B689A420AD07B68F4
:1033F0005B68BA699A4205D30123FB613B680022EE
:103400001A6015E03B681B687A699A420BD23B68E8
:103410001A687B69D21A3B681A607868FFF796FFD2
:103420000023FB6104E03B6800221A600123FB617A
:1034300001F032F8FB6918462037BD4680BD00BF59
:10344000C4070020D807002080B400AF034B01223E
:103450001A6000BFBD4680BC704700BFD407002083
:1034600080B584B000AF786000F0B0F8184B1B68EE
:10347000012B07D9174B4FF080521A60BFF34F8FC3
:10348000BFF36F8FFFF7A8FAF860FB68012BEBD949
:10349000FFF794FA104B1A68104B1B689A420BD234
:1034A0004FF0500383F31188BFF36F8FBFF34F8F3B
:1034B000BB6000BF00BFFDE7FFF78EFAF860FB6856
:1034C000012B02D9F86801F069F8FFF7C1FACBE7E0
:1034D000D004002004ED00E0E0070020C407002035
:1034E00080B483B000AF01233B600123FB71124B1A
:1034F0001B68002B02D00023FB7117E00F4B1B68E9
:10350000002B02D00023FB7110E00D4B1B68002B39
:1035100002D00023FB7109E00A4B1A680A4B1968B4
:103520003B68CB1A9A4201D10223FB71FB79184602
:103530000C37BD4680BC704780070020D4070020B0
:10354000D0070020AC070020C007002080B582B063
:1035500000AF00237B600CE07A6813469B001344A5
:103560009B00124A13441846FDF79AFE7B6801330C
:103570007B607B681F2BEFD90D48FDF791FE0D484E
:10358000FDF78EFE0C48FDF78BFE0C48FDF788FE1C
:103590000B48FDF785FE0B4B054A1A600A4B054A9E
:1035A0001A6000BF0837BD4680BD00BFD0040020B0
:1035B00050070020640700208007002094070020A7
:1035C000AC070020780700207C07002080B582B07F
:1035D00000AF19E000F030FF104BDB68DB687B6068
:1035E0007B6804331846FDF7E1FE0D4B1B68013B79
:1035F0000B4A13600B4B1B68013B0A4A136000F037
:103600004BFF786800F010F8064B1B68002BE1D1E7
:1036100000BF00BF0837BD4680BD00BF9407002033
:10362000C0070020A807002080B582B000AF7860F6
:103630007B681B6B184601F029FA786801F026FABE
:1036400000BF0837BD4680BD80B400AF094B1B6882
:103650001B68002B04D1084B4FF0FF321A6005E0C5
:10366000044B1B68DB681B68034A136000BFBD4640
:1036700080BC704778070020E007002080B483B04A
:1036800000AF0B4B1B68002B02D101237B6008E0CD
:10369000084B1B68002B02D102237B6001E0002352
:1036A0007B607B6818460C37BD4680BC704700BF06
:1036B000CC070020E807002080B586B000AF786016
:1036C0007B683B6100237B617B68002B00F0898075
:1036D0003B69DA6A454B1B68DB6A9A4278D23B69E0
:1036E0009B69002B06DB414B1B68DB6AC3F12002A0
:1036F0003B699A613B6959693B69DA6A13469B00E9
:1037000013449B003A4A1344994259D13B6904330C
:103710001846FDF74BFE0346002B0AD13B69DB6AD6
:10372000012202FA03F3DA43324B1B681340314A99
:1037300013602E4B1B68DA6A3B69DA623B69DB6A0D
:1037400001229A402B4B1B6813432A4A13603B69A2
:10375000DA6A274913469B0013449B000B44043349
:103760001B68FB603B69FA689A60FB689A683B6972
:10377000DA60FB689B683A6904325A603B691A1D3B
:10378000FB689A603B69DA6A13469B0013449B000E
:10379000174A1A443B695A613B69DA6A144913466D
:1037A0009B0013449B000B441B683A69D26A591C66
:1037B0000F4813469B0013449B000344196004E028
:1037C0000A4B1B68DA6A3B69DA6201237B6108E015
:1037D0003B69DA6C054B1B68DB6A9A4201D2012314
:1037E0007B617B6918461837BD4680BDCC0400203C
:1037F000D0040020C807002080B588B000AF7860F2
:103800007B68BB610023FB617B68002B00F090802C
:103810004A4B1B68BA699A420BD04FF0500383F3AE
:103820001188BFF36F8FBFF34F8F3B6100BF00BFA5
:10383000FDE7BB691B6D002B0BD14FF0500383F3E9
:103840001188BFF36F8FBFF34F8FFB6000BF00BFC6
:10385000FDE7BB691B6D5A1EBB691A65BB69DA6A55
:10386000BB69DB6C9A4263D0BB691B6D002B5FD1D7
:10387000BB6904331846FDF799FD0346002B0AD1B6
:10388000BB69DB6A012202FA03F3DA432C4B1B68A3
:1038900013402B4A1360BB69DA6CBB69DA62BB69FF
:1038A000DB6AC3F12002BB699A61BB69DB6A012252
:1038B0009A40234B1B681343214A1360BB69DA6AA1
:1038C000204913469B0013449B000B4404331B68A0
:1038D0007B61BB697A699A607B699A68BB69DA60C7
:1038E0007B699B68BA6904325A60BB691A1D7B699F
:1038F0009A60BB69DA6A13469B0013449B00114A25
:103900001A44BB695A61BB69DA6A0E4913469B00C7
:1039100013449B000B441B68BA69D26A591C0948BE
:1039200013469B0013449B00034419600123FB6171
:10393000FB6918462037BD4680BD00BFCC0400207F
:10394000C8070020D004002080B58AB000AF78609E
:1039500039607B683B620123FB617B68002B00F0D0
:10396000A5803B6A1B6D002B0BD14FF0500383F3F6
:103970001188BFF36F8FBFF34F8F3B6100BF00BF54
:10398000FDE73B6ADB6C3A689A4202D93B687B628E
:1039900002E03B6ADB6C7B623B6ADB6A7A6A9A42D2
:1039A00000F084803B6A1B6DFA699A427ED1414BDC
:1039B0001B683A6A9A420BD14FF0500383F3118887
:1039C000BFF36F8FBFF34F8FFB6000BF00BFFDE7FA
:1039D0003B6ADB6ABB613B6A7A6ADA623B6A9B6973
:1039E000002B04DB7B6AC3F120023B6A9A613B6ACD
:1039F0005969BA6913469B0013449B002E4A13442D
:103A0000994253D13B6A04331846FDF7CFFC034675
:103A1000002B0AD13B6ADB6A012202FA03F3DA4384
:103A2000264B1B681340254A13603B6ADB6A012260
:103A30009A40224B1B681343204A13603B6ADA6AA0
:103A40001D4913469B0013449B000B4404331B6821
:103A50007B613B6A7A699A607B699A683B6ADA6043
:103A60007B699B683A6A04325A603B6A1A1D7B691B
:103A70009A603B6ADA6A13469B0013449B000E4A25
:103A80001A443B6A5A613B6ADA6A0B4913469B0047
:103A900013449B000B441B683A6AD26A591C0648BF
:103AA00013469B0013449B000344196000BF283752
:103AB000BD4680BDCC040020D0040020C8070020F3
:103AC00080B483B000AF084B1B687B607B68002B21
:103AD00004D07B681B6D5A1C7B681A657B6818468E
:103AE0000C37BD4680BC7047CC04002080B588B040
:103AF00000AF78603960374B1B68FB61364B1B6841
:103B0000BB61364B1B687B61354B1B680433184621
:103B1000FDF74CFC0346002B0BD1314B1B68DB6AD5
:103B2000012202FA03F3DA432E4B1B6813402D4A9D
:103B300013607B68B3F1FF3F24D13B68002B21D099
:103B4000294B5B683B61264B1B683A699A60244BA2
:103B50001B683A699268DA60214B1A683B699B6876
:103B600004325A601E4B1B681A1D3B699A601C4B3D
:103B70001B681D4A5A611C4B1B6801331A4A1360AB
:103B800000BF22E0FA697B681344FB60144B1B689A
:103B9000FA685A60FA68FB699A4207D2104B1B68B0
:103BA000043319467869FDF7C9FB0EE00C4B1B681E
:103BB00004331946B869FDF7C1FB0C4B1B68FA6862
:103BC0009A4202D2094AFB68136000BF2037BD4603
:103BD00080BD00BFC4070020780700207C070020BC
:103BE000CC040020C8070020AC070020E00700201C
:103BF00080B584B002AF00237B6000F0B5FA124BB1
:103C00001B68002B0BD0114B01931F230093002343
:103C10004FF482720E490F48FEF717FC78607B68FC
:103C2000002B0BD14FF0500383F31188BFF36F8F3C
:103C3000BFF34F8F3B6000BF00BFFDE77B681846B6
:103C40000837BD4680BD00BF24080020280800209A
:103C500028950008B13D000880B588B002AFF86033
:103C6000B9607A603B602C2000F0DEFD78617B69F2
:103C7000002B0DD07B69002283F828207B690193FB
:103C80003B6A00933B687A68B968F86800F005F809
:103C90007B6918461837BD4680BD80B586B000AF39
:103CA000F860B9607A603B60BB68002B0BD14FF0C5
:103CB000500383F31188BFF36F8FBFF34F8F7B6186
:103CC00000BF00BFFDE700F04FFA7B6AFA681A6098
:103CD0007B6ABA689A617B6A3A68DA617B6A3A6A97
:103CE0001A627B6A04331846FDF7F9FA7B68002BE9
:103CF00008D07B6A93F8283043F00403DAB27B6A79
:103D000083F8282000BF1837BD4680BD80B584B039
:103D100000AFF860B9607A6008E0FB689B69BA6838
:103D20001344BB60FB681B6AF8689847FB689A6994
:103D3000BB68D118BB687A68F86800F0DDF8034604
:103D4000002BEAD100BF00BF1037BD4680BD000088
:103D500080B584B000AF78603960144B1B68DB68B5
:103D6000DB68FB60FB6804331846FDF71FFBFB684C
:103D700093F8283003F00403002B05D03A687968E3
:103D8000F868FFF7C3FF08E0FB6893F8283023F0DA
:103D90000103DAB2FB6883F82820FB681B6AF86825
:103DA000984700BF1037BD4680BD00BF1C080020EB
:103DB00080B584B000AF786007F10803184600F0C2
:103DC00059F8F860BB681946F86800F005F800F08B
:103DD000D5F800BFF0E7000080B584B000AF786090
:103DE0003960FEF7EBFD07F10803184600F064F8B0
:103DF000F860BB68002B31D13B68002B0AD17A6890
:103E0000FB689A4206D8FEF723FEF9687868FFF748
:103E10009FFF25E03B68002B09D0134B1B681B68F4
:103E2000002B02D101233B6001E000233B600F4BDC
:103E300018687A68FB68D31A3A681946FEF722FABE
:103E4000FEF706FE0346002B0AD1094B4FF08052C5
:103E50001A60BFF34F8FBFF36F8F01E0FEF7F8FDDD
:103E600000BF1037BD4680BD200800202408002078
:103E700004ED00E080B485B000AF78600D4B1B68A6
:103E80001B68002B01D1012200E000227B681A6030
:103E90007B681B68002B05D1064B1B68DB681B6821
:103EA000FB6001E00023FB60FB6818461437BD4649
:103EB00080BC70471C08002080B584B000AF7860DB
:103EC000FEF7CEFEF8600B4B1B68FA689A4205D2EB
:103ED00000F024F97B6801221A6002E07B6800226E
:103EE0001A60044AFB681360FB6818461037BD4629
:103EF00080BD00BF2C08002080B586B000AFF86000
:103F0000B9607A603B6000237B61FB68BA685A60E5
:103F1000FB68FA681A61BA687B689A4212D87A68B4
:103F20003B68D21AFB689B699A4202D301237B61EA
:103F30001BE0104B1A68FB68043319461046FDF766
:103F4000FDF912E07A683B689A4206D2BA683B688B
:103F50009A4202D301237B6107E0074B1A68FB6892
:103F6000043319461046FDF7E9F97B6918461837FE
:103F7000BD4680BD200800201C08002080B588B008
:103F800000AF07F1080300221A605A609A60B1E09E
:103F9000BB68002BC0F2AE803B69FB61FB695B69CB
:103FA000002B04D0FB6904331846FDF7FFF93B1DD5
:103FB0001846FFF781FFB861BB68092B5CD0092B5D
:103FC00000F39580082B4DD0082B00F39080072B31
:103FD00000F38D80062B11DA052B73D0052B00F32F
:103FE0008680042B48D0042B00F38180022B02DC56
:103FF000002B03DC7BE0032B34D078E0FB6993F8E3
:10400000283043F00103DAB2FB6983F82820FA680C
:10401000FB699B69D118FB68BA69F869FFF76CFF07
:104020000346002B65D0FB6993F8283003F00403A6
:10403000002B09D0FA68FB699B691344BA691946D9
:10404000F869FFF763FE08E0FB6993F8283023F076
:104050000103DAB2FB6983F82820FB691B6AF8695F
:10406000984746E0FB6993F8283023F00103DAB261
:10407000FB6983F828203DE0FB6993F8283043F082
:104080000103DAB2FB6983F82820FA68FB699A61B8
:10409000FB699B69002B0BD14FF0500383F3118810
:1040A000BFF36F8FBFF34F8F7B6100BF00BFFDE792
:1040B000FB699A69BB69D118BB69BA69F869FFF7EE
:1040C0001BFF17E0FB6993F8283003F00203002B75
:1040D00003D1F86900F0DAFC0CE0FB6993F82830B2
:1040E00023F00103DAB2FB6983F8282002E000BF65
:1040F00000E000BF084B1B6807F1080100221846CA
:10410000FDF75CFD0346002B7FF442AF00BF00BF0C
:104110002037BD4680BD00BF2408002080B582B096
:1041200000AF09E00E4B1B68DB681B683B604FF07B
:10413000FF313868FFF70CFE094B1B681B68002B2A
:10414000F0D1074B1B687B60064B1B68044A136069
:10415000044A7B68136000BF0837BD4680BD00BFBE
:104160001C0800202008002080B500AF00F064F992
:10417000124B1B68002B1DD11148FDF791F8114817
:10418000FDF78EF8104B0E4A1A60104B0D4A1A605C
:1041900000220C210520FDF7C5F90346074A1360EC
:1041A000064B1B68002B05D0044B1B6808491846BA
:1041B000FEF71AF800F070F900BF80BD2408002057
:1041C000F4070020080800201C0800202008002018
:1041D0003095000880B485B000AFF860B9607A60AF
:1041E000FB68043BFB60FB684FF080721A60FB6861
:1041F000043BFB60BB6823F00102FB681A60FB68AC
:10420000043BFB600C4AFB681A60FB68143BFB60D4
:104210007A68FB681A60FB68043BFB60FB686FF020
:1042200002021A60FB68203BFB60FB6818461437EB
:10423000BD4680BC704700BF3D42000880B485B0D9
:1042400000AF00237B60124B1B68B3F1FF3F0BD024
:104250004FF0500383F31188BFF36F8FBFF34F8F7D
:10426000FB6000BF00BFFDE74FF0500383F31188F0
:10427000BFF36F8FBFF34F8FBB6000BF00BF7B6882
:10428000002BFCD000BF00BF1437BD4680BC704778
:104290002C020020000000000000000000000000D0
:1042A000074B19680868B0E8F04F80F30988BFF33E
:1042B0006F8F4FF0000080F311887047AFF30080DC
:1042C000CC04002000BF00BF08480068006880F3ED
:1042D00008884FF0000080F3148862B661B6BFF31F
:1042E0004F8FBFF36F8F00DF00BF000008ED00E0CD
:1042F00000BF00BF80B586B000AF464B1B68464A82
:1043000093420BD14FF0500383F31188BFF36F8FAB
:10431000BFF34F8FFB6000BF00BFFDE73D4B1B6845
:104320003E4A93420BD14FF0500383F31188BFF301
:104330006F8FBFF34F8F3B6100BF00BFFDE7384B6E
:104340007B617B691B78DBB27B607B69FF221A7023
:104350007B691B78DBB2FB70FB78DBB203F05003A8
:10436000DAB2304B1A70304B07221A6009E02E4B3C
:104370001B68013B2C4A1360FB78DBB25B00DBB2AD
:10438000FB70FB78DBB203F08003802BEFD0264B71
:104390001B68032B0BD04FF0500383F31188BFF33E
:1043A0006F8FBFF34F8FBB6000BF00BFFDE71E4B99
:1043B0001B681B021C4A13601B4B1B6803F4E06361
:1043C000194A13607B68DAB27B691A70174B1B6855
:1043D000164A43F470031360144B1B68134A43F0EE
:1043E0007043136000F0A4F9114B00221A6000F032
:1043F000CFF9104B1B680F4A43F040431360FFF79F
:1044000063FFFEF7BBFDFFF719FF002318461837BF
:10441000BD4680BD00ED00E071C20F4170C20F418A
:1044200000E400E03C0800204008002020ED00E00F
:104430002C02002034EF00E080B483B000AF4FF0D6
:10444000500383F31188BFF36F8FBFF34F8F7B60EF
:1044500000BF0F4B1B6801330D4A13600C4B1B68E8
:10446000012B10D10B4B1B68DBB2002B0BD04FF094
:10447000500383F31188BFF36F8FBFF34F8F3B60FF
:1044800000BF00BFFDE700BF0C37BD4680BC7047D2
:104490002C02002004ED00E080B483B000AF124B8A
:1044A0001B68002B0BD14FF0500383F31188BFF32F
:1044B0006F8FBFF34F8F7B6000BF00BFFDE70A4BDC
:1044C0001B68013B084A1360074B1B68002B05D192
:1044D00000233B603B6883F3118800BF00BF0C37AB
:1044E000BD4680BC704700BF2C02002000000000C9
:1044F000EFF30980BFF36F8F154B1A681EF0100F92
:1045000008BF20ED108A20E9F04F106009B44FF089
:10451000500080F31188BFF34F8FBFF36F8FFEF70A
:104520002DFD4FF0000080F3118809BC1968086860
:10453000B0E8F04F1EF0100F08BFB0EC108A80F307
:104540000988BFF36F8F7047AFF30080AFF300802F
:10455000CC04002000BF00BF80B582B000AF4FF098
:10456000500383F31188BFF36F8FBFF34F8F7B60CE
:1045700000BFFEF7E9FB0346002B03D0064B4FF0CC
:1045800080521A6000233B603B6883F3118800BFB0
:1045900000BF0837BD4680BD04ED00E080B588B09F
:1045A00000AF78605B4B1B687A689A4202D9594B1E
:1045B0001B687B6072B6BFF34F8FBFF36F8FFEF740
:1045C0008FFF0346002B01D162B69EE0524B0622BC
:1045D0001A60524B1B687B617B69002B02D1504BE8
:1045E0001B687B617B68013B4D4A126802FB03F349
:1045F0007A691344FB614B4B1B6803F08063002B0B
:1046000008D0484B4FF000721A60454B1B68FA699E
:10461000D31AFB61444B1B68FA699A4204D9424B96
:104620001B68FA69D31AFB61404AFB6913603B4B74
:1046300000221A60384B1B68374A43F001031360AD
:104640007B68FB60FB68002B04D0BFF34F8F30BF4B
:10465000BFF36F8F62B6BFF34F8FBFF36F8F72B62A
:10466000BFF34F8FBFF36F8F2B4B06221A602A4B7D
:104670001B6803F48033002B1DD0294B1A68274B8D
:104680001968FB69CB1A1344013B3B61264B1B683D
:104690003A699A4204D9224B1B683A699A4203D973
:1046A0001F4B1B68013B3B61204A3B6913607B68E1
:1046B000013BBB611AE0194B1B687B61184B1B68FF
:1046C0007A6803FB02F27B69D31ABB60144B1B6848
:1046D000BA68B2FBF3F3BB61BB690133104A1268DD
:1046E00003FB02F21149BB68D31A0B600B4B00228B
:1046F0001A60094B07221A60094B1B680B4A013BE1
:104700001360B869FEF7C4FA62B600BF2037BD4631
:1047100080BD00BF3408002010E000E018E000E099
:104720003008002004ED00E03808002014E000E02C
:1047300080B400AF0E4B0F4A1A600D4B1B686FF030
:104740007F42B2FBF3F30C4A13600C4B5E221A60FB
:104750000B4B00221A600B4B00221A600A4B0B4ACB
:104760001A60074B07221A6000BFBD4680BC704725
:104770003008002040900200340800203808002053
:1047800010E000E018E000E014E000E03F900200DC
:10479000DFF80C00016841F470010160704700000F
:1047A00088ED00E000BF00BF80B485B000AFEFF33C
:1047B0000583FB60FB680F2B15D9174AFB68134470
:1047C0001B78FB72154B1B78FA7A9A420BD24FF08A
:1047D000500383F31188BFF36F8FBFF34F8F7B605C
:1047E00000BF00BFFDE70E4B1B6803F4E0620D4BFA
:1047F0001B689A420BD94FF0500383F31188BFF323
:104800006F8FBFF34F8F3B6000BF00BFFDE700BF5E
:104810001437BD4680BC7047F0E300E03C08002040
:104820000CED00E04008002080B58EB000AF78604D
:104830000023FB627B68002B22D00823DB437A68CD
:104840009A421BD808227B6813447B607B6803F084
:104850000703002B14D07B6803F00703C3F10803A0
:10486000BB62BB6ADB437A689A4204D87A68BB6A47
:1048700013447B6004E000237B6001E000237B6045
:10488000FEF79CF87A4B1B68002B01D100F074F9FD
:104890007B68002BC0F2D3807B68002B00F0CF80B8
:1048A000744B1B687A689A4200F2C980724B3B6372
:1048B000714B1B687B637B6B704A934205D37B6BA8
:1048C0006F4A934201D8012300E00023002B29D135
:1048D0004FF0500383F31188BFF36F8FBFF34F8FF7
:1048E0003B6200BF00BFFDE77B6B3B637B6B1B68DC
:1048F0007B637B6B614A934205D37B6B604A934237
:1049000001D8012300E00023002B0BD14FF050030E
:1049100083F31188BFF36F8FBFF34F8FFB6100BF2D
:1049200000BFFDE77B6B5B687A689A4203D97B6BBB
:104930001B68002BD8D14E4B1B687A6B9A427ED0F5
:104940003B6B1B6808221344FB62FB6A4B4A934291
:1049500005D3FB6A4A4A934201D8012300E00023B1
:10496000002B0BD14FF0500383F31188BFF36F8FEF
:10497000BFF34F8FBB6100BF00BFFDE77B6B1A68C1
:104980003B6B1A607B6B5B687A689A420BD94FF07D
:10499000500383F31188BFF36F8FBFF34F8F7B6199
:1049A00000BF00BFFDE77B6B5A687B68D21A082303
:1049B0005B009A4224D97A6B7B6813447B627B6AE2
:1049C00003F00703002B0BD04FF0500383F3118843
:1049D000BFF36F8FBFF34F8F3B6100BF00BFFDE799
:1049E0007B6B5A687B68D21A7B6A5A607B6B7A68E9
:1049F0005A603B6B1A687B6A1A603B6B7A6A1A6072
:104A00001C4B1A687B6B5B68D31A1A4A1360194BEC
:104A10001A681C4B1B689A4203D2164B1B68194A32
:104A200013607B6B5B6843F000427B6B5A607B6B6F
:104A300000221A60144B1B680133134A1360FEF7FF
:104A400007F8FB6A03F00703002B0BD04FF050036D
:104A500083F31188BFF36F8FBFF34F8FFB6000BFED
:104A600000BFFDE7FB6A18463837BD4680BD00BF72
:104A70004C340120503401204434012044080020EB
:104A800043340120543401205834012080B588B0CB
:104A900000AF78607B68FB617B68002B60D00823E7
:104AA0005B42FA691344FB61FB69BB61BB692E4A37
:104AB000934205D3BB692D4A934201D8012300E0FC
:104AC0000023002B0BD14FF0500383F31188BFF369
:104AD0006F8FBFF34F8F7B6100BF00BFFDE7BB69E6
:104AE0005B68002B0BDB4FF0500383F31188BFF39F
:104AF0006F8FBFF34F8F3B6100BF00BFFDE7BB6906
:104B00001B68002B0BD04FF0500383F31188BFF3C9
:104B10006F8FBFF34F8FFB6000BF00BFFDE7BB6926
:104B20005B68002B1CDABB691B68002B18D1BB69C2
:104B30005B6823F00042BB695A60FDF73FFFBB6929
:104B40005A680B4B1B681344094A1360B86900F09C
:104B50006DF8084B1B680133064A1360FDF778FFB8
:104B600000BF2037BD4680BD4408002043340120EB
:104B7000503401205C34012080B485B000AF4FF484
:104B80009633BB60244BFB60FB6803F00703002BEC
:104B90000CD0FB680733FB60FB6823F00703FB6066
:104BA000BA68FB68D31A1C4A1344BB60FB681B4AF3
:104BB00013601A4B00225A60FA68BB6813447B608A
:104BC00008227B689B1A7B607B6823F007037B606D
:104BD0007B68134A1360124B1B6800225A60104B0B
:104BE0001B6800221A60FB683B603B687A68D21A37
:104BF0003B685A600A4B1A683B681A603B685B68FE
:104C0000084A13603B685B68074A136000BF1437AB
:104C1000BD4680BC704700BF4408002044340120DA
:104C20004C340120543401205034012080B487B02A
:104C300000AF7860364B7B6102E07B691B687B616B
:104C40007B691B687A689A42F7D87B69304A93423D
:104C500018D07B692F4A934205D37B692E4A934231
:104C600001D8012300E00023002B0BD14FF05003AB
:104C700083F31188BFF36F8FBFF34F8FFB6000BFCB
:104C800000BFFDE77B693B617B695B683A69134460
:104C90007A689A4208D17B695A687B685B681A44D3
:104CA0007B695A607B697B607B683B617B685B6882
:104CB0003A691A447B691B689A4218D17B691A6861
:104CC000164B1B689A420DD07B685A687B691B683B
:104CD0005B681A447B685A607B691B681A687B684A
:104CE0001A6008E00D4B1A687B681A6003E07B6964
:104CF0001A687B681A607A697B689A4202D07B697D
:104D00007A681A6000BF1C37BD4680BC704700BF80
:104D10004434012044080020433401204C34012055
:104D200080B500AF03F040F900BF80BD80B400AF94
:104D300000BFBD4680BC704780B500AFFFF7F0FFF5
:104D400000BF80BD80B584B000AF00F05FF81F4B9E
:104D5000FB6019E00023BB600EE0FB681A68BB68CB
:104D60009B001A44FB685968BB689B000B4412689F
:104D70001A60BB680133BB60FB689B68BA689A42E3
:104D8000EBD3FB680C33FB60FB68114A9342E1D321
:104D9000104B7B6014E000233B6009E07B681A68DD
:104DA0003B689B00134400221A603B6801333B6060
:104DB0007B685B683A689A42F0D37B6808337B6013
:104DC0007B68054A9342E6D3FBF728FA98950008DA
:104DD000A4950008A4950008A495000880B400AF2D
:104DE00000BFFDE780B400AF00BFFDE780B400AFB7
:104DF00000BFFDE780B400AF00BFFDE780B400AFA7
:104E000000BFFDE780B400AF00BFFDE780B400AF96
:104E1000054BD3F88830044A43F47003C2F8883055
:104E200000BFBD4680BC704700ED00E080B485B097
:104E300000AF78607B6803F00703FB600C4BDB6816
:104E4000BB60BA684FF6FF031340BB60FB681A02F1
:104E5000BB68134343F0BF6343F40033BB60044AB1
:104E6000BB68D36000BF1437BD4680BC704700BF2D
:104E700000ED00E080B400AF044BDB681B0A03F0D8
:104E800007031846BD4680BC704700BF00ED00E038
:104E900080B483B000AF0346FB7197F90730002B55
:104EA0000BDBFB7903F01F02064997F907305B091A
:104EB000012000FA02F241F8232000BF0C37BD4662
:104EC00080BC704700E100E080B483B000AF0346CF
:104ED0003960FB7197F90730002B0ADB3B68DAB2C7
:104EE0000C4997F907301201D2B20B4483F8002322
:104EF0000AE03B68DAB20849FB7903F00F03043B90
:104F00001201D2B20B441A7600BF0C37BD4680BCEA
:104F1000704700BF00E100E000ED00E080B489B020
:104F200000AFF860B9607A60FB6803F007037B614B
:104F30007B69033B042B04D87B69C3F10703FB6146
:104F400001E00423FB617B690433062B03D97B69F1
:104F5000033BBB6101E00023BB614FF0FF32FB6903
:104F600002FA03F3DA43BB681A40BB699A404FF078
:104F7000FF31BB6901FA03F3D9437B680B4013434C
:104F800018462437BD4680BC7047000080B582B00B
:104F900000AF78607B68013BB3F1807F01D30123D0
:104FA0000FE00A4A7B68013B53600F214FF0FF304E
:104FB000FFF78AFF054B00229A60044B07221A6014
:104FC000002318460837BD4680BD00BF10E000E052
:104FD00080B582B000AF78607868FFF727FF00BF28
:104FE0000837BD4680BD80B586B000AF0346B960C6
:104FF0007A60FB7300237B61FFF73CFF78617A687E
:10500000B9687869FFF78AFF024697F90F301146B1
:105010001846FFF759FF00BF1837BD4680BD80B561
:1050200082B000AF0346FB7197F907301846FFF7CF
:105030002FFF00BF0837BD4680BD80B582B000AFEE
:1050400078607868FFF7A2FF034618460837BD4628
:1050500080BD000080B586B000AF786000237B6122
:1050600003F00CF838617B68002B01D1012399E033
:105070007B68022283F835207B68002283F8342085
:105080007B681B681A687B681B6822F001021A6043
:105090000FE002F0F3FF02463B69D31A052B08D953
:1050A0007B6820225A657B68032283F8352003231E
:1050B00078E07B681B681B6803F00103002BE8D1D4
:1050C0007B681B681B687B617A69384B13407B6186
:1050D0007B685A687B689B681A437B68DB681A4365
:1050E0007B681B691A437B685B691A437B689B6911
:1050F0001A437B68DB691A437B681B6A13437A692E
:1051000013437B617B685B6A042B07D17B68DA6A97
:105110007B681B6B13437A6913437B617B681B6855
:105120007A691A607B681B685B697B617B6923F025
:1051300007037B617B685B6A7A6913437B617B68E9
:105140005B6A042B17D17B689B6A7A6913437B6186
:105150007B68DB6A002B0ED0786800F0FFFA03460C
:10516000002B08D07B6840225A657B68012283F8B7
:105170003520012316E07B681B687A695A617868DC
:1051800000F0B8FA0346FB607B68DB6D3F229A4073
:10519000FB689A607B6800225A657B68012283F86D
:1051A0003520002318461837BD4680BD3F8010F0DB
:1051B00080B586B000AFF860B9607A603B600023CC
:1051C000FB75FB689B6D3B61FB6893F83430012BEA
:1051D00001D1022340E0FB68012283F83420FB6800
:1051E00093F83530DBB2012B2FD1FB68022283F814
:1051F0003520FB6800225A653B687A68B968F86810
:1052000000F04AFAFB68DB6D3F229A403B699A60E6
:10521000FB681B681A68FB681B6842F016021A607C
:10522000FB681B6C002B07D0FB681B681A68FB68C7
:105230001B6842F008021A60FB681B681A68FB686A
:105240001B6842F001021A6005E0FB68002283F847
:1052500034200223FB75FB7D18461837BD4680BD00
:1052600080B584B000AF78607B689B6DFB6002F016
:1052700005FFB8607B6893F83530DBB2022B08D0AD
:105280007B6880225A657B68002283F834200123E2
:1052900052E07B681B681A687B681B6822F0160264
:1052A0001A607B681B685A697B681B6822F0800261
:1052B0005A617B681B6C002B03D17B689B6C002BB5
:1052C00007D07B681B681A687B681B6822F008029D
:1052D0001A607B681B681A687B681B6822F00102F1
:1052E0001A6013E002F0CAFE0246BB68D31A052B0F
:1052F0000CD97B6820225A657B68032283F835200D
:105300007B68002283F83420032315E07B681B6848
:105310001B6803F00103002BE4D17B68DB6D3F22A7
:105320009A40FB689A607B68012283F835207B688D
:10533000002283F83420002318461037BD4680BD74
:1053400080B483B000AF78607B6893F83530DBB20F
:10535000022B04D07B6880225A6501230CE07B6815
:10536000052283F835207B681B681A687B681B68F8
:1053700022F001021A60002318460C37BD4680BC9B
:105380007047000080B586B000AF78600023BB6036
:105390008E4B1B688E4AA2FB03239B0A7B617B68B2
:1053A0009B6D3B613B691B68FB607B68DB6D082282
:1053B0009A40FB681340002B1AD07B681B681B685F
:1053C00003F00403002B13D07B681B681A687B680A
:1053D0001B6822F004021A607B68DB6D08229A4089
:1053E0003B699A607B685B6D43F001027B685A659C
:1053F0007B68DB6D01229A40FB681340002B12D0C2
:105400007B681B685B6903F08003002B0BD07B6813
:10541000DB6D01229A403B699A607B685B6D43F0CB
:1054200002027B685A657B68DB6D04229A40FB6848
:105430001340002B12D07B681B681B6803F002032B
:10544000002B0BD07B68DB6D04229A403B699A608D
:105450007B685B6D43F004027B685A657B68DB6D9B
:1054600010229A40FB681340002B43D07B681B68D6
:105470001B6803F00803002B3CD07B68DB6D102217
:105480009A403B699A607B681B681B6803F4802321
:10549000002B18D07B681B681B6803F40023002BCB
:1054A00008D17B681B6C002B24D07B681B6C786850
:1054B00098471FE07B689B6C002B1BD07B689B6C24
:1054C0007868984716E07B681B681B6803F4807354
:1054D000002B07D17B681B681A687B681B6822F069
:1054E00008021A607B681B6C002B03D07B681B6C66
:1054F000786898477B68DB6D20229A40FB681340F0
:10550000002B00F08F807B681B681B6803F0100382
:10551000002B00F087807B68DB6D20229A403B697E
:105520009A607B6893F83530DBB2052B36D17B6807
:105530001B681A687B681B6822F016021A607B6879
:105540001B685A697B681B6822F080025A617B687D
:105550001B6C002B03D17B689B6C002B07D07B68F6
:105560001B681A687B681B6822F008021A607B6857
:10557000DB6D3F229A403B699A607B68012283F889
:1055800035207B68002283F834207B681B6D002B5C
:105590007ED07B681B6D7868984779E07B681B68D4
:1055A0001B6803F48023002B1DD07B681B681B68DD
:1055B00003F40023002B0DD17B685B6C002B31D0F2
:1055C0007B685B6C786898472CE000BF3002002055
:1055D000B5814E1B7B68DB6B002B23D07B68DB6BBC
:1055E000786898471EE07B681B681B6803F480732B
:1055F000002B0FD17B681B681A687B681B6822F040
:1056000010021A607B68012283F835207B68002233
:1056100083F834207B68DB6B002B03D07B68DB6B6B
:10562000786898477B685B6D002B32D07B685B6D38
:1056300003F00103002B22D07B68052283F835207C
:105640007B681B681A687B681B6822F001021A607D
:10565000BB680133BB607A699A4207D37B681B68D9
:105660001B6803F00103002BF2D100E000BF7B6850
:10567000012283F835207B68002283F834207B6880
:10568000DB6C002B05D07B68DB6C7868984700E00A
:1056900000BF1837BD4680BD80B485B000AFF8604C
:1056A000B9607A603B60FB681B681A68FB681B681E
:1056B00022F480221A60FB681B683A685A60FB6813
:1056C0009B68402B08D1FB681B687A689A60FB686E
:1056D0001B68BA68DA6007E0FB681B68BA689A6002
:1056E000FB681B687A68DA6000BF1437BD4680BC6F
:1056F0007047000080B485B000AF78607B681B689D
:10570000DBB2103B134AA2FB03231B09FB60124AC6
:10571000FB6813441B781A467B68DA65FB68032B29
:1057200009D97B681B6823F47F7323F003031A1DD8
:105730007B689A6507E07B681B6823F47F7323F01E
:1057400003037A6893657B689B6D18461437BD46E2
:1057500080BC7047ABAAAAAA5095000880B485B057
:1057600000AF78600023FB737B689B6ABB607B683B
:105770009B69002B23D1BB68032B5FD0BB68032B35
:105780005ED8BB68022B09D0BB68022B58D8BB6817
:10579000002B03D0BB68012B09D051E07B68DB6A8A
:1057A00003F08073002B4DD00123FB734AE07B682C
:1057B000DB6AB3F1C07F47D10123FB7344E07B6810
:1057C0009B69B3F5005F26D1BB68032B1BD0BB6878
:1057D000032B3BD8BB68022B09D0BB68022B35D802
:1057E000BB68002B03D0BB68012B03D02EE0012344
:1057F000FB7332E07B68DB6A03F08073002B27D0F9
:105800000123FB7324E07B68DB6AB3F1C07F21D105
:105810000123FB731EE0BB68022B03D9BB68032B7B
:1058200003D01AE00123FB7317E07B68DB6A03F007
:105830008073002B10D00123FB730DE000BF0CE040
:1058400000BF0AE000BF08E000BF06E000BF04E0C0
:1058500000BF02E000BF00E000BFFB7B184614372A
:10586000BD4680BC7047000080B489B000AF78604E
:10587000396000237B6100233B610023BB6100236F
:10588000FB616BE10122FB6902FA03F37B613B6878
:105890001B687A6913403B613A697B699A4240F020
:1058A0005A813B685B6803F00303012B05D03B681A
:1058B0005B6803F00303022B30D17B689B68BB61FC
:1058C000FB695B00032202FA03F3DB43BA6913406E
:1058D000BB613B68DA68FB695B0002FA03F3BA69F3
:1058E0001343BB617B68BA699A607B685B68BB6184
:1058F0000122FB6902FA03F3DB43BA691340BB617F
:105900003B685B681B0903F00102FB6902FA03F3C1
:10591000BA691343BB617B68BA695A603B685B68CC
:1059200003F00303032B17D07B68DB68BB61FB69C3
:105930005B00032202FA03F3DB43BA691340BB6145
:105940003B689A68FB695B0002FA03F3BA69134388
:10595000BB617B68BA69DA603B685B6803F003038C
:10596000022B23D1FB69DA087B68083253F8223016
:10597000BB61FB6903F007039B000F2202FA03F3EC
:10598000DB43BA691340BB613B681A69FB6903F0EA
:1059900007039B0002FA03F3BA691343BB61FB6977
:1059A000DA087B680832B96943F822107B681B6803
:1059B000BB61FB695B00032202FA03F3DB43BA69B4
:1059C0001340BB613B685B6803F00302FB695B004B
:1059D00002FA03F3BA691343BB617B68BA691A60C0
:1059E0003B685B6803F44033002B00F0B480002375
:1059F000FB605F4B5B6C5E4A43F4804353645C4BDB
:105A00005B6C03F48043FB60FB685A4AFB699B08AC
:105A1000023352F82330BB61FB6903F003039B00A0
:105A20000F2202FA03F3DB43BA691340BB617B68C0
:105A3000514A93422BD07B68504A934225D07B68D1
:105A40004F4A93421FD07B684E4A934219D07B68DD
:105A50004D4A934213D07B684C4A93420DD07B68E9
:105A60004B4A934207D07B684A4A934201D10723AD
:105A70000EE008230CE006230AE0052308E00423D7
:105A800006E0032304E0022302E0012300E00023F8
:105A9000FA6902F0030292009340BA691343BB61B2
:105AA0003449FB699B080233BA6941F823203A4B19
:105AB0009B68BB613B69DB43BA691340BB613B68D0
:105AC0005B6803F48013002B03D0BA693B6913436E
:105AD000BB61314ABB6993602F4BDB68BB613B699B
