:020000040800F2
:1000000000000220FD5600089D570008A557000873
:10001000AD570008B5570008BD57000800000000A4
:1000200000000000000000000000000091430008F4
:100030009557000800000000E14500084D05000844
:1000400095570008955700089557000895570008E0
:1000500095570008955700089557000895570008D0
:1000600095570008955700089557000895570008C0
:1000700095570008955700089557000895570008B0
:1000800095570008955700089557000895570008A0
:100090009557000895570008955700089557000890
:1000A0009557000895570008955700089557000880
:1000B000B90C000895570008955700089557000897
:1000C0009557000895570008955700089557000860
:1000D00095570008750F00089557000895570008B8
:1000E0009557000895570008955700089557000840
:1000F0009557000895570008955700089557000830
:10010000955700089557000895570008955700081F
:10011000955700089557000895570008CD0C000822
:100120009557000895570008890F00089557000853
:1001300095570008955700089557000895570008EF
:1001400095570008955700089557000895570008DF
:1001500095570008955700089D0F0008955700080F
:1001600095570008955700089557000895570008BF
:1001700095570008955700089557000800000000A3
:1001800095570008955700080348044B834202D056
:10019000034B03B1184770472404002024040020B7
:1001A000000000000548064B1B1AD90F01EBA30104
:1001B000491002D0034B03B11847704724040020B4
:1001C000240400200000000010B5064C237843B939
:1001D000FFF7DAFF044B13B10448AFF300800123AB
:1001E000237010BD24040020000000008CAF000824
:1001F00008B5054B1BB105490548AFF30080BDE8C4
:100200000840FFF7CFBF00BF000000002804002017
:100210008CAF0008A3F5803A704700BF174B002B46
:1002200008BF134B9D46FFF7F5FF00218B460F4695
:100230001348144A121A09F04FF80E4B002B00D045
:1002400098470D4B002B00D0984700200021040058
:100250000D000D48002802D00C48AFF3008009F0D3
:10026000A5F82000290000F0F5F808F097FD00BF80
:1002700000000800E5560008F156000800000220C2
:100280002404002038370120000000000000000096
:1002900080B582B000AF78607B68022B0DD07B68A0
:1002A000022B0CDC7B68002B03D07B68012B02D077
:1002B00005E000230AE0002308E0002306E009F03F
:1002C0006FF8034658221A604FF0FF33184608377C
:1002D000BD4680BD80B584B000AFF860B9607A607B
:1002E000FB68022B0ED0FB68022B0EDCFB68002B98
:1002F00003D0FB68012B02D007E000230CE04FF095
:10030000FF3309E04FF0FF3306E009F049F80346F8
:1003100058221A604FF0FF3318461037BD4680BD93
:1003200080B483B000AF78607B68022B0DD07B680F
:10033000022B0CDC7B68002B03D07B68012B02D0E6
:1003400005E0012304E0012302E0012300E0002393
:1003500018460C37BD4680BC704780B584B000AFEE
:10036000F860B9607A60FB68022B0FD0FB68022B43
:100370000FDCFB68002B03D0FB68012B03D008E0E7
:100380004FF0FF330CE04FF0FF3309E04FF0FF3345
:1003900006E009F005F8034658221A604FF0FF33D3
:1003A00018461037BD4680BD80B582B000AF78607A
:1003B00039607B68022B15D07B68022B18DC7B68C8
:1003C000002B03D07B68012B06D011E03B684FF473
:1003D00000525A60002312E03B684FF400525A600A
:1003E00000230CE03B684FF400525A60002306E003
:1003F00008F0D6FF034658221A604FF0FF33184624
:100400000837BD4680BD80B483B000AF786000BFC0
:10041000FDE7000080B485B000AF786039600B4B19
:100420001B68002B02D1094B094A1A60074B1B6855
:10043000FB60064B1A683B681344044A1360FB6870
:1004400018461437BD4680BC704700BF40040020EA
:100450003837012080B500AF08F082FA00F00CF8C0
:1004600000F0E4F900F016FC00F07CFC00F0A2FCC7
:1004700000F08AF8FCE7000080B594B000AF07F107
:10048000200330220021184608F026FF07F10C0354
:1004900000221A605A609A60DA601A610023BB6019
:1004A000284B1B6C274A43F080531364254B1B6C6D
:1004B00003F08053BB60BB6800237B60224B1B684A
:1004C000214A43F4804313601F4B1B6803F48043AD
:1004D0007B607B6801233B624FF480337B620223A5
:1004E000BB634FF48003FB6304233B64A8237B645A
:1004F0000223BB640723FB6407F12003184606F0C0
:1005000041F80346002B01D000F02DF80F23FB60CB
:1005100002233B6100237B614FF4A053BB614FF486
:100520008053FB6107F10C030521184606F0A2FA7F
:100530000346002B01D000F016F800BF5037BD462F
:1005400080BD00BF003802400070004080B500AFA1
:1005500008F05EFA03F00CF90346012B01D004F019
:1005600073F800BF80BD80B400AF72B600BF00BF9B
:10057000FDE780B582B000AF786039604FF47A70E3
:1005800002F0CCF9FAE7000080B582B002AF1A4B56
:100590000093012300224FF4FA71184803F0D6FBB0
:1005A0000346174A1360164B1B68002B02D01548F0
:1005B00008F032FD144B0093022301224FF47A71AC
:1005C000124803F0C3FB0346114A1360104B1B682B
:1005D000002B02D00F4808F01FFD0F4B01930123A1
:1005E0000093002382220D490D4801F0A8FF02F07C
:1005F00015FA00BFBD4680BDCD0700081CAB000842
:100600005404002024AB0008FD07000840AB00089C
:100610005804002048AB00084404002064AB0008E4
:100620002506000880B584B002AF786003F07CFF37
:10063000154B01930423009300234FF48062134968
:10064000134801F07CFF134B019303230093002315
:100650004FF400721049114801F071FF104B0193E3
:100660000223009300234FF400720E490E4801F05C
:1006700066FF0E4B1B68184602F0ACF803F084FFCF
:1006800000BF0837BD4680BD4804002070AB00089D
:10069000B10600084C04002078AB00084D070008A4
:1006A0005004002080AB00086107000844040020CB
:1006B00080B58AB000AF7860204804F06BFC204918
:1006C000204804F073FC0346002B04D04FF47A70EA
:1006D00002F024F9F3E700BF00220121022004F018
:1006E00073FC786202237B734FF4A043FB817B7B16
:1006F000184607F10C0304331A46134904F010FCA2
:1007000038623B6A002B14DD07F10C030833082222
:100710000021184608F0E0FD07F10C0310221946ED
:10072000786A04F061FCF8614FF4FA7002F0F6F8B0
:10073000FAE700BF2837BD4680BD00BF88AB000880
:1007400094AB0008A0AB0008A8AB000880B582B04D
:1007500000AF78604FF4FA7002F0E0F8FAE70000BA
:1007600080B584B000AF78600023FB7322E0FB7B90
:100770000821184600F09CF80346002B07D0FB7BAD
:10078000002B04D1FB7B19460E4808F0DDFBFB7BF8
:100790001021184600F08CF80346002B07D0FB7B95
:1007A000002B04D1FB7B1946074808F0CDFBFB7BEF
:1007B0000133FB73FB7B002BD9D04FF4FA7002F0AE
:1007C000ADF8D1E7BCAB0008D0AB000880B582B073
:1007D00000AF7860074B1B8801339AB2054B1A8033
:1007E000044B1B881946044808F0AEFB00BF0837CD
:1007F000BD4680BD5C040020E4AB000880B582B03B
:1008000000AF7860074B1B8801339AB2054B1A8002
:10081000044B1B881946044808F096FB00BF0837B4
:10082000BD4680BD5E0400200CAC000880B586B0DB
:1008300000AF00233B600F4B1B6B0E4A43F00103DC
:1008400013630C4B1B6B03F001033B603B680023FD
:10085000BB600123FB604FF400437B6002233B61DC
:100860003B1D1946044805F0DBFC00BF1837BD46A8
:1008700080BD00BF003802400000024080B582B059
:1008800000AF0346FB71FB79002B09D14FF4004107
:10089000064805F05FFE0346002B01D1012300E06E
:1008A000002318460837BD4680BD00BF0000024047
:1008B00080B483B000AF03460A46FB711346BB7198
:1008C000FB79104AD25CBB791340DBB2002B12D00B
:1008D000BB79012B0DD0FB790A4AD35C5AB297F948
:1008E0000630DB435BB213405AB2FB79D1B2054A02
:1008F000D154012300E0002318460C37BD4680BCCC
:10090000704700BF6004002090B583B000AF0023A3
:10091000FB7111E0FB79974A32F81330002B08D0B5
:10092000FB79944A32F81320013A91B2914A22F8A5
:100930001310FB790133FB71FB79002BEAD08E4B4E
:100940001B780133DAB28C4B1A708B4B1B78132B4C
:1009500040F20C81884B00221A700023BB7101E128
:10096000BA79BB798549895C854AD154BC79BB7910
:100970001846FFF783FF03461A46804B1A55BB798A
:100980007E4AD35C012B09D1BB797E4AD25CBB790C
:1009900042F00102D1B27B4AD15408E0BB79794AD6
:1009A000D25CBB7922F00102D1B2764AD154BB7934
:1009B000724AD35C012B0DD1BB79714AD35C002BF9
:1009C00008D1BB796F4AD25CBB7942F00202D1B246
:1009D0006C4AD154BB79694AD35C002B0DD1BB79E9
:1009E000674AD35C012B08D1BB79664AD25CBB79DC
:1009F00042F00402D1B2634AD154BB79624AD35C5B
:100A0000042B7BD0042B00F39C80032B6CD0032B96
:100A100000F39780022B40D0022B00F39280002B32
:100A200002D0012B11D08CE0BB79544AD35C012B4E
:100A300040F08C80BB794F4A4FF47A7122F8131042
:100A4000BB79514A0121D15480E0BB794B4AD35C38
:100A5000002B09D1BB79474AC82122F81310BB7972
:100A6000494A0221D15473E0BB79424A32F813302B
:100A7000002B6DD1BB793F4A642122F81310BB795A
:100A8000404AD25CBB7942F02002D1B23D4AD154F7
:100A9000BB793D4A0421D1545AE0BB79374AD35C33
:100AA000012B0DD1BB79374AD25CBB7942F01002E1
:100AB000D1B2344AD154BB79334A0321D15449E0ED
:100AC000BB792C4A32F81330002B43D1BB792D4A25
:100AD000D25CBB7942F00802D1B22A4AD154BB7928
:100AE000294A0021D15435E0BB79244AD35C002B3C
:100AF00032D1BB79244A0021D1542DE0BB791F4A61
:100B0000D35C002B04D1BB791F4A0021D15425E0CE
:100B1000BB79184A32F81330002B1FD1BB79154A24
:100B2000642122F81310BB79164AD25CBB7942F0DB
:100B30004002D1B2134AD154BB79134A0421D15493
:100B40000CE0BB79104A0021D15408E000BF06E058
:100B500000BF04E000BF02E000BF00E000BFBB79BF
:100B60000133BB71BB79002B3FF4FAAE00BF0C37E9
:100B7000BD4690BD64040020660400206804002087
:100B80006C040020600400207004002080B582B056
:100B900000AF00237B60194B1B6C184A43F0010324
:100BA0001364164B1B6C03F001037B607B68144BD2
:100BB0004FF080421A60124BA7225A60104B00225D
:100BC0009A600F4B0922DA600D4B00221A610C4B20
:100BD00000229A610A4806F07DF90346002B01D0F5
:100BE000FFF7C1FC002205211C2004F0D8FE1C20C8
:100BF00004F0F1FE00BF0837BD4680BD003802405A
:100C00007404002080B582B000AF00237B60194BD4
:100C10001B6C184A43F020031364164B1B6C03F043
:100C200020037B607B68144B144A1A60124B40F21D
:100C30008F625A60104B00229A600F4B6322DA6079
:100C40000D4B00221A610C4B00229A610A4806F0F3
:100C500041F90346002B01D0FFF785FC0022052156
:100C6000372004F09CFE372004F0B5FE00BF0837A3
:100C7000BD4680BD00380240BC0400200014004086
:100C800080B483B000AF786000BF0C37BD4680BC35
:100C90007047000080B500AFFFF778FFFFF7B2FFA5
:100CA000034806F067F9034806F064F900BF80BD09
:100CB000BC0400207404002080B500AF024806F098
:100CC000C7F900BF80BD00BF7404002080B500AF2D
:100CD000024806F0BDF900BF80BD00BFBC04002083
:100CE00080B582B000AF78607B681B68094A934288
:100CF00001D1FFF709FE7B681B68B3F1804F04D177
:100D0000054B1B680133044A136000BF0837BD461A
:100D100080BD00BF001400400405002080B584B0F1
:100D200000AFF860B9607A60FB68012B02D0FB6805
:100D3000022B09D17B689AB24FF0FF33B96808489B
:100D400006F094FB7B6806E008F02AFB03460922C4
:100D50001A604FF0FF3318461037BD4680BD00BF04
:100D60000805002080B582B000AF00237B60104BE7
:100D70001B6B0F4A43F4800313630D4B1B6B03F48F
:100D800080037B607B68002206213A2004F007FE86
:100D90003A2004F020FE00220621462004F0FFFD48
:100DA000462004F018FE00BF0837BD4680BD00BFD6
:100DB0000038024080B500AF114B124A1A60104B48
:100DC0004FF4E1325A600E4B00229A600C4B002225
:100DD000DA600B4B00221A61094B0C225A61084B56
:100DE00000229A61064B0022DA61054806F0EEFA0D
:100DF0000346002B01D0FFF7B6FB00BF80BD00BF4C
:100E0000080500200010014080B58AB000AF78606E
:100E100007F1140300221A605A609A60DA601A61BE
:100E20007B681B684C4A934240F0918000233B61F1
:100E30004A4B5B6C494A43F010035364474B5B6C6D
:100E400003F010033B613B690023FB60434B1B6BCA
:100E5000424A43F001031363404B1B6B03F0010351
:100E6000FB60FB684FF4C0637B610223BB6100231E
:100E7000FB6103233B6207237B6207F114031946DE
:100E8000374805F0CDF9374B374A1A60354B4FF0EC
:100E900000625A60334B00229A60324B0022DA60C3
:100EA000304B4FF480621A612E4B00225A612D4B59
:100EB00000229A612B4B0022DA612A4B00221A622F
:100EC000284B00225A62274804F0A0FD0346002B5D
:100ED00001D0FFF748FB7B68224ADA63214A7B682E
:100EE0009363224B224A1A60204B4FF000625A60F3
:100EF0001E4B40229A601D4B0022DA601B4B4FF4C0
:100F000080621A61194B00225A61184B00229A61C3
:100F1000164B0022DA61154B00221A62134B002295
:100F20005A62124804F072FD0346002B01D0FFF70D
:100F30001AFB7B680D4A9A630C4A7B689363002214
:100F40000621252004F02BFD252004F044FD00BFE0
:100F50002837BD4680BD00BF001001400038024068
:100F6000000002405005002040640240B00500200F
:100F7000B864024080B500AF024806F0D1FB00BF64
:100F800080BD00BF0805002080B500AF024804F016
:100F9000D5FE00BF80BD00BF5005002080B500AF6A
:100FA000024804F0CBFE00BF80BD00BFB0050020AA
:100FB00080B584B000AF7860094B1B69FB607B682B
:100FC000084A934208D1FB681868FB6810334FF455
:100FD0000072194606F046FB00BF1037BD4680BDC3
:100FE000000000200805002080B584B000AF7860C4
:100FF0000023BB607B680E4A934215D10D4B1B69E1
:10100000FB60FB685B6807F108021146184600F0B8
:101010003EFDBB68002B07D0074B4FF080521A6093
:10102000BFF34F8FBFF36F8F00BF1037BD4680BD3A
:10103000080500200000002004ED00E080B586B027
:1010400000AF78607B689B8D1A467B68DB8D9BB216
:10105000D31A3B610023BB607B681A4A93422CD1B0
:10106000194B1B69FB6000237B610DE0FB68D868AE
:101070007B691033FA68D11807F10802002300F0E9
:1010800039FC7B6901337B617A693B699A42EDDB0C
:10109000FB681868FB6803F110017B689B8D1A469A
:1010A00006F0E0FABB68002B07D0084B4FF08052E7
:1010B0001A60BFF34F8FBFF36F8F00BF1837BD4665
:1010C00080BD00BF080500200000002004ED00E006
:1010D00080B586B000AF78600B467B800023BB6094
:1010E0007B883B617B68234A93423ED1224B1B693C
:1010F000FB60FB68D3F810327B610DE0FB68D868B9
:101100007B691033FA68D11807F10802002300F058
:10111000F1FB7B6901337B617A693B699A42EDDBC4
:10112000FB687A69C3F810227B685B6B022B03D0E3
:101130007B685B6B002B0DD1FB681868FB6803F1C3
:1011400010017B689B8D1A4606F08CFAFB68002222
:10115000C3F81022BB68002B07D0084B4FF0805219
:101160001A60BFF34F8FBFF36F8F00BF1837BD46B4
:1011700080BD00BF080500200000002004ED00E055
:1011800080B586B000AFF860B9607A60FB70FFF799
:1011900011FEFB681B697B61012000F074FA0246B6
:1011A0007B699A6003220021012000F0DDF90246EC
:1011B0007B695A60002201214FF4007000F0D4F9DD
:1011C00002467B69DA607B6918687B6910334FF4EB
:1011D0000072194606F046FA002318461837BD4635
:1011E00080BD80B586B000AFF860B9607A603B60C2
:1011F000FB681B697B617B699B683A6811461846EE
:1012000000F0E0FD0346012B02D04FF0FF3323E056
:101210007B691B687A6892B2B968184606F0B2F921
:101220007B695B683A681146184600F0CBFD0346BF
:10123000012B08D17B69986800230022002100F06F
:101240003BFA002308E07B69986800230022002114
:1012500000F032FA4FF0FF3318461837BD4680BD14
:1012600080B586B000AFF860B9607A60FB681B6932
:101270007B617B69DB687A68B968184600F0C0FC5E
:101280000346012B01D1002301E04FF0FF33184644
:101290001837BD4680BD000080B584B000AF7860CF
:1012A0000023FB7313E0FB7B0D4A52F823301B68CD
:1012B0001946786808F0A1F80346002B04D1FB7B9F
:1012C000074A52F8233006E0FB7B0133FB73FB7BBC
:1012D000002BE8D0002318461037BD4680BD00BF64
:1012E0002802002080B483B000AF78607B6803F1EF
:1012F00008027B685A607B684FF0FF329A607B6817
:1013000003F108027B68DA607B6803F108027B68FE
:101310001A617B6800221A6000BF0C37BD4680BC92
:10132000704780B483B000AF78607B6800221A6198
:1013300000BF0C37BD4680BC704780B485B000AF9D
:10134000786039607B685B68FB603B68FA685A606C
:10135000FB689A683B689A60FB689B683A685A60C9
:10136000FB683A689A603B687A681A617B681B6818
:101370005A1C7B681A6000BF1437BD4680BC70479A
:1013800080B485B000AF786039603B681B68BB6093
:10139000BB68B3F1FF3F03D17B681B69FB600CE0C6
:1013A0007B680833FB6002E0FB685B68FB60FB68FE
:1013B0005B681B68BA689A42F6D2FB685A683B6859
:1013C0005A603B685B683A689A603B68FA689A6062
:1013D000FB683A685A603B687A681A617B681B68E8
:1013E0005A1C7B681A6000BF1437BD4680BC70472A
:1013F00080B485B000AF78607B681B69FB607B6858
:101400005B687A6892689A607B689B687A685268C1
:101410005A60FB685B687A689A4203D17B689A6875
:10142000FB685A607B6800221A61FB681B685A1EC1
:10143000FB681A60FB681B6818461437BD4680BC01
:101440007047000080B586B000AF78603960012336
:101450007B617B683B613B69002B0BD14FF05003F4
:1014600083F31188BFF36F8FBFF34F8FFB6000BF13
:1014700000BFFDE73B69002B5DD03B69DB6B002BB8
:1014800059D03B691A6C3B69DB6B0021A3FB02233B
:10149000002B00D001210B46002B4CD103F044F867
:1014A0003B691A683B69DB6B3969096C01FB03F323
:1014B0001A443B699A603B6900229A633B691A6847
:1014C0003B695A603B691A683B69DB6B013B3969D0
:1014D000096C01FB03F31A443B69DA603B69FF22A4
:1014E00083F844203B69FF2283F845203B68002BAA
:1014F00014D13B691B69002B1AD03B691033184685
:1015000001F0C4FE0346002B12D0164B4FF0805260
:101510001A60BFF34F8FBFF36F8F09E03B69103341
:101520001846FFF7DFFE3B6924331846FFF7DAFE63
:1015300003F02AF801E000237B617B69002B0BD1CB
:101540004FF0500383F31188BFF36F8FBFF34F8FBA
:10155000BB6000BF00BFFDE77B6918461837BD467A
:1015600080BD00BF04ED00E080B58AB002AFF86036
:10157000B9601346FB710023FB61FB68002B2ED082
:101580000021BA68FB68A3FB0223002B00D00121D5
:101590000B46002B23D1FB68BA6802FB03F313F15F
:1015A000550F1CD8FB68BA6802FB03F3BB61BB692B
:1015B0005433184603F0B0F9F861FB69002B1DD0D5
:1015C000FB697B617B6954337B61FA79FB6900932A
:1015D00013467A69B968F86800F015F80EE0FB69FF
:1015E000002B0BD14FF0500383F31188BFF36F8FA3
:1015F000BFF34F8F3B6100BF00BFFDE7FB6918469B
:101600002037BD4680BD80B584B000AFF860B960BA
:101610007A60FB70BB68002B03D1BB69BA691A60A2
:1016200002E0BB697A681A60BB69FA68DA63BB6971
:10163000BA681A640121B869FFF704FFBB69FA7838
:1016400083F85020BB6900229A6400BF1037BD4662
:1016500080BD80B582B000AF78607B68002B0ED073
:101660007B6800229A607B6800221A607B680022F7
:10167000DA60002300220021786800F01DF800BF26
:101680000837BD4680BD80B586B000AF0346FB710C
:1016900001237B6100233B61FB791A463969786934
:1016A000FFF762FFF860F868FFF7D3FFFB681846A2
:1016B0001837BD4680BD000080B58EB000AFF86021
:1016C000B9607A603B6000237B63FB683B633B6BE4
:1016D000002B0BD14FF0500383F31188BFF36F8FB2
:1016E000BFF34F8F7B6200BF00BFFDE7BB68002BDD
:1016F00003D13B6B1B6C002B01D1012300E00023C5
:10170000002B0BD14FF0500383F31188BFF36F8F81
:10171000BFF34F8F3B6200BF00BFFDE73B68022B6A
:1017200003D13B6BDB6B012B01D1012300E00023D4
:10173000002B0BD14FF0500383F31188BFF36F8F51
:10174000BFF34F8FFB6100BF00BFFDE702F010F851
:101750000346002B02D17B68002B01D1012300E05E
:101760000023002B0BD14FF0500383F31188BFF3FC
:101770006F8FBFF34F8FBB6100BF00BFFDE702F06B
:10178000D3FE3B6B9A6B3B6BDB6B9A4202D33B689D
:10179000022B45D13B6B9B6BFB623A68B968386B97
:1017A00000F046FCB8623B6B9B6C002B14D03B688E
:1017B000022B02D1FB6A002B2ED1386B00F010FEF9
:1017C0000346002B28D04A4B4FF080521A60BFF3DB
:1017D0004F8FBFF36F8F1FE03B6B5B6A002B10D006
:1017E0003B6B2433184601F051FD0346002B13D008
:1017F0003F4B4FF080521A60BFF34F8FBFF36F8F94
:101800000AE0BB6A002B07D0394B4FF080521A60B8
:10181000BFF34F8FBFF36F8F02F0B6FE012363E07B
:101820007B68002B03D102F0AFFE00235CE07B6BF2
:10183000002B06D107F11003184601F001FE012329
:101840007B6302F0A1FE01F033F902F06DFE3B6B09
:1018500093F844305BB2B3F1FF3F03D13B6B0022FE
:1018600083F844203B6B93F845305BB2B3F1FF3F04
:1018700003D13B6B002283F8452002F085FE3A1D20
:1018800007F110031146184601F0F0FD0346002B46
:1018900024D1386B00F0D1FC0346002B18D03B6BF1
:1018A00010337A681146184601F084FC386B00F05A
:1018B0004FFC01F047F90346002B7FF460AF0C4B5F
:1018C0004FF080521A60BFF34F8FBFF36F8F56E710
:1018D000386B00F03DFC01F035F950E7386B00F053
:1018E00037FC01F02FF9002318463837BD4680BD7C
:1018F00004ED00E080B592B000AFF860B9607A60A6
:101900003B60FB683B643B6C002B0BD14FF05003FA
:1019100083F31188BFF36F8FBFF34F8FFB6200BF5C
:1019200000BFFDE7BB68002B03D13B6C1B6C002B99
:1019300001D1012300E00023002B0BD14FF0500315
:1019400083F31188BFF36F8FBFF34F8FBB6200BF6C
:1019500000BFFDE73B68022B03D13B6CDB6B012B27
:1019600001D1012300E00023002B0BD14FF05003E5
:1019700083F31188BFF36F8FBFF34F8F7B6200BF7C
:1019800000BFFDE702F088FFEFF311824FF0500334
:1019900083F31188BFF36F8FBFF34F8F3A62FB6100
:1019A0003B6AFB633B6C9A6B3B6CDB6B9A4202D3EA
:1019B0003B68022B5ED13B6C93F8453087F83B3097
:1019C0003B6C9B6B7B633A68B968386C00F030FB0A
:1019D00097F93B30B3F1FF3F29D13B6C9B6C002B57
:1019E00012D03B68022B02D17B6B002B3FD1386CAD
:1019F00000F0F6FC0346002B39D07B68002B36D074
:101A00007B6801221A6032E03B6C5B6A002B2ED0AF
:101A10003B6C2433184601F039FC0346002B26D0DA
:101A20007B68002B23D07B6801221A601FE001F045
:101A30009FF9386397F93B303A6B9A4217D997F977
:101A40003B307F2B0BD14FF0500383F31188BFF352
:101A50006F8FBFF34F8FBB6100BF00BFFDE797F8EB
:101A60003B300133DBB25AB23B6C83F84520012393
:101A70007B6401E000237B64FB6B7B617B6983F308
:101A8000118800BF7B6C18464837BD4680BD80B5C5
:101A900090B000AF786039607B68BB63BB6B002B94
:101AA0000BD14FF0500383F31188BFF36F8FBFF357
:101AB0004F8F7B6200BF00BFFDE7BB6B1B6C002B31
:101AC0000BD04FF0500383F31188BFF36F8FBFF338
:101AD0004F8F3B6200BF00BFFDE7BB6B1B68002B55
:101AE00003D1BB6B9B68002B01D1012300E00023D5
:101AF000002B0BD14FF0500383F31188BFF36F8F8E
:101B0000BFF34F8FFB6100BF00BFFDE702F0C4FED3
:101B1000EFF311824FF0500383F31188BFF36F8FFF
:101B2000BFF34F8FBA617B61BB697B63BB6B9B6B00
:101B30003B63BB6BDB6B3A6B9A4254D2BB6B93F843
:101B4000453087F82F303B6B5A1CBB6B9A6397F973
:101B50002F30B3F1FF3F23D1BB6B9B6C002B0CD01C
:101B6000B86B00F03DFC0346002B39D03B68002BDE
:101B700036D03B6801221A6032E0BB6B5B6A002BF7
:101B80002ED0BB6B2433184601F080FB0346002B9C
:101B900026D03B68002B23D03B6801221A601FE04F
:101BA00001F0E6F8B86297F92F30BA6A9A4217D96D
:101BB00097F92F307F2B0BD14FF0500383F311880F
:101BC000BFF36F8FBFF34F8F3B6100BF00BFFDE7D7
:101BD00097F82F300133DBB25AB2BB6B83F8452044
:101BE0000123FB6301E00023FB637B6BFB60FB686D
:101BF00083F3118800BFFB6B18464037BD4680BD9C
:101C000080B58CB000AFF860B9607A600023FB62E9
:101C1000FB68BB62BB6A002B0BD14FF0500383F310
:101C20001188BFF36F8FBFF34F8F3B6200BF00BFC0
:101C3000FDE7BB68002B03D1BB6A1B6C002B01D1F5
:101C4000012300E00023002B0BD14FF0500383F35E
:101C50001188BFF36F8FBFF34F8FFB6100BF00BFD1
:101C6000FDE701F085FD0346002B02D17B68002BC8
:101C700001D1012300E00023002B0BD14FF05003D2
:101C800083F31188BFF36F8FBFF34F8FBB6100BF2A
:101C900000BFFDE702F048FCBB6A9B6B7B627B6A7E
:101CA000002B1FD0B968B86A00F02CFA7B6A5A1E64
:101CB000BB6A9A63BB6A1B69002B0FD0BB6A1033E7
:101CC000184601F0E3FA0346002B07D03C4B4FF0D7
:101CD00080521A60BFF34F8FBFF36F8F02F054FC36
:101CE000012369E07B68002B03D102F04DFC002347
:101CF00062E0FB6A002B06D107F11003184601F0E1
:101D00009FFB0123FB6202F03FFC00F0D1FE02F0DA
:101D10000BFCBB6A93F844305BB2B3F1FF3F03D1D5
:101D2000BB6A002283F84420BB6A93F845305BB25B
:101D3000B3F1FF3F03D1BB6A002283F8452002F0D4
:101D400023FC3A1D07F110031146184601F08EFBE3
:101D50000346002B23D1B86A00F059FA0346002B42
:101D600017D0BB6A24337A681146184601F022FA6C
:101D7000B86A00F0EDF900F0E5FE0346002B89D1CA
:101D80000F4B4FF080521A60BFF34F8FBFF36F8F2E
:101D900080E7B86A00F0DCF900F0D4FE7AE7B86AB0
:101DA00000F0D6F900F0CEFEB86A00F030FA034633
:101DB000002B3FF46FAF002318463037BD4680BD7F
:101DC00004ED00E080B58CB000AF7860396000238E
:101DD000FB627B687B620023BB627B6A002B0BD1BA
:101DE0004FF0500383F31188BFF36F8FBFF34F8F12
:101DF000BB6100BF00BFFDE77B6A1B6C002B0BD0F3
:101E00004FF0500383F31188BFF36F8FBFF34F8FF1
:101E10007B6100BF00BFFDE701F0AAFC0346002B79
:101E200002D13B68002B01D1012300E00023002BED
:101E30000BD14FF0500383F31188BFF36F8FBFF3C3
:101E40004F8F3B6100BF00BFFDE702F06DFB7B6A77
:101E50009B6B3B623B6A002B24D03B6A5A1E7B6A19
:101E60009A637B6A1B68002B04D101F0A3FE024633
:101E70007B6A9A607B6A1B69002B0FD07B6A1033E8
:101E8000184601F003FA0346002B07D04C4B4FF0E5
:101E900080521A60BFF34F8FBFF36F8F02F074FB55
:101EA000012389E03B68002B03D102F06DFB002386
:101EB00082E0FB6A002B06D107F10803184601F007
:101EC000BFFA0123FB6202F05FFB00F0F1FD02F0BC
:101ED0002BFB7B6A93F844305BB2B3F1FF3F03D135
:101EE0007B6A002283F844207B6A93F845305BB21A
:101EF000B3F1FF3F03D17B6A002283F8452002F053
:101F000043FB3A4607F108031146184601F0AEFAC2
:101F10000346002B32D1786A00F079F90346002B92
:101F200026D07B6A1B68002B09D102F0FDFA7B6A80
:101F30009B68184601F03AFCB86202F025FB7B6A08
:101F400024333A681146184601F034F9786A00F0F3
:101F5000FFF800F0F7FD0346002B7FF476AF184B37
:101F60004FF080521A60BFF34F8FBFF36F8F6CE753
:101F7000786A00F0EDF800F0E5FD66E7786A00F0B9
:101F8000E7F800F0DFFD786A00F041F90346002B26
:101F90003FF45BAFBB6A002B0DD002F0C5FA786A44
:101FA00000F02FF8F8617B6A9B68F969184601F028
:101FB00045FD02F0E9FA002318463037BD4680BDE2
:101FC00004ED00E080B584B000AF78607B68FB6012
:101FD000FB68002B0BD14FF0500383F31188BFF344
:101FE0006F8FBFF34F8FBB6000BF00BFFDE7F86886
:101FF00000F08AF9F86802F0C1FD00BF1037BD4655
:1020000080BD80B485B000AF78607B685B6A002BD0
:1020100006D07B681B6B1B68C3F12003FB6001E0EB
:102020000023FB60FB6818461437BD4680BC704730
:1020300080B586B000AFF860B9607A6000237B613C
:10204000FB689B6B3B61FB681B6C002B0DD1FB6835
:102050001B68002B4DD1FB689B68184601F046FCBD
:102060007861FB6800229A6043E07B68002B19D1FD
:10207000FB685868FB681B6C1A46B96807F018FAC9
:10208000FB685A68FB681B6C1A44FB685A60FB6863
:102090005A68FB689B689A422BD3FB681A68FB68F6
:1020A0005A6026E0FB68D868FB681B6C1A46B96862
:1020B00007F0FEF9FB68DA68FB681B6C5B421A44A8
:1020C000FB68DA60FB68DA68FB681B689A4207D233
:1020D000FB689A68FB681B6C5B421A44FB68DA6019
:1020E0007B68022B05D13B69002B02D03B69013B89
:1020F0003B613B695A1CFB689A637B691846183739
:10210000BD4680BD80B582B000AF786039607B6825
:102110001B6C002B18D07B68DA687B681B6C1A4438
:102120007B68DA607B68DA687B689B689A4203D3D5
:102130007B681A687B68DA607B68D9687B681B6C8F
:102140001A46386807F0B4F900BF0837BD4680BDAD
:1021500080B584B000AF786002F0E6F97B6893F850
:102160004530FB731EE07B689B6C002B08D07868C1
:1021700000F036F90346002B10D001F0DFF90DE036
:102180007B685B6A002B12D07B682433184601F011
:102190007DF80346002B01D001F0D0F9FB7B013B19
:1021A000DBB2FB7397F90F30002BDCDC00E000BFE3
:1021B0007B68FF2283F8452002F0E6F902F0B4F9CB
:1021C0007B6893F84430BB7311E07B681B69002B7C
:1021D00012D07B681033184601F058F80346002BE4
:1021E00001D001F0ABF9BB7B013BDBB2BB7397F9CC
:1021F0000E30002BE9DC00E000BF7B68FF2283F893
:10220000442002F0C1F900BF1037BD4680BD80B543
:1022100084B000AF786002F087F97B689B6B002B7D
:1022200002D10123FB6001E00023FB6002F0ACF966
:10223000FB6818461037BD4680BD80B584B000AF3E
:10224000786002F071F97B689A6B7B68DB6B9A426D
:1022500002D10123FB6001E00023FB6002F094F94E
:10226000FB6818461037BD4680BD000080B487B0BB
:1022700000AF7860396000233B617B68002B0BD195
:102280004FF0500383F31188BFF36F8FBFF34F8F6D
:10229000FB6000BF00BFFDE73B68002B24D000239C
:1022A0007B611EE0174A7B69DB0013445B687A6838
:1022B0009A4205D17B69DB00124A13443B6113E06B
:1022C0003B69002B0AD10F4A7B6952F83330002B4F
:1022D00004D17B69DB000B4A13443B617B6901330A
:1022E0007B617B69072BDDD93B69002B05D03B69FE
:1022F0003A681A603B697A685A6000BF1C37BD466D
:1023000080BC70471006002080B485B000AF7860B4
:102310007B68002B0BD14FF0500383F31188BFF380
:102320006F8FBFF34F8FBB6000BF00BFFDE700237F
:10233000FB6016E00F4AFB68DB0013445B687A68B9
:102340009A420BD10B4AFB68002142F83310094A2C
:10235000FB68DB00134400225A6006E0FB6801338F
:10236000FB60FB68072BE5D900BF00BF1437BD46F3
:1023700080BC70471006002080B586B000AFF860C2
:10238000B9607A60FB687B6102F0CEF87B6993F8F4
:1023900044305BB2B3F1FF3F03D17B69002283F885
:1023A00044207B6993F845305BB2B3F1FF3F03D122
:1023B0007B69002283F8452002F0E6F87B699B6B7D
:1023C000002B06D17B6924337A68B968184600F07F
:1023D00017FF7869FFF7BCFE00BF1837BD4680BD08
:1023E00080B58AB000AF78607B689B6C3B6200234D
:1023F0007B623B6A002B0BD14FF0500383F31188B3
:10240000BFF36F8FBFF34F8F7B6100BF00BFFDE74E
:102410003B6A9A6B3B6ADB6B9A420BD34FF05003DB
:1024200083F31188BFF36F8FBFF34F8F3B6100BF02
:1024300000BFFDE73B6A9A6B3B6ADB6B9A423DD279
:102440003B6A93F84530FB773B1D00221946386AFA
:10245000FFF7EEFD786297F91F30B3F1FF3F0ED121
:102460003B6A5B6A002B29D03B6A2433184600F094
:102470000DFF0346002B21D001237B621EE000F0FC
:1024800077FCB86197F91F30BA699A4216D997F963
:102490001F307F2B0BD14FF0500383F31188BFF314
:1024A0006F8FBFF34F8FFB6000BF00BFFDE7FB7F67
:1024B0000133DBB25AB23B6A83F845207B6A184687
:1024C0002837BD4680BD80B58AB004AFF860B960DA
:1024D0007A603B607B689B00184602F01DFA386109
:1024E0003B69002B13D0602002F016FA78617B69FB
:1024F000002B08D060220021786906F0EDFE7B6990
:102500003A691A6305E0386902F038FB01E00023FC
:102510007B617B69002B0DD0002303937B690293C1
:102520007B6A01933B6A00933B687A68B968F868F4
:1025300000F028F87B6918461837BD4680BD80B585
:1025400088B002AFF860B9607A603B607B6A019343
:102550003B6A00933B687A68B968F868FFF7B3FF95
:1025600038613B69002B05D0386900F09BF80123E6
:102570007B6102E04FF0FF337B617B6918461837BF
:10258000BD4680BD80B588B000AFF860B9607A60A4
:102590003B603B6B186B7B689B001A46A52106F0DD
:1025A0009BFE3B6B1A6B7B6803F18043013B9B00F6
:1025B0001344BB61BB6923F00703BB61BB6903F034
:1025C0000703002B0BD04FF0500383F31188BFF3A8
:1025D0006F8FBFF34F8F7B6100BF00BFFDE7BB680C
:1025E000002B1ED00023FB6112E0BA68FB69134484
:1025F00019783A6BFB69134434330A461A70BA6887
:10260000FB6913441B78002B06D0FB690133FB6187
:10261000FB690F2BE9D900E000BF3B6B002283F878
:102620004320BB6A1F2B0BD94FF0500383F3118853
:10263000BFF36F8FBFF34F8F3B6100BF00BFFDE75C
:10264000BB6A1F2B01D91F23BB623B6BBA6ADA62DC
:102650003B6BBA6ADA643B6B04331846FEF761FEE3
:102660003B6B18331846FEF75CFE3B6B3A6B1A6106
:10267000BB6AC3F120023B6B9A613B6B3A6B5A62B7
:102680003A68F968B86901F01FFE02463B6B1A60B0
:10269000FB6A002B02D0FB6A3A6B1A6000BF20373E
:1026A000BD4680BD80B584B000AF786001F03CFFCE
:1026B000414B1B680133404A1360404B1B68002BA1
:1026C00009D13E4A7B6813603B4B1B68012B10D13C
:1026D00000F0B6FF0DE03A4B1B68002B09D1374BD9
:1026E0001B68DA6A7B68DB6A9A4202D8334A7B68E5
:1026F0001360344B1B680133324A1360314B1A6844
:102700007B685A647B68DB6A01229A402E4B1B6807
:1027100013432D4A13607B68DA6A2C4913469B00E9
:1027200013449B000B4404331B68FB607B68FA680E
:102730009A60FB689A687B68DA60FB689B687A68D5
:1027400004325A607B681A1DFB689A607B68DA6AFB
:1027500013469B0013449B001C4A1A447B685A6131
:102760007B68DA6A194913469B0013449B000B44AB
:102770001B687A68D26A591C144813469B0013449C
:102780009B000344196001F0FFFE0D4B1B68002BFA
:102790000ED00A4B1B68DA6A7B68DB6A9A4207D262
:1027A0000B4B4FF080521A60BFF34F8FBFF36F8F08
:1027B00000BF1037BD4680BD4409002050060020F0
:1027C00050090020600900204C0900205406002018
:1027D00004ED00E080B586B000AF786000233B6177
:1027E00001F0A2FE7B68002B03D1424B1B687B618A
:1027F00001E07B687B617B6904331846FEF7F8FDD6
:102800000346002B15D17B69DA6A3B4913469B00CE
:1028100013449B000B441B68002B0AD17B69DB6AC5
:10282000012202FA03F3DA43344B1B681340334AA4
:1028300013607B699B6A002B04D07B6918331846B0
:10284000FEF7D6FD2E4B1B6801332D4A1360294B32
:102850001B687A699A4202D10123FB6001E00023E0
:10286000FB60284B1B68002B10D0FB68002B0DD0A1
:102870007B69043319462448FEF75FFD234B1B6830
:102880000133224A136001233B6106E0204B1B68A1
:10289000013B1F4A136000F051FF01F075FE3B69D8
:1028A000012B02D0786900F039FF164B1B68002B12
:1028B0001CD0104B1B687A699A4217D1154B1B68C4
:1028C000002B0BD04FF0500383F31188BFF36F8FB1
:1028D000BFF34F8FBB6000BF00BFFDE70E4B4FF053
:1028E00080521A60BFF34F8FBFF36F8F00BF18374E
:1028F000BD4680BD50060020540600204C09002033
:102900006009002050090020180900202C0900202F
:10291000440900206C09002004ED00E080B584B07B
:1029200000AF78600023FB607B68002B18D000F0BC
:10293000BFF8134B1B68012B0BD04FF0500383F3F0
:102940001188BFF36F8FBFF34F8FBB6000BF00BF15
:10295000FDE70021786801F043F900F0F3F8F86032
:10296000FB68002B07D1074B4FF080521A60BFF372
:102970004F8FBFF36F8F00BF1037BD4680BD00BFC4
:102980006C09002004ED00E080B58AB002AF01239D
:10299000FB6100233B6100237B6111E01C4A7B69E2
:1029A000134419783A467B6913440A461A703A462A
:1029B0007B6913441B78002B06D07B6901337B6154
:1029C0007B690F2BEADD00E000BF0023BB6115E04F
:1029D000104B3B61BB699B000F4A1344394601937E
:1029E00000230093002382223869FFF7A8FDF861D5
:1029F000FB69002B06D0BB690133BB61BB69002BAF
:102A0000E6DD00E000BFFB6918462037BD4680BD0B
:102A100044AC0008553500086809002080B584B032
:102A200000AFFFF7B1FFF860FB68012B02D101F0A6
:102A300059F9F860FB68012B19D14FF0500383F36B
:102A40001188BFF36F8FBFF34F8FBB6000BF134B75
:102A50004FF0FF321A60124B01221A60114B002214
:102A60001A60114B00221A6001F0BCFC0FE0FB68F9
:102A7000B3F1FF3F0BD14FF0500383F31188BFF345
:102A80006F8FBFF34F8F7B6000BF00BFFDE7074B29
:102A90001B6800BF1037BD4680BD00BF6409002021
:102AA00050090020480900200405002040AC00081F
:102AB00080B400AF044B1B680133034A136000BFAE
:102AC000BD4680BC704700BF6C09002080B485B053
:102AD00000AF0023BB6001237B60154B1B687A6845
:102AE0009A4201D20123BB60124B1B68DB6A002BA8
:102AF00002D00023FB6014E00F4B1B68012B02D9AE
:102B00000023FB600DE0BB68002B02D00023FB60BC
:102B100007E00A4B1B68FB60094B1B68FA68D31A75
:102B2000FB60FB6818461437BD4680BC704700BF89
:102B30004C090020500600205406002064090020A3
:102B40004809002080B588B000AF0023FB61002356
:102B5000BB6101F0E9FC00233B61754B1B68002B56
:102B60000BD14FF0500383F31188BFF36F8FBFF386
:102B70004F8F3B6000BF00BFFDE76D4B1B68013B03
:102B80006B4A13606A4B1B68002B40F0CA80694B8C
:102B90001B68002B00F0C5808EE0674BDB68DB68AC
:102BA000FB61FB699B6AFB60FB69DB69FA69126A7E
:102BB0009A60FB691B6AFA69D2695A60FB685A68B5
:102BC000FB6918339A4203D1FB691A6AFB685A60A1
:102BD000FB6900229A62FB681B685A1EFB681A6038
:102BE000FB695B69BB60FB699B68FA69D2689A60A4
:102BF000FB69DB68FA6992685A60BB685A68FB69CE
:102C000004339A4203D1FB69DA68BB685A60FB69F6
:102C100000225A61BB681B685A1EBB681A60FB69B8
:102C2000DB6A01229A40454B1B681343434A1360F9
:102C3000FB69DA6A424913469B0013449B000B442C
:102C400004331B687B60FB697A689A607B689A68CA
:102C5000FB69DA607B689B68FA6904325A60FB6939
:102C60001A1D7B689A60FB69DA6A13469B0013445D
:102C70009B00334A1A44FB695A61FB69DA6A30499E
:102C800013469B0013449B000B441B68FA69D26AED
:102C9000591C2B4813469B0013449B0003441960A6
:102CA000FB69DA6A274B1B68DB6A9A4204D9264A19
:102CB0003B69012142F823101F4B1B68002B7FF456
:102CC0006CAFFB69002B01D000F038FD1F4B1B6877
:102CD0007B617B69002B12D000F0B0F80346002B1B
:102CE00004D0194A3B69012142F823107B69013B5A
:102CF0007B617B69002BEFD1144B00221A60124AD2
:102D00003B6952F82330002B0BD00123BB610D4BE4
:102D10001B680F4B4FF080521A60BFF34F8FBFF309
:102D20006F8F01F031FCBB6918462037BD4680BD6E
:102D30006C09002044090020040900204C090020EF
:102D40005406002050060020580900205409002095
:102D500004ED00E080B483B000AF044B1B687B60DF
:102D60007B6818460C37BD4680BC70474809002078
:102D700080B400AF024B1B681846BD4680BC70474C
:102D80004409002080B586B000AF7860274B1B68EF
:102D90007A6813447B61264B1B687A699A420BD987
:102DA0004FF0500383F31188BFF36F8FBFF34F8F42
:102DB0003B6100BF00BFFDE71D4B1B687A699A426B
:102DC0002AD11C4B1B68002B0BD14FF0500383F30F
:102DD0001188BFF36F8FBFF34F8FFB6000BF00BF41
:102DE000FDE77B68002B0BD14FF0500383F3118874
:102DF000BFF36F8FBFF34F8FBB6000BF00BFFDE716
:102E000001F092FB0C4B1B6801330B4A136001F07D
:102E1000BBFB7B68013B7B60044B1A687B681344F7
:102E2000024A136000BF1837BD4680BD4809002024
:102E3000640900206C0900205409002080B58AB084
:102E400000AF00237B627F4B1B68002B40F0EF80BC
:102E50007D4B1B6801333B627B4A3B6A13603B6AD4
:102E6000002B21D1794B1B681B68002B0BD04FF036
:102E7000500383F31188BFF36F8FBFF34F8F7B60D5
:102E800000BF00BFFDE7714B1B68FB61704B1B6807
:102E90006E4A13606E4AFB6913606E4B1B68013308
:102EA0006C4A136000F04AFC6B4B1B683A6A9A420A
:102EB000C0F0A880654B1B681B68002B04D1664BD3
:102EC0004FF0FF321A609DE0604B1B68DB68DB68E7
:102ED000BB61BB695B687B613A6A7B699A4203D2DA
:102EE0005D4A7B6913608DE0BB695B693B61BB69CF
:102EF0009B68BA69D2689A60BB69DB68BA699268F4
:102F00005A603B695A68BB6904339A4203D1BB6972
:102F1000DA683B695A60BB6900225A613B691B68E9
:102F20005A1E3B691A60BB699B6A002B1ED0BB69A5
:102F30009B6AFB60BB69DB69BA69126A9A60BB690C
:102F40001B6ABA69D2695A60FB685A68BB69183350
:102F50009A4203D1BB691A6AFB685A60BB690022B6
:102F60009A62FB681B685A1EFB681A60BB69DB6AC1
:102F700001229A40394B1B681343384A1360BB69DE
:102F8000DA6A374913469B0013449B000B44043311
:102F90001B68BB60BB69BA689A60BB689A68BB690A
:102FA000DA60BB689B68BA6904325A60BB691A1D53
:102FB000BB689A60BB69DA6A13469B0013449B00A6
:102FC000274A1A44BB695A61BB69DA6A2449134625
:102FD0009B0013449B000B441B68BA69D26A591CBE
:102FE0001F4813469B0013449B0003441960BB69B0
:102FF000DA6A1C4B1B68DB6A9A427FF65BAF0123DF
:103000007B6257E7174B1B68DA6A154913469B002A
:1030100013449B000B441B68012B01D901237B62E5
:10302000114B1B68002B07D001237B6204E00F4B80
:103030001B6801330D4A13607B6A18462837BD466A
:1030400080BD00BF6C09002048090020FC0800205A
:10305000000900205C090020640900204C090020C0
:103060005406002050060020580900205409002072
:1030700080B588B000AF474B1B68002B03D0464B90
:1030800001221A6081E0444B00221A60434B1B6806
:10309000434A1360424B1A68424B1B689A4209D953
:1030A0003F4B1A683F4B1B68D11A3F4B1B685A6D48
:1030B0000A445A653A4B1B683A4A13603A4B1B68FC
:1030C0001B6BFB614FF0A533BB61FB691B68BA69E1
:1030D0009A4211D1FB6904331B68BA699A420BD139
:1030E000FB6908331B68BA699A4205D1FB690C3346
:1030F0001B68BA699A4209D02B4B1B6834337B6139
:10310000294B1B6879691846FDF733FA274B1B6872
:10311000BB60BB68B3FA83F3FB71FB79C3F11F0398
:103120003B6123493A6913469B0013449B000B44BF
:103130001B68002B0BD14FF0500383F31188BFF3B2
:103140006F8FBFF34F8F3B6000BF00BFFDE73A6951
:1031500013469B0013449B00154A1344FB60FB6815
:103160005B685A68FB685A60FB685A68FB680833FA
:103170009A4203D1FB68DA68FB685A60FB685B68B7
:10318000DB68094A1360084B1B6800BF2037BD4647
:1031900080BD00BF6C0900205809002004050020F4
:1031A0007409002070090020500600204C090020FE
:1031B0005406002080B584B000AF786039607B6829
:1031C000002B0BD14FF0500383F31188BFF36F8FA7
:1031D000BFF34F8FFB6000BF00BFFDE7074B1B68CD
:1031E000183319467868FEF7CBF80121386800F0EB
:1031F000F7FC00BF1037BD4680BD00BF5006002061
:1032000080B586B000AFF860B9607A60FB68002BCB
:103210000BD14FF0500383F31188BFF36F8FBFF3CF
:103220004F8F3B6100BF00BFFDE7FB685B687B61C0
:10323000154B1B687A69DA61134B1B687A699268CF
:103240001A62114B1A687B699B6818325A600E4BE0
:103250001B6803F118027B699A600B4B1B68FA68C4
:103260009A62FB681B685A1CFB681A607B68002B1B
:1032700002D04FF0FF33BB607968B86800F0B0FC53
:1032800000BF1837BD4680BD5006002080B58AB00B
:1032900000AF78607B68DB68DB683B623B6A002BD1
:1032A0000BD14FF0500383F31188BFF36F8FBFF33F
:1032B0004F8FFB6000BF00BFFDE73B6A9B6AFB616D
:1032C0003B6ADB693A6A126A9A603B6A1B6A3A6A2D
:1032D000D2695A60FB695A683B6A18339A4203D133
:1032E0003B6A1A6AFB695A603B6A00229A62FB6970
:1032F0001B685A1EFB691A604B4B1B68002B62D17E
:103300003B6A5B697B613B6A9B683A6AD2689A60F8
:103310003B6ADB683A6A92685A607B695A683B6A22
:1033200004339A4203D13B6ADA687B695A603B6A8C
:1033300000225A617B691B685A1E7B691A603B6ACE
:10334000DB6A01229A40394B1B681343374A1360EA
:103350003B6ADA6A364913469B0013449B000B44D0
:1033600004331B683B613B6A3A699A603B699A681F
:103370003B6ADA603B699B683A6A04325A603B6A8E
:103380001A1D3B699A603B6ADA6A13469B00134434
:103390009B00274A1A443B6A5A613B6ADA6A24490D
:1033A00013469B0013449B000B441B683A6AD26A85
:1033B000591C1F4813469B0013449B00034419608B
:1033C00000F0BCF91BE01B4B5B68BB613B6ABA6950
:1033D000DA61BB699A683B6A1A62BB699B683A6AA0
:1033E00018325A603B6A03F11802BB699A603B6A63
:1033F000104A9A620F4B1B6801330E4A13603B6AF6
:10340000DA6A0D4B1B68DB6A9A4205D901237B629D
:103410000A4B01221A6001E000237B627B6A184696
:103420002837BD4680BD00BF6C0900204C09002034
:1034300054060020040900205006002058090020EE
:1034400080B483B000AF7860064B1A687B681A605E
:10345000054B1A687B685A6000BF0C37BD4680BCBC
:10346000704700BF5C0900204809002080B588B083
:1034700000AF786039607B68002B0BD14FF05003B0
:1034800083F31188BFF36F8FBFF34F8F3B6100BF92
:1034900000BFFDE73B68002B0BD14FF0500383F3D7
:1034A0001188BFF36F8FBFF34F8FFB6000BF00BF6A
:1034B000FDE701F039F81F4B1B68BB617B685B6857
:1034C000BA69D31A7B613B681B68B3F1FF3F02D135
:1034D0000023FB6126E07B681A68174B1B689A4241
:1034E0000AD07B685B68BA699A4205D30123FB6105
:1034F0003B6800221A6015E03B681B687A699A42B3
:103500000BD23B681A687B69D21A3B681A607868EC
:10351000FFF796FF0023FB6104E03B6800221A607E
:103520000123FB6101F030F8FB6918462037BD46E6
:1035300080BD00BF480900205C09002080B400AFB6
:10354000034B01221A6000BFBD4680BC704700BF1C
:103550005809002080B584B000AF786000F0B0F862
:10356000184B1B68012B07D9174B4FF080521A607C
:10357000BFF34F8FBFF36F8FFFF7A8FAF860FB68B8
:10358000012BEBD9FFF794FA104B1A68104B1B680C
:103590009A420BD24FF0500383F31188BFF36F8F21
:1035A000BFF34F8FBB6000BF00BFFDE7FFF78EFA90
:1035B000F860FB68012B02D9F86801F067F8FFF7A3
:1035C000C1FACBE75406002004ED00E064090020B6
:1035D0004809002080B483B000AF01233B60012381
:1035E000FB71124B1B68002B02D00023FB7117E00C
:1035F0000F4B1B68002B02D00023FB7110E00D4B1A
:103600001B68002B02D00023FB7109E00A4B1A68EB
:103610000A4B19683B68CB1A9A4201D10223FB710D
:10362000FB7918460C37BD4680BC70470409002062
:1036300058090020540900203009002044090020C6
:1036400080B582B000AF00237B600CE07A6813463F
:103650009B0013449B00124A13441846FDF742FE98
:103660007B6801337B607B681F2BEFD90D48FDF72A
:1036700039FE0D48FDF736FE0C48FDF733FE0C48C9
:10368000FDF730FE0B48FDF72DFE0B4B054A1A6087
:103690000A4B054A1A6000BF0837BD4680BD00BF0F
:1036A00054060020D4080020E80800200409002067
:1036B0001809002030090020FC0800200009002023
:1036C00080B582B000AF19E000F02EFF104BDB6830
:1036D000DB687B607B6804331846FDF789FE0D4B81
:1036E0001B68013B0B4A13600B4B1B68013B0A4AEA
:1036F000136000F049FF786800F010F8064B1B6873
:10370000002BE1D100BF00BF0837BD4680BD00BF20
:1037100018090020440900202C09002080B582B03F
:1037200000AF78607B681B6B184601F027FA786859
:1037300001F024FA00BF0837BD4680BD80B400AF59
:10374000094B1B681B68002B04D1084B4FF0FF325C
:103750001A6005E0044B1B68DB681B68034A1360B2
:1037600000BFBD4680BC7047FC08002064090020F3
:1037700080B483B000AF0B4B1B68002B02D1012338
:103780007B6008E0084B1B68002B02D102237B60A2
:1037900001E000237B607B6818460C37BD4680BC87
:1037A000704700BF500900206C09002080B586B02A
:1037B00000AF78607B683B6100237B617B68002BF6
:1037C00000F089803B69DA6A454B1B68DB6A9A42E4
:1037D00078D23B699B69002B06DB414B1B68DB6A97
:1037E000C3F120023B699A613B6959693B69DA6A16
:1037F00013469B0013449B003A4A1344994259D103
:103800003B6904331846FDF7F3FD0346002B0AD14C
:103810003B69DB6A012202FA03F3DA43324B1B688D
:103820001340314A13602E4B1B68DA6A3B69DA6237
:103830003B69DB6A01229A402B4B1B6813432A4ADF
:1038400013603B69DA6A274913469B0013449B00C7
:103850000B4404331B68FB603B69FA689A60FB68A1
:103860009A683B69DA60FB689B683A6904325A607F
:103870003B691A1DFB689A603B69DA6A13469B0034
:1038800013449B00174A1A443B695A613B69DA6A40
:10389000144913469B0013449B000B441B683A6970
:1038A000D26A591C0F4813469B0013449B000344E3
:1038B000196004E00A4B1B68DA6A3B69DA6201238B
:1038C0007B6108E03B69DA6C054B1B68DB6A9A4256
:1038D00001D201237B617B6918461837BD4680BD44
:1038E00050060020540600204C09002080B588B006
:1038F00000AF78607B68BB610023FB617B68002BB5
:1039000000F090804A4B1B68BA699A420BD04FF086
:10391000500383F31188BFF36F8FBFF34F8F3B6169
:1039200000BF00BFFDE7BB691B6D002B0BD14FF043
:10393000500383F31188BFF36F8FBFF34F8FFB608A
:1039400000BF00BFFDE7BB691B6D5A1EBB691A654E
:10395000BB69DA6ABB69DB6C9A4263D0BB691B6DD9
:10396000002B5FD1BB6904331846FDF741FD0346C8
:10397000002B0AD1BB69DB6A012202FA03F3DA43A6
:103980002C4B1B6813402B4A1360BB69DA6CBB6974
:10399000DA62BB69DB6AC3F12002BB699A61BB6969
:1039A000DB6A01229A40234B1B681343214A1360B0
:1039B000BB69DA6A204913469B0013449B000B4401
:1039C00004331B687B61BB697A699A607B699A687A
:1039D000BB69DA607B699B68BA6904325A60BB696B
:1039E0001A1D7B699A60BB69DA6A13469B0013440F
:1039F0009B00114A1A44BB695A61BB69DA6A0E49D5
:103A000013469B0013449B000B441B68BA69D26A9F
:103A1000591C094813469B0013449B00034419603A
:103A20000123FB61FB6918462037BD4680BD00BFFE
:103A3000500600204C0900205406002080B58AB0B2
:103A400000AF786039607B683B620123FB617B6873
:103A5000002B00F0A5803B6A1B6D002B0BD14FF0B3
:103A6000500383F31188BFF36F8FBFF34F8F3B6118
:103A700000BF00BFFDE73B6ADB6C3A689A4202D99F
:103A80003B687B6202E03B6ADB6C7B623B6ADB6A21
:103A90007A6A9A4200F084803B6A1B6DFA699A4206
:103AA0007ED1414B1B683A6A9A420BD14FF05003CA
:103AB00083F31188BFF36F8FBFF34F8FFB6000BF9D
:103AC00000BFFDE73B6ADB6ABB613B6A7A6ADA6288
:103AD0003B6A9B69002B04DB7B6AC3F120023B6AD3
:103AE0009A613B6A5969BA6913469B0013449B006B
:103AF0002E4A1344994253D13B6A04331846FDF7CA
:103B000077FC0346002B0AD13B6ADB6A012202FAEA
:103B100003F3DA43264B1B681340254A13603B6AC4
:103B2000DB6A01229A40224B1B681343204A136030
:103B30003B6ADA6A1D4913469B0013449B000B4401
:103B400004331B687B613B6A7A699A607B699A6877
:103B50003B6ADA607B699B683A6A04325A603B6A66
:103B60001A1D7B699A603B6ADA6A13469B0013440C
:103B70009B000E4A1A443B6A5A613B6ADA6A0B4957
:103B800013469B0013449B000B441B683A6AD26A9D
:103B9000591C064813469B0013449B0003441960BC
:103BA00000BF2837BD4680BD5006002054060020C7
:103BB0004C09002080B483B000AF084B1B687B60C9
:103BC0007B68002B04D07B681B6D5A1C7B681A65D0
:103BD0007B6818460C37BD4680BC704750060020F5
:103BE00080B588B000AF78603960374B1B68FB61E7
:103BF000364B1B68BB61364B1B687B61354B1B68C2
:103C000004331846FDF7F4FB0346002B0BD1314B70
:103C10001B68DB6A012202FA03F3DA432E4B1B68AE
:103C200013402D4A13607B68B3F1FF3F24D13B68FA
:103C3000002B21D0294B5B683B61264B1B683A69FE
:103C40009A60244B1B683A699268DA60214B1A68C3
:103C50003B699B6804325A601E4B1B681A1D3B6906
:103C60009A601C4B1B681D4A5A611C4B1B68013330
:103C70001A4A136000BF22E0FA697B681344FB60B4
:103C8000144B1B68FA685A60FA68FB699A4207D2BB
:103C9000104B1B68043319467869FDF771FB0EE081
:103CA0000C4B1B6804331946B869FDF769FB0C4BD4
:103CB0001B68FA689A4202D2094AFB68136000BF87
:103CC0002037BD4680BD00BF48090020FC08002009
:103CD00000090020500600204C0900203009002077
:103CE0006409002080B584B002AF00237B6000F03F
:103CF000B5FA124B1B68002B0BD0114B01931F23FD
:103D0000009300234FF482720E490F48FEF717FC10
:103D100078607B68002B0BD14FF0500383F3118840
:103D2000BFF36F8FBFF34F8F3B6000BF00BFFDE756
:103D30007B6818460837BD4680BD00BFA809002033
:103D4000AC09002074AC0008A53E000880B588B01E
:103D500002AFF860B9607A603B602C2000F0DCFDB7
:103D600078617B69002B0DD07B69002283F82820C5
:103D70007B6901933B6A00933B687A68B968F8688D
:103D800000F005F87B6918461837BD4680BD80B540
:103D900086B000AFF860B9607A603B60BB68002B0A
:103DA0000BD14FF0500383F31188BFF36F8FBFF334
:103DB0004F8F7B6100BF00BFFDE700F04FFA7B6AC9
:103DC000FA681A607B6ABA689A617B6A3A68DA6153
:103DD0007B6A3A6A1A627B6A04331846FDF7A1FAD5
:103DE0007B68002B08D07B6A93F8283043F00403EB
:103DF000DAB27B6A83F8282000BF1837BD4680BD41
:103E000080B584B000AFF860B9607A6008E0FB6804
:103E10009B69BA681344BB60FB681B6AF8689847E3
:103E2000FB689A69BB68D118BB687A68F86800F0CB
:103E3000DDF80346002BEAD100BF00BF1037BD46B6
:103E400080BD000080B584B000AF78603960144B4D
:103E50001B68DB68DB68FB60FB6804331846FDF712
:103E6000C7FAFB6893F8283003F00403002B05D051
:103E70003A687968F868FFF7C3FF08E0FB6893F8D1
:103E8000283023F00103DAB2FB6883F82820FB68AE
:103E90001B6AF868984700BF1037BD4680BD00BF59
:103EA000A009002080B584B000AF786007F1080356
:103EB000184600F059F8F860BB681946F86800F039
:103EC00005F800F0D5F800BFF0E7000080B584B039
:103ED00000AF78603960FEF7EBFD07F10803184684
:103EE00000F064F8F860BB68002B31D13B68002B10
:103EF0000AD17A68FB689A4206D8FEF723FEF96871
:103F00007868FFF79FFF25E03B68002B09D0134B33
:103F10001B681B68002B02D101233B6001E00023DA
:103F20003B600F4B18687A68FB68D31A3A681946E9
:103F3000FEF722FAFEF706FE0346002B0AD1094BD4
:103F40004FF080521A60BFF34F8FBFF36F8F01E0C5
:103F5000FEF7F8FD00BF1037BD4680BDA409002064
:103F6000A809002004ED00E080B485B000AF7860BF
:103F70000D4B1B681B68002B01D1012200E00022C1
:103F80007B681A607B681B68002B05D1064B1B6899
:103F9000DB681B68FB6001E00023FB60FB681846E0
:103FA0001437BD4680BC7047A009002080B584B09E
:103FB00000AF7860FEF7CEFEF8600B4B1B68FA6826
:103FC0009A4205D200F024F97B6801221A6002E0CF
:103FD0007B6800221A60044AFB681360FB6818467D
:103FE0001037BD4680BD00BFB009002080B586B047
:103FF00000AFF860B9607A603B6000237B61FB68CA
:10400000BA685A60FB68FA681A61BA687B689A42B3
:1040100012D87A683B68D21AFB689B699A4202D32D
:1040200001237B611BE0104B1A68FB6804331946BF
:104030001046FDF7A5F912E07A683B689A4206D26D
:10404000BA683B689A4202D301237B6107E0074BC1
:104050001A68FB68043319461046FDF791F97B692D
:1040600018461837BD4680BDA4090020A0090020CD
:1040700080B588B000AF07F1080300221A605A60CB
:104080009A60B1E0BB68002BC0F2AE803B69FB6177
:10409000FB695B69002B04D0FB6904331846FDF70C
:1040A000A7F93B1D1846FFF781FFB861BB68092BD4
:1040B0005CD0092B00F39580082B4DD0082B00F322
:1040C0009080072B00F38D80062B11DA052B73D01F
:1040D000052B00F38680042B48D0042B00F381804D
:1040E000022B02DC002B03DC7BE0032B34D078E0D6
:1040F000FB6993F8283043F00103DAB2FB6983F8D7
:104100002820FA68FB699B69D118FB68BA69F869CD
:10411000FFF76CFF0346002B65D0FB6993F828304E
:1041200003F00403002B09D0FA68FB699B69134470
:10413000BA691946F869FFF763FE08E0FB6993F86E
:10414000283023F00103DAB2FB6983F82820FB69E9
:104150001B6AF869984746E0FB6993F8283023F01A
:104160000103DAB2FB6983F828203DE0FB6993F88C
:10417000283043F00103DAB2FB6983F82820FA689B
:10418000FB699A61FB699B69002B0BD14FF05003CF
:1041900083F31188BFF36F8FBFF34F8F7B6100BF35
:1041A00000BFFDE7FB699A69BB69D118BB69BA69B1
:1041B000F869FFF71BFF17E0FB6993F8283003F05D
:1041C0000203002B03D1F86900F0D8FC0CE0FB6976
:1041D00093F8283023F00103DAB2FB6983F8282032
:1041E00002E000BF00E000BF084B1B6807F10801B8
:1041F00000221846FDF704FD0346002B7FF442AF72
:1042000000BF00BF2037BD4680BD00BFA809002009
:1042100080B582B000AF09E00E4B1B68DB681B68FD
:104220003B604FF0FF313868FFF70CFE094B1B680D
:104230001B68002BF0D1074B1B687B60064B1B688B
:10424000044A1360044A7B68136000BF0837BD4608
:1042500080BD00BFA0090020A409002080B500AFE8
:1042600000F062F9124B1B68002B1DD11148FDF7BD
:1042700039F81148FDF736F8104B0E4A1A60104B0A
:104280000D4A1A6000220C210520FDF76DF9034646
:10429000074A1360064B1B68002B05D0044B1B68B4
:1042A00008491846FDF7E2FF00F06EF900BF80BD37
:1042B000A8090020780900208C090020A00900200E
:1042C000A40900207CAC000880B485B000AFF86081
:1042D000B9607A60FB68043BFB60FB684FF080725A
:1042E0001A60FB68043BFB60BB6823F00102FB68BB
:1042F0001A60FB68043BFB600C4AFB681A60FB68B1
:10430000143BFB607A68FB681A60FB68043BFB6047
:10431000FB686FF002021A60FB68203BFB60FB68E1
:1043200018461437BD4680BC704700BF31430008B3
:1043300080B485B000AF00237B60124B1B68B3F1E3
:10434000FF3F0BD04FF0500383F31188BFF36F8F03
:10435000BFF34F8FFB6000BF00BFFDE74FF050037E
:1043600083F31188BFF36F8FBFF34F8FBB6000BF24
:1043700000BF7B68002BFCD000BF00BF1437BD46D8
:1043800080BC70472C0200200000000000000000EC
:10439000074B19680868B0E8F04F80F30988BFF34D
:1043A0006F8F4FF0000080F311887047AFF30080EB
:1043B0005006002000BF00BF08480068006880F376
:1043C00008884FF0000080F3148862B661B6BFF32E
:1043D0004F8FBFF36F8F00DF00BF000008ED00E0DC
:1043E00000BF00BF80B586B000AF464B1B68464A91
:1043F00093420BD14FF0500383F31188BFF36F8FBB
:10440000BFF34F8FFB6000BF00BFFDE73D4B1B6854
:104410003E4A93420BD14FF0500383F31188BFF310
:104420006F8FBFF34F8F3B6100BF00BFFDE7384B7D
:104430007B617B691B78DBB27B607B69FF221A7032
:104440007B691B78DBB2FB70FB78DBB203F05003B7
:10445000DAB2304B1A70304B07221A6009E02E4B4B
:104460001B68013B2C4A1360FB78DBB25B00DBB2BC
:10447000FB70FB78DBB203F08003802BEFD0264B80
:104480001B68032B0BD04FF0500383F31188BFF34D
:104490006F8FBFF34F8FBB6000BF00BFFDE71E4BA8
:1044A0001B681B021C4A13601B4B1B6803F4E06370
:1044B000194A13607B68DAB27B691A70174B1B6864
:1044C000164A43F470031360144B1B68134A43F0FD
:1044D0007043136000F0A4F9114B00221A6000F041
:1044E000CFF9104B1B680F4A43F040431360FFF7AE
:1044F00063FFFEF7BDFDFFF71BFF002318461837CB
:10450000BD4680BD00ED00E071C20F4170C20F4199
:1045100000E400E0C0090020C409002020ED00E014
:104520002C02002034EF00E080B483B000AF4FF0E5
:10453000500383F31188BFF36F8FBFF34F8F7B60FE
:1045400000BF0F4B1B6801330D4A13600C4B1B68F7
:10455000012B10D10B4B1B68DBB2002B0BD04FF0A3
:10456000500383F31188BFF36F8FBFF34F8F3B600E
:1045700000BF00BFFDE700BF0C37BD4680BC7047E1
:104580002C02002004ED00E080B483B000AF124B99
:104590001B68002B0BD14FF0500383F31188BFF33E
:1045A0006F8FBFF34F8F7B6000BF00BFFDE70A4BEB
:1045B0001B68013B084A1360074B1B68002B05D1A1
:1045C00000233B603B6883F3118800BF00BF0C37BA
:1045D000BD4680BC704700BF2C02002000000000D8
:1045E000EFF30980BFF36F8F154B1A681EF0100FA1
:1045F00008BF20ED108A20E9F04F106009B44FF099
:10460000500080F31188BFF34F8FBFF36F8FFEF719
:104610002FFD4FF0000080F3118809BC196808686D
:10462000B0E8F04F1EF0100F08BFB0EC108A80F316
:104630000988BFF36F8F7047AFF30080AFF300803E
:104640005006002000BF00BF80B582B000AF4FF021
:10465000500383F31188BFF36F8FBFF34F8F7B60DD
:1046600000BFFEF7EBFB0346002B03D0064B4FF0D9
:1046700080521A6000233B603B6883F3118800BFBF
:1046800000BF0837BD4680BD04ED00E080B588B0AE
:1046900000AF78605B4B1B687A689A4202D9594B2D
:1046A0001B687B6072B6BFF34F8FBFF36F8FFEF74F
:1046B00091FF0346002B01D162B69EE0524B0622C9
:1046C0001A60524B1B687B617B69002B02D1504BF7
:1046D0001B687B617B68013B4D4A126802FB03F358
:1046E0007A691344FB614B4B1B6803F08063002B1A
:1046F00008D0484B4FF000721A60454B1B68FA69AE
:10470000D31AFB61444B1B68FA699A4204D9424BA5
:104710001B68FA69D31AFB61404AFB6913603B4B83
:1047200000221A60384B1B68374A43F001031360BC
:104730007B68FB60FB68002B04D0BFF34F8F30BF5A
:10474000BFF36F8F62B6BFF34F8FBFF36F8F72B639
:10475000BFF34F8FBFF36F8F2B4B06221A602A4B8C
:104760001B6803F48033002B1DD0294B1A68274B9C
:104770001968FB69CB1A1344013B3B61264B1B684C
:104780003A699A4204D9224B1B683A699A4203D982
:104790001F4B1B68013B3B61204A3B6913607B68F0
:1047A000013BBB611AE0194B1B687B61184B1B680E
:1047B0007A6803FB02F27B69D31ABB60144B1B6857
:1047C000BA68B2FBF3F3BB61BB690133104A1268EC
:1047D00003FB02F21149BB68D31A0B600B4B00229A
:1047E0001A60094B07221A60094B1B680B4A013BF0
:1047F0001360B869FEF7C6FA62B600BF2037BD463F
:1048000080BD00BFB809002010E000E018E000E023
:10481000B409002004ED00E0BC09002014E000E031
:1048200080B400AF0E4B0F4A1A600D4B1B686FF03F
:104830007F42B2FBF3F30C4A13600C4B5E221A600A
:104840000B4B00221A600B4B00221A600A4B0B4ADA
:104850001A60074B07221A6000BFBD4680BC704734
:10486000B409002040900200B8090020BC090020D3
:1048700010E000E018E000E014E000E03F900200EB
:10488000DFF80C00016841F470010160704700001E
:1048900088ED00E000BF00BF80B485B000AFEFF34B
:1048A0000583FB60FB680F2B15D9174AFB6813447F
:1048B0001B78FB72154B1B78FA7A9A420BD24FF099
:1048C000500383F31188BFF36F8FBFF34F8F7B606B
:1048D00000BF00BFFDE70E4B1B6803F4E0620D4B09
:1048E0001B689A420BD94FF0500383F31188BFF332
:1048F0006F8FBFF34F8F3B6000BF00BFFDE700BF6E
:104900001437BD4680BC7047F0E300E0C0090020CA
:104910000CED00E0C409002080B58EB000AF7860D7
:104920000023FB627B68002B22D00823DB437A68DC
:104930009A421BD808227B6813447B607B6803F093
:104940000703002B14D07B6803F00703C3F10803AF
:10495000BB62BB6ADB437A689A4204D87A68BB6A56
:1049600013447B6004E000237B6001E000237B6054
:10497000FEF79EF87A4B1B68002B01D100F074F90A
:104980007B68002BC0F2D3807B68002B00F0CF80C7
:10499000744B1B687A689A4200F2C980724B3B6381
:1049A000714B1B687B637B6B704A934205D37B6BB7
:1049B0006F4A934201D8012300E00023002B29D144
:1049C0004FF0500383F31188BFF36F8FBFF34F8F06
:1049D0003B6200BF00BFFDE77B6B3B637B6B1B68EB
:1049E0007B637B6B614A934205D37B6B604A934246
:1049F00001D8012300E00023002B0BD14FF050031E
:104A000083F31188BFF36F8FBFF34F8FFB6100BF3C
:104A100000BFFDE77B6B5B687A689A4203D97B6BCA
:104A20001B68002BD8D14E4B1B687A6B9A427ED004
:104A30003B6B1B6808221344FB62FB6A4B4A9342A0
:104A400005D3FB6A4A4A934201D8012300E00023C0
:104A5000002B0BD14FF0500383F31188BFF36F8FFE
:104A6000BFF34F8FBB6100BF00BFFDE77B6B1A68D0
:104A70003B6B1A607B6B5B687A689A420BD94FF08C
:104A8000500383F31188BFF36F8FBFF34F8F7B61A8
:104A900000BF00BFFDE77B6B5A687B68D21A082312
:104AA0005B009A4224D97A6B7B6813447B627B6AF1
:104AB00003F00703002B0BD04FF0500383F3118852
:104AC000BFF36F8FBFF34F8F3B6100BF00BFFDE7A8
:104AD0007B6B5A687B68D21A7B6A5A607B6B7A68F8
:104AE0005A603B6B1A687B6A1A603B6B7A6A1A6081
:104AF0001C4B1A687B6B5B68D31A1A4A1360194BFC
:104B00001A681C4B1B689A4203D2164B1B68194A41
:104B100013607B6B5B6843F000427B6B5A607B6B7E
:104B200000221A60144B1B680133134A1360FEF70E
:104B300009F8FB6A03F00703002B0BD04FF050037A
:104B400083F31188BFF36F8FBFF34F8FFB6000BFFC
:104B500000BFFDE7FB6A18463837BD4680BD00BF81
:104B6000D0350120D4350120C8350120C8090020E6
:104B7000C7350120D8350120DC35012080B588B04B
:104B800000AF78607B68FB617B68002B60D00823F6
:104B90005B42FA691344FB61FB69BB61BB692E4A46
:104BA000934205D3BB692D4A934201D8012300E00B
:104BB0000023002B0BD14FF0500383F31188BFF378
:104BC0006F8FBFF34F8F7B6100BF00BFFDE7BB69F5
:104BD0005B68002B0BDB4FF0500383F31188BFF3AE
:104BE0006F8FBFF34F8F3B6100BF00BFFDE7BB6915
:104BF0001B68002B0BD04FF0500383F31188BFF3D9
:104C00006F8FBFF34F8FFB6000BF00BFFDE7BB6935
:104C10005B68002B1CDABB691B68002B18D1BB69D1
:104C20005B6823F00042BB695A60FDF741FFBB6936
:104C30005A680B4B1B681344094A1360B86900F0AB
:104C40006DF8084B1B680133064A1360FDF77AFFC5
:104C500000BF2037BD4680BDC8090020C7350120F0
:104C6000D4350120E035012080B485B000AF4FF489
:104C70009633BB60244BFB60FB6803F00703002BFB
:104C80000CD0FB680733FB60FB6823F00703FB6075
:104C9000BA68FB68D31A1C4A1344BB60FB681B4A02
:104CA00013601A4B00225A60FA68BB6813447B6099
:104CB00008227B689B1A7B607B6823F007037B607C
:104CC0007B68134A1360124B1B6800225A60104B1A
:104CD0001B6800221A60FB683B603B687A68D21A46
:104CE0003B685A600A4B1A683B681A603B685B680D
:104CF000084A13603B685B68074A136000BF1437BB
:104D0000BD4680BC704700BFC8090020C8350120DF
:104D1000D0350120D8350120D435012080B487B0AA
:104D200000AF7860364B7B6102E07B691B687B617A
:104D30007B691B687A689A42F7D87B69304A93424C
:104D400018D07B692F4A934205D37B692E4A934240
:104D500001D8012300E00023002B0BD14FF05003BA
:104D600083F31188BFF36F8FBFF34F8FFB6000BFDA
:104D700000BFFDE77B693B617B695B683A6913446F
:104D80007A689A4208D17B695A687B685B681A44E2
:104D90007B695A607B697B607B683B617B685B6891
:104DA0003A691A447B691B689A4218D17B691A6870
:104DB000164B1B689A420DD07B685A687B691B684A
:104DC0005B681A447B685A607B691B681A687B6859
:104DD0001A6008E00D4B1A687B681A6003E07B6973
:104DE0001A687B681A607A697B689A4202D07B698C
:104DF0007A681A6000BF1C37BD4680BC704700BF90
:104E0000C8350120C8090020C7350120D035012050
:104E100080B483B000AF78607B6800221A677B683B
:104E200000225A677B6800229A6700BF0C37BD4694
:104E300080BC704790B587B000AFF860B9607A6009
:104E40003B60FB68DB6F3B614FF0FF337B61FB68CE
:104E50005B684FF0FF311846FCF7B4FFF868FFF7C6
:104E6000D7FF3B699C68B86804F030FB03461A46DC
:104E7000FB6AB9683869A047FB689B68F96A1846FD
:104E8000FCF7A0FF0346012B16D17B68002B10D046
:104E9000FB681A6F3B689A4228BF1A46BB6A1A60C1
:104EA000FB6803F10C01BB6A1B681A46786804F0C2
:104EB000FFFAFB689B6F7B61FB6858680023002248
:104EC0000021FCF7F9FB7B6918461C37BD4690BDF5
:104ED00080B588B002AF7860396007F1100107F142
:104EE000140207F10803019307F10C0300930B462A
:104EF0000A49786804F0ECF87B691A063B691B04E0
:104F00001A43FB681B021A43BB681A433B681A60CA
:104F1000012318461837BD4680BD00BF84AC000889
:104F200080B584B000AFF860B9607A607968B8681D
:104F3000FFF7CEFF034618461037BD4680BD000080
:104F400080B588B004AF786039607B68FB60FB682F
:104F50005B681B0EFB72FB685B681B0CBB72FB681B
:104F60005B681B0A7B72FB685B683B72F87ABB7AF2
:104F70007A7A397A0291019200930346044A102109
:104F8000386804F051F8002318461037BD4680BD3C
:104F900084AC000880B582B000AF7860786800F01B
:104FA000E7F8034618460837BD4680BD80B582B095
:104FB00000AF786039603968786800F055F90346C9
:104FC00018460837BD4680BD80B584B000AFF86094
:104FD000B9607A607A68B968F86800F0A7F90346A2
:104FE00018461037BD4680BD80B584B000AFF8606C
:104FF000B9607A607A68B968F86800F06BFA0346BD
:1050000018461037BD4680BD80B584B000AF7860CB
:1050100000F0A4F8B8600023FB6020E0BA68FB68E9
:10502000342101FB03F3134480331B68002B13D09E
:10503000BA68FB68342101FB03F31344A8331B68EF
:105040001A467B68934207D1FB68342202FB03F3C4
:105050008033BA68134406E0FB680133FB60FB68E9
:10506000042BDBDD002318461037BD4680BD80B51C
:105070008AB000AF78607B68DB6F7B6100233B61A7
:1050800000233B6200237B620023FB610023BB61A2
:105090007B69DB6807F10F014FF0FF3278699847B1
:1050A0000346002B54D17B6A022B2AD07B6A022B49
:1050B000EEDC7B6A002B03D07B6A012B0AD046E032
:1050C000FB7B2C2B3ED101237B623869FFF79CFFD1
:1050D000B86137E0FB7B3A2B02D102237B6236E0DA
:1050E000FB7B2F2B30D9FB7B392B2DD83A6A13460B
:1050F0009B0013445B001A46FB7B303B13443B622E
:1051000022E0FA693B6A9A420ADABB69002B07D0AF
:10511000BB69186B07F10F0100230022FCF7CCFAE2
:10512000FB690133FB61FA693B6A9A420EDBBB699A
:10513000002B0FD0BB69D86A002300220021FCF7A6
:10514000BBFA07E000BFA3E700BFA1E700BF9FE7EE
:1051500000BF00E000BF2837BD4680BD80B400AF6F
:10516000024B1846BD4680BC704700BF300200208D
:1051700090B587B002AF78607868FCF78DF8034689
:10518000334AD367324BDB6F002B02D14FF0FF3332
:1051900059E02F4BDB6F5C682D4BD86F01230093D8
:1051A0004E2308224FF4E131A0470120FCF76BFAAF
:1051B0000346274A5360264B5B68002B02D14FF011
:1051C000FF3340E0032200210120FCF7CDF9034624
:1051D0001F4A93601E4B9B68002B07D11C4B5B68DA
:1051E0001846FCF7EFFE4FF0FF332CE0194B01930C
:1051F00004230093164B4FF4806217491748FDF7BC
:105200009EF9F860FB68012B02D04FF0FF331AE0E3
:105210004FF47A7301930023009300230022104976
:105220000B48FFF707FE4FF4FA60FDF777FB4FF4EA
:105230007A73019300230093002300220949044854
:10524000FFF7F8FD002318461437BD4690BD00BF98
:1052500030020020E435012098AC0008B955000860
:10526000A8AC0008B4AC000880B5A6B002AF786066
:105270003960FFF773FFC7F88C004FF47A7301931E
:1052800000230093002300222449D7F88C00FFF765
:10529000D1FD0346002B02D04FF0FF3339E03B68CD
:1052A000002B09D007F10C003B6800937B681C4A77
:1052B000802103F0B9FE06E007F10C007B68194A73
:1052C000802103F0B1FE07F10C0142F2107301934B
:1052D0000023009300230022D7F88C00FFF7AAFDDB
:1052E0000346002B02D04FF0FF3312E04FF47A73E5
:1052F000019300230093002300220B49D7F88C0070
:10530000FFF798FD0346002B02D04FF0FF3300E07B
:10531000002318469037BD4680BD00BFBCAC0008D6
:10532000CCAC0008E4AC0008F8AC000880B586B04E
:1053300000AFF860B9607A6000237B610CE03C4A02
:105340007B69342101FB03F3134480331B68002B7A
:1053500006D07B6901337B617B69042BEFDD00E0C4
:1053600000BF7B69042B02DD4FF0FF335CE0304A65
:105370007B69342101FB03F31344803301221A605B
:105380002B4A7B69342101FB03F313448433BA684D
:105390001A60274A7B69342101FB03F31344AC33C1
:1053A0001B68002B1AD1032200210120FCF7DCF836
:1053B00002461F497B69342000FB03F30B44AC33E6
:1053C0001A601B4A7B69342101FB03F31344AC339D
:1053D0001B68002B02D14FF0FF3325E0144A7B6994
:1053E000342101FB03F31344B0331B68002B1AD1A3
:1053F000002204216420FCF7B7F802460C497B69BF
:10540000342000FB03F30B44B0331A60084A7B6975
:10541000342101FB03F31344B0331B68002B02D18A
:105420004FF0FF3300E07B6918461837BD4680BD5A
:105430003002002080B58AB000AFFFF78FFEF86120
:105440003B1D00221A605A609A60DA601A610023DC
:105450007B6222E0FA697B6A342101FB03F3134487
:1054600080331B68002B15D0FA697B6A342101FB5D
:1054700003F31344A8331B68BB61BB69002B09DB32
:10548000BB69042B06DCBB699B0028333B4401222B
:1054900043F8242C7B6A01337B627B6A042BD9DDC1
:1054A00000233B620CE03B6A9B0028333B4453F8EB
:1054B000243C002B01D13B6A07E03B6A01333B628D
:1054C0003B6A042BEFDD4FF0FF3318462837BD460B
:1054D00080BD000080B5A0B002AFF860B9607A600E
:1054E000FFF73CFE7867FB68342202FB03F380334E
:1054F0007A6F13443B67FFF79DFFF866FB6E002B46
:1055000002DA4FF0FF334CE007F124034022002180
:10551000184603F0E1FE07F1140300221A605A60F6
:105520009A60DA60BB68BB66BB6E5B885BBAA7F843
:10553000663007F114031946B868FFF701FD3B6FA9
:105540005B68012B0DD1B7F8663007F12400019399
:1055500007F114030093154BFA6E154903F096FDFD
:105560000CE0B7F8663007F12400019307F114034B
:105570000093104BFA6E0E4903F088FD07F12401E9
:105580004FF47A7301930023009300230022786F75
:10559000FFF750FC0346002B02D04FF0FF3300E032
:1055A000002318467837BD4680BD00BF8CAD00088B
:1055B00090AD0008ACAD000880B5A0B000AF786039
:1055C0007B68BB67BB6FDB6F7B670023FB677B6F11
:1055D000DB6807F173014FF0FF32786F984703469D
:1055E000002B71D1FB6F5A1CFA6797F87320803338
:1055F0003B4403F8742CFB6F632B01DD0023FB6736
:1056000007F10C02FB6F134400221A7007F10C0320
:105610002E49184603F068FE0346002B05D0B86FEC
:10562000FFF725FD0023FB674FE097F873300A2B47
:105630001ED1BB6F5B6F132B18D8BB6F1B6F08336A
:10564000BA6F1344181DFB6F01331A4607F10C03A0
:10565000194603F02DFFBB6F5B6F5A1CBB6F5A6777
:10566000BB6F1A6FFB6F1A44BB6F1A670023FB678F
:1056700007F10C031649184603F036FE0346002BCB
:1056800008D107F10C031349184603F02DFE034619
:10569000002B9CD007F10C030D49184603F024FEA3
:1056A0000346002B03D0BB6F00229A6702E0BB6F5A
:1056B00001229A67BB6F9868002300220021FBF744
:1056C000FBFF0023FB6782E700BF80E7E0AD000837
:1056D000E8AD0008F0AD000880B500AF03F040F978
:1056E00000BF80BD80B400AF00BFBD4680BC704726
:1056F00080B500AFFFF7F0FF00BF80BD80B584B07C
:1057000000AF00F05FF81F4BFB6019E00023BB60A7
:105710000EE0FB681A68BB689B001A44FB68596876
:10572000BB689B000B4412681A60BB680133BB6006
:10573000FB689B68BA689A42EBD3FB680C33FB604A
:10574000FB68114A9342E1D3104B7B6014E00023C5
:105750003B6009E07B681A683B689B0013440022A9
:105760001A603B6801333B607B685B683A689A4229
:10577000F0D37B6808337B607B68054A9342E6D3AD
:10578000FAF74CFD98AF0008A4AF0008A4AF0008DA
:10579000A4AF000880B400AF00BFFDE780B400AF45
:1057A00000BFFDE780B400AF00BFFDE780B400AFED
:1057B00000BFFDE780B400AF00BFFDE780B400AFDD
:1057C00000BFFDE780B400AF054BD3F88830044A32
:1057D00043F47003C2F8883000BFBD4680BC7047F8
:1057E00000ED00E080B485B000AF78607B6803F026
:1057F0000703FB600C4BDB68BB60BA684FF6FF0326
:105800001340BB60FB681A02BB68134343F0BF63DD
:1058100043F40033BB60044ABB68D36000BF143755
:10582000BD4680BC704700BF00ED00E080B400AF13
:10583000044BDB681B0A03F007031846BD4680BC17
:10584000704700BF00ED00E080B483B000AF0346B6
:10585000FB7197F90730002B0BDBFB7903F01F027C
:10586000064997F907305B09012000FA02F241F876
:10587000232000BF0C37BD4680BC704700E100E02C
:1058800080B483B000AF03463960FB7197F90730ED
:10589000002B0ADB3B68DAB20C4997F9073012019A
:1058A000D2B20B4483F800230AE03B68DAB208491D
:1058B000FB7903F00F03043B1201D2B20B441A76BA
:1058C00000BF0C37BD4680BC704700BF00E100E060
:1058D00000ED00E080B489B000AFF860B9607A6094
:1058E000FB6803F007037B617B69033B042B04D84F
:1058F0007B69C3F10703FB6101E00423FB617B6962
:105900000433062B03D97B69033BBB6101E0002311
:10591000BB614FF0FF32FB6902FA03F3DA43BB6865
:105920001A40BB699A404FF0FF31BB6901FA03F39B
:10593000D9437B680B40134318462437BD4680BCCF
:105940007047000080B582B000AF78607B68013B93
:10595000B3F1807F01D301230FE00A4A7B68013B4A
:1059600053600F214FF0FF30FFF78AFF054B0022F5
:105970009A60044B07221A60002318460837BD4678
:1059800080BD00BF10E000E080B582B000AF78605D
:105990007868FFF727FF00BF0837BD4680BD80B598
:1059A00086B000AF0346B9607A60FB7300237B6169
:1059B000FFF73CFF78617A68B9687869FFF78AFF7A
:1059C000024697F90F3011461846FFF759FF00BFFE
:1059D0001837BD4680BD80B582B000AF0346FB716D
:1059E00097F907301846FFF72FFF00BF0837BD466D
:1059F00080BD80B582B000AF78607868FFF7A2FF05
:105A0000034618460837BD4680BD000080B586B005
:105A100000AF786000237B6103F00CF838617B688D
:105A2000002B01D1012399E07B68022283F8352005
:105A30007B68002283F834207B681B681A687B68C7
:105A40001B6822F001021A600FE002F0F3FF024629
:105A50003B69D31A052B08D97B6820225A657B68DD
:105A6000032283F83520032378E07B681B681B68DA
:105A700003F00103002BE8D17B681B681B687B6186
:105A80007A69384B13407B617B685A687B689B68F6
:105A90001A437B68DB681A437B681B691A437B687F
:105AA0005B691A437B689B691A437B68DB691A430D
:105AB0007B681B6A13437A6913437B617B685B6A6B
:105AC000042B07D17B68DA6A7B681B6B13437A6906
:105AD00013437B617B681B687A691A607B681B686B
