:020000040800F2
:1000000000500020390300082503000829030008D8
:100010002D0300083103000835030008000000002C
:1000200000000000000000000000000021030008A4
:100030002103000800000000210300081503000848
:100040002103000821030008210300082103000800
:1000500021030008210300082103000821030008F0
:1000600021030008210300082103000821030008E0
:1000700021030008210300082103000821030008D0
:1000800021030008210300082103000821030008C0
:1000900021030008210300082103000821030008B0
:1000A00021030008210300082103000821030008A0
:1000B0002103000821030008210300082103000890
:1000C0002103000821030008210300082103000880
:1000D0002103000821030008210300082103000870
:1000E0002103000821030008210300080348044BF2
:1000F000834202D0034B03B118477047240000200D
:1001000024000020000000000548064B1B1AD90FF0
:1001100001EBA301491002D0034B03B1184770470C
:1001200024000020240000200000000010B5064C30
:10013000237843B9FFF7DAFF044B13B10448AFF358
:1001400000800123237010BD240000200000000067
:100150005018000808B5054B1BB105490548AFF319
:100160000080BDE80840FFF7CFBF00BF00000000DF
:100170002800002050180008A3F5803A704700BFFF
:10018000174B002B08BF134B9D46FFF7F5FF0021CF
:100190008B460F461348144A121A01F019F80E4BF9
:1001A000002B00D098470D4B002B00D09847002023
:1001B000002104000D000D48002802D00C48AFF3C8
:1001C000008001F00DF82000290000F015F800F083
:1001D000EDFF00BF00000800190300081D03000820
:1001E00000500020240000208400002000000000B7
:1001F00000000000FEE700BF80B500F071FE00F0D7
:10020000BBFE00F0DFFE00F037FF0121DFF8D890E1
:100210000846364A00F02EFE032306210120D9F8B5
:10022000002000F039FE01210220314A00F022FEB8
:10023000012103202F4A00F01DFE012104202E4A37
:1002400000F018FE2D4D2E4EDFF8B8A02E4CDFF832
:10025000BC802F4F00F0DAFE0128287032D000F069
:100260007BFF0028F6D0284A2849294800F084FF5F
:100270000323062102203A6800F00EFE0123062126
:10028000032098F8002000F007FE02230621042036
:10029000227800F001FE022309210420627800F098
:1002A000FBFD02230C210420A27800F0F5FD0223BF
:1002B0000F210420E27800F0EFFD00F0A7FE0128F6
:1002C0002870CCD133680E4A03F07F3101F101313F
:1002D00003F080334B40D9F800009AF800103360E7
:1002E00000F024FFBBE700BF0C0000204012000814
:1002F0004812000850120008581200085000002050
:1003000000000020080000204000002048000020DD
:100310004C00002000F036BC704700BF00F020BC4D
:10032000FEE700BFFEE700BFFEE700BFFEE700BF3D
:10033000FEE700BFFEE700BF08B500F045F81E4C21
:100340001E4BA34238BF9C4614D2DCF808306BB178
:10035000DCE9001200230439043A51F8040F013398
:1003600042F8040FDCF808008342F6D30CF10C0CC1
:10037000A445EAD31248134B98421BD2002403F140
:10038000FF3CACEB000C00F110032CF0070C083024
:100390009C4450F8043C53B1002350F8082C043A14
:1003A00042F8044F50F8041C01338B42F8D3083054
:1003B0006045EED1FFF7E4FE681800085C180008FD
:1003C0006818000868180008704700BF704700BF31
:1003D00000287DD038B590F820300446002B74D02A
:1003E0002268136843F00103136000F0D7FB054651
:1003F00004E000F0D3FB401B0A285DD823685A684C
:10040000D107F6D51A6822F002021A6000F0C6FB86
:10041000054604E000F0C2FB401B0A284CD82368C4
:100420005A689207F6D4227E0025012A1A684FF0F6
:10043000010C0CBF42F0800222F080021A60627E42
:100440002846012A1A680CBF42F0400222F04002FE
:100450001A60A27E012A1A680CBF42F0200222F024
:1004600020021A60E27E012A1A680CBF22F01002F4
:1004700042F010021A60227F012A1A680CBF42F073
:10048000080222F008021A60627F012A1A680CBF73
:1004900042F0040222F004021A60D4E902210A4365
:1004A00021690A4361690A43616801390A43DA61D3
:1004B000656284F820C038BD0522636A012043F4D8
:1004C0000033636284F8202038BDFFF77FFF87E7A1
:1004D0000120704790F820200346013A012A05D9EF
:1004E0005A6A012042F480225A6270474FF0010C90
:1004F00003684869D3F8002210B542EA0C02C3F839
:100500000022D3F81C4200F01F02D1F81CE00CFAC4
:1005100002F224EA020CC3F81CC2BEF1000F41D162
:10052000D3F80CC2CC682CEA020CC3F80CC2B1F8A8
:1005300004C003EBC0004CEA044CC0F840C28C6815
:10054000B1F800C04CEA044CC0F844C2886918BB3A
:10055000D3F8040220EA0200C3F804020869A8B92B
:10056000D3F8140220EA0200C3F81402096A012930
:1005700004D1D3F81C120A43C3F81C22D3F800227A
:10058000002022F00102C3F8002210BDD3F81402AB
:100590001043C3F81402E9E7D3F804021043C3F888
:1005A0000402DBE7BEF1010FD0D1D3F80CC20C6816
:1005B0004CEA020CC3F80CC2B1F804C003EBC00053
:1005C0004CEA044CC0F840C28C68B1F80CC04CEA4C
:1005D000044CC0F844C2B9E738B590F8203004465E
:1005E000012B05D0436A43F400234362012038BD48
:1005F0000223026880F82030136823F0010313609F
:1006000000F0CCFA054604E000F0C8FA431B0A2BC0
:1006100007D823685B6813F00103F5D118466362BD
:1006200038BD0522636A43F40033636284F82020F6
:10063000DCE700BF10B590F820E0D0F800C00EF164
:10064000FF3EBEF1010F1C46DCF8083033D813F032
:10065000E05F42D04FF0010EC3F301600EFA00F3E9
:100660002360D1E9023E63BB0B684EEA435300F1BD
:10067000180E4FEA0E1E4CF80E300C690CEB0013EE
:10068000C3F88441097D012905D1D3F8841141F4CF
:100690008071C3F8841151680CEB001CCCF88C11EC
:1006A00012680020CCF88821D3F8802142F00102A2
:1006B000C3F8802110BD436A43F4802343620120C4
:1006C00010BD4C6843EA0E0300F1180E43EAC40360
:1006D0004FEA0E1E4CF80E30CFE7436A43F4001386
:1006E0004362ECE790F820C00CF1FF3CBCF1010F35
:1006F00078D830B5D0F800C051B9DCF80CE01EF065
:10070000030F0AD1436A43F400134362012030BD52
:10071000DCF810E01EF0030FF4D00CEB011EDEF845
:10072000B04104F004049460002C61D0DEF8B041C4
:10073000E4085460DEF8B0410CEB011C04F0020444
:10074000D460DEF8B44124074EBF0824DEF8B4417B
:1007500004F00F041461DEF8B441DEF8B4E1DCF813
:10076000B8514FEA1E4EC4F3072CC2F818C0C2F8A5
:1007700014E01D70026802EB0112D2F8B821120ACF
:100780005A70026802EB0112D2F8B821120C9A706A
:10079000026802EB0112D2F8B821120EDA70026878
:1007A00002EB0112D2F8BC211A71026802EB0112AD
:1007B000D2F8BC21120A5A71026802EB0112D2F877
:1007C000BC21120C9A71026802EB0112D2F8BC2112
:1007D000120EDA71036881B9DA6842F02002DA6039
:1007E000002030BD436A43F48023436201207047F8
:1007F000DEF8B041640D14609CE71A6942F02002F3
:100800001A61EDE790F82030013B012B01D900205F
:100810007047036819B9D86800F003007047186979
:1008200000F00300704700BF4FF6FF0C06490302BB
:10083000CA6803F4E06302EA0C02134343F0BF63A7
:1008400043F40033CB60704700ED00E0164B00B579
:10085000DB68C3F30223A3F1030CBCF1040F19D826
:100860004FF0FF3EC3F107030EFA03F3DB430EFA2A
:100870000CFE22EA0E02194001FA0CF11143002885
:100880004FEA01110ADB00F1604000F5614080F899
:10089000001300BD00220F239446ECE7034B00F049
:1008A0000F00C318197600BD00ED00E0FCEC00E07D
:1008B0000138B0F1807F01D3012070474FF0E02371
:1008C00000224FF0F00C07215861034880F823C044
:1008D0009A6110461961704700ED00E02DE9F04F74
:1008E0000E6883B0002E00F0AC8000220446012583
:1008F0004FF00F0892461346784F06E0013336FA60
:1009000003F002F1040200F09C8005FA03F030EAE3
:10091000060E00EA060CF1D14E68122E00F2998004
:10092000122E0DD8DFE806F0A70AB3D70C0C0C0C7A
:100930000C0C0C0C0C0C0C0C0CBBB700D1F80CA064
:10094000BCF1FF0F99BFA646164604F1040EA2F1B2
:100950002006DEF8000008FA06F920EA09000AFA83
:1009600006F63043CEF800004868C6006FD5BE6971
:1009700003F0030946F00106BE61BE694FEA89092A
:1009800006F001060196019E23F0030606F180465B
:1009900006F58036D6F808E008FA09FB2EEA0B0EB9
:1009A000DFF83CB15C4513D00BF5806B5C457AD029
:1009B000DFF830B15C4563D0DFF82CB15C450CBF8B
:1009C0004FF0030B4FF0040B0BFA09F94EEA090E36
:1009D000C6F808E0DFF814E110F4801FDEF80860C4
:1009E00014BF46EA0C0626EA0C06CEF80860DFF8CB
:1009F000FCE010F4001FDEF80C6014BF46EA0C06A1
:100A000026EA0C06CEF80C60DFF8E0E010F4003FB8
:100A1000DEF8046014BF46EA0C0626EA0C06CEF89F
:100A20000460324E10F4803F30680DD040EA0C0074
:100A300030600E68013336FA03F002F104027FF4ED
:100A400064AF03B0BDE8F08F20EA0C0030600E68A0
:100A500054E7DFF89CE076450DD02BD8AEF5801E2C
:100A6000764508D00EF5702E764504D0AEF5801E82
:100A700076457FF465AF8E6836BB4FF0040A5FE7BA
:100A80004FF0020B0BFA09F94EEA090EA0E7C8680D
:100A900000F1080A54E7C86800F10C0A50E7C8687A
:100AA00000F1040A4CE74FF0010B0BFA09F94EEA8A
:100AB000090E8DE7DFF83CE07645DCD00EF5803E90
:100AC00076457FF43DAFD6E7012E4FF0080A0CBF04
:100AD0002061606134E74FF0000A31E70010024006
:100AE00000080140001001400014014000040140D2
:100AF00000002210000031108368194214BF012049
:100B00000020704702B9090401617047704700BFB7
:100B10004FF47A7310B50F49044609780E4AB3FBB7
:100B2000F1F0126882B0B2FBF0F0FFF7C1FE08B935
:100B30000F2C02D9012002B010BD024601902146BF
:100B40004FF0FF30FFF782FE044B01981C6002B0AB
:100B500010BD00BF1400002010000020180000206D
:100B6000074A08B51368032043F010031360FFF72A
:100B70005BFE0F20FFF7CCFFFFF7C8FF002008BD8A
:100B800000200240034A044B11681B780B44136099
:100B9000704700BF5400002014000020014B18686B
:100BA000704700BF5400002038B50446FFF7F6FF39
:100BB000631C054602D0044B1B781C44FFF7EEFF74
:100BC000401BA042FAD338BD1400002001200321AD
:100BD0002DE900484FF0110C4FF4407B104B86B0CC
:100BE0009A6942F008029A619B69CDE9040103F019
:100BF0000803019302A90B48CDE902BC019BFFF752
:100C00006DFE01224FF480710648FFF77BFF012241
:100C10004FF400710348FFF775FF06B0BDE8008888
:100C200000100240000C014008B501224FF4007191
:100C30000B48FFF767FF01224FF480710848FFF768
:100C400061FF00224FF400710548FFF75BFFBDE82C
:100C5000084000224FF480710148FFF753BF00BFE6
:100C6000000C014070B506460024802545FA04F2C8
:100C70004FF4007110483240FFF744FF01224FF457
:100C800080710D48FFF73EFF013400224FF4807160
:100C90000948FFF737FF082CE8D101224FF4807193
:100CA0000548FFF72FFFBDE8704000224FF4807128
:100CB0000148FFF727BF00BF000C014010B50446F4
:100CC000FFF7B2FF7820FFF7CDFF0020FFF7CAFF44
:100CD0002046FFF7C7FF00224FF400710848FFF7D6
:100CE00011FF01224FF480710548FFF70BFFBDE8AB
:100CF000104001224FF400710148FFF703BF00BF0D
:100D0000000C014038B5002565F04F00C0B2FFF778
:100D1000D5FF1020FFF7D2FF0020FFF7CFFF802480
:100D2000FFF782FF7820FFF79DFF4020FFF79AFF33
:100D30000020FFF797FF00224FF400710B48FFF7E8
:100D4000E1FE01224FF480710848FFF7DBFE01222B
:100D50004FF400710548FFF7D5FE631E13F0FF0442
:100D6000DED10135082DCFD138BD00BF000C0140C8
:100D70002DE9F0474E1E8146F6000138F6B24000DC
:100D80004FEA161A60F04F0000F0FE004AF0100A19
:100D9000174606F00806FFF791FF5046FFF78EFF53
:100DA0003046FFF78BFF304C203F04F1080808EB7A
:100DB000071804EB071414F8015BFFF735FF7820E0
:100DC000FFF750FF4020FFF74DFF2846FFF74AFF8F
:100DD00000224FF400712548FFF794FE01224FF4E2
:100DE00080712248FFF78EFE01224FF400711F48E8
:100DF000FFF788FE4445DED14FEA4900013860F034
:100E00004F00C0B2FFF75AFF5046FFF757FF30467A
:100E1000FFF754FF164C04F1080606EB071604EB27
:100E2000071414F8015FFFF7FFFE7820FFF71AFFA1
:100E30004020FFF717FF2846FFF714FF00224FF46A
:100E400000710A48FFF75EFE01224FF480710748E7
:100E5000FFF758FE01224FF400710448FFF752FEDD
:100E6000B442DED1BDE8F08760120008000C0140FA
:100E700067120008F8B51546127862B10F460646AB
:100E80000024391901343046C9B2E4B2FFF770FFCB
:100E90002A5D002AF5D1F8BD03B3F8B5174606461A
:100EA0001C465D18012C17D00121A31E013B5A1CC2
:100EB0004FEA0111FAD1B7FBF1F202F00F02092A51
:100EC000A5EB040194BF303237323046C9B2FFF788
:100ED0004FFF013CE6D1F8BD3A46EEE7704700BF50
:100EE00008B5FFF773FEAE20FFF7E8FED520FFF749
:100EF000E5FE8020FFF7E2FEA820FFF7DFFE3F209F
:100F0000FFF7DCFED320FFF7D9FE0020FFF7D6FE67
:100F10004020FFF7D3FEA120FFF7D0FEC820FFF747
:100F2000CDFEDA20FFF7CAFE1220FFF7C7FE8120B0
:100F3000FFF7C4FECF20FFF7C1FED920FFF7BEFEAA
:100F4000F120FFF7BBFEDB20FFF7B8FE3020FFF7F4
:100F5000B5FEA420FFF7B2FEA620FFF7AFFE8D205E
:100F6000FFF7ACFE1420FFF7A9FEAF20FFF7A6FEA7
:100F7000BDE80840FFF7C6BE03202DE900484FF04A
:100F8000010C4FF4005B0D4B86B09A6902A942F048
:100F900010029A619B69059003F0100301930848C1
:100FA000CDE902BC019BFFF799FC01224FF40051EF
:100FB0000348FFF7A7FD06B0BDE800880010024017
:100FC000001001402DE930484FF0030C40F60204B8
:100FD00000254FF0010B0B4B86B09A690A4842F08E
:100FE00008029A619B6902A903F008030193CDE905
:100FF0000245CDE904BC019BFFF770FC06B0BDE8DB
:10100000308800BF00100240000C014010B50221E2
:101010001848FFF771FD40B14FF4006115480024F6
:10102000FFF76AFDA8B1204610BD1420FFF7BCFDF4
:1010300002211048FFF760FD0028F9D01420FFF7C7
:10104000B3FD4FF400610B480124FFF755FD002864
:10105000E9D11420FFF7A8FD4FF400610548FFF720
:101060004BFD0028F8D002241420FFF79DFD2046F8
:1010700010BD00BF000C014030B502210024032048
:101080004FF48055254B91B09A6942F004029A6161
:101090009A6902F004020092009ADA6942F0007242
:1010A000DA61DB69CDE9031403F00073019302A94F
:1010B00005901B48019B0295FFF710FC01254FF49A
:1010C000006302A91648CDE902340495FFF706FC37
:1010D0004FF0807313484FF480323021C3604FF4D7
:1010E00000130261104A43610260C0E90114846187
:1010F0008483FFF76DF906A90A48CDE90B44CDE9D1
:101100000644CDE90844CDE90E540D950A94FFF745
:10111000E1F90448FFF760FA11B030BD0010024059
:1011200000080140580000200064004030B58446AB
:101130008E460024002589B001AB02A90548CDE9FF
:1011400002CCCDE90445CDF818E0FFF773FA09B0F9
:1011500030BD00BF5800002008B500210548FFF74A
:1011600051FB00210348FFF74DFB003818BF012059
:1011700008BD00BF5800002030B589B013460446B2
:1011800001AA0D4608480021FFF7ACFADDE901236A
:101190000399002908BF1346049A23600AB9059BE6
:1011A0002B7009B030BD00BF5800002008B5064BB9
:1011B000044613B10021AFF30080044B1B6803B158
:1011C00098472046FFF716F8000000008000002036
:1011D00003460244934200D1704703F8011BF9E72C
:1011E00070B500260C4C0D4B1D1BB6EBA50F09D19D
:1011F000002600F019F80A4C0A4B1D1BB6EBA50F90
:1012000005D170BD54F8043B98470136EDE754F81A
:10121000043B98470136F1E71C0000201C00002029
:101220001C00002020000020F8B500BFF8BC08BC5E
:101230009E467047F8B500BFF8BC08BC9E46704794
:10124000547849443A000000527849443A0000007A
:101250004C656E673A000000446174613A0000001A
:10126000000000000000000000000000000000007E
:10127000000000F800000000000000333000000013
:1012800000100C06100C060000000000000000001A
:1012900040C07840C0784000043F04043F0404008C
:1012A000007088FC08300000001820FF211E00009C
:1012B000F008F000E018000000211C031E211E00B1
:1012C00000F00888700000001E2123241927211037
:1012D00010160E00000000000000000000000000DA
:1012E000000000E018040200000000071820400081
:1012F00000020418E0000000004020180700000071
:10130000404080F0804040000202010F01020200D4
:10131000000000F0000000000101011F01010100B8
:10132000000000000000000080B07000000000001D
:1013300000000000000000000001010101010101A6
:10134000000000000000000000303000000000003D
:101350000000000080601804006018060100000012
:1013600000E010080810E000000F102020100F000F
:10137000001010F8000000000020203F2020000096
:1013800000700808088870000030282422213000EE
:1013900000300888884830000018202020110E00F6
:1013A0000000C02010F8000000070424243F24009F
:1013B00000F80888880808000019212020110E0074
:1013C00000E0108888180000000F112020110E0086
:1013D00000380808C83808000000003F000000007E
:1013E0000070880808887000001C222121221C003F
:1013F00000E010080810E0000000312222110F0068
:10140000000000C0C00000000000003030000000FC
:10141000000000800000000000008060000000006C
:101420000000804020100800000102040810200085
:1014300040404040404040000404040404040400D0
:101440000008102040800000002010080402010065
:10145000007048080808F000000000303601000065
:10146000C030C828E810E0000718272423140B0018
:101470000000C038E0000000203C23020227382092
:1014800008F8888888700000203F202020110E0076
:10149000C03008080808380007182020201008006D
:1014A00008F808080810E000203F202020100F0056
:1014B00008F88888E8081000203F20202320180022
:1014C00008F88888E8081000203F2000030000008A
:1014D000C03008080838000007182020221E02002B
:1014E00008F808000008F808203F210101213F20EA
:1014F000000808F8080800000020203F2020000015
:1015000000000808F8080800C08080807F00000004
:1015100008F888C028180800203F2001263820003D
:1015200008F8080000000000203F202020203000A4
:1015300008F8F800F8F80800203F003F003F2000BE
:1015400008F830C00008F808203F200007183F00C6
:10155000E01008080810E0000F10202020100F00F5
:1015600008F808080808F000203F210101010000E8
:10157000E01008080810E0000F18242438504F002D
:1015800008F8888888887000203F2000030C3020ED
:1015900000708808080838000038202121221C002B
:1015A000180808F8080818000000203F2000000074
:1015B00008F808000008F808001F202020201F005D
:1015C0000878880000C83808000007380E010000BD
:1015D000F80800F80008F800033C0700073C030087
:1015E000081868808068180820302C03032C3020ED
:1015F0000838C800C83808000000203F200000005C
:1016000010080808C83808002038262120201800B3
:10161000000000FE020202000000007F4040400087
:10162000000C30C000000000000000010638C000BF
:1016300000020202FE000000004040407F00000067
:10164000000004020202040000000000000000008C
:10165000000000000000000080808080808080808A
:101660000002020400000000000000000000000072
:1016700000008080808000000019242222223F2068
:1016800008F8008080000000003F112020110E00AB
:101690000000008080800000000E1120202011003A
:1016A000000000808088F800000E112020103F20EC
:1016B0000000808080800000001F22222222130070
:1016C000008080F0888888180020203F20200000BB
:1016D0000000808080808000006B94949493600070
:1016E00008F8008080800000203F210000203F207B
:1016F00000809898000000000020203F202000007B
:10170000000000809898000000C08080807F00006A
:1017100008F8000080808000203F24022D30200047
:10172000000808F8000000000020203F20200000F2
:101730008080808080808000203F20003F20003F0C
:101740008080008080800000203F210000203F201A
:101750000000808080800000001F202020201F00CB
:10176000808000808000000080FFA12020110E00FA
:101770000000008080808000000E112020A0FF80EB
:10178000808080008080800020203F212000010098
:1017900000008080808080000033242424241900ED
:1017A000008080E0808000000000001F20200000FA
:1017B0008080000000808000001F202020103F203B
:1017C000808080000080808000010E3008060100CB
:1017D00080800080008080800F300C030C300F0070
:1017E00000808000808080000020312E0E3120009B
:1017F000808080000080808080818E7018060100CB
:1018000000808080808080000021302C22213000E8
:1018100000000000807C020200000000003F404009
:1018200000000000FF00000000000000FF000000BA
:101830000002027C800000000040403F00000000E9
:101840000006010102020404000000000000000084
:041850000000000094
:0818540024E9FF7F0100000000
:0C185C00681800080000002009000000CF
:101868001122334400000000040000007707000044
:1018780000127A0001000000100000005501000865
:041888002D01000826
:0400000508000339B3
:00000001FF
